{
	"address": "0x0F2424054Bb7A0e32F16D78eed5603fD20D6f039",
	"abi": [
		{
			"inputs": [
				{
					"internalType": "address",
					"name": "_TCO2Faucet",
					"type": "address"
				},
				{
					"internalType": "address",
					"name": "_TCO2Token",
					"type": "address"
				},
				{
					"internalType": "address",
					"name": "_EPNS_COMM_ADDRESS",
					"type": "address"
				},
				{
					"internalType": "address",
					"name": "_LINK_TOKEN_ADDRESS",
					"type": "address"
				},
				{
					"internalType": "string[]",
					"name": "_certificateArgs",
					"type": "string[]"
				},
				{
					"internalType": "address[]",
					"name": "_calculatorArgs",
					"type": "address[]"
				}
			],
			"stateMutability": "nonpayable",
			"type": "constructor"
		},
		{
			"inputs": [
				{
					"internalType": "address",
					"name": "spender",
					"type": "address"
				},
				{
					"internalType": "uint256",
					"name": "allowance",
					"type": "uint256"
				},
				{
					"internalType": "uint256",
					"name": "needed",
					"type": "uint256"
				}
			],
			"name": "ERC20InsufficientAllowance",
			"type": "error"
		},
		{
			"inputs": [
				{
					"internalType": "address",
					"name": "sender",
					"type": "address"
				},
				{
					"internalType": "uint256",
					"name": "balance",
					"type": "uint256"
				},
				{
					"internalType": "uint256",
					"name": "needed",
					"type": "uint256"
				}
			],
			"name": "ERC20InsufficientBalance",
			"type": "error"
		},
		{
			"inputs": [
				{
					"internalType": "address",
					"name": "approver",
					"type": "address"
				}
			],
			"name": "ERC20InvalidApprover",
			"type": "error"
		},
		{
			"inputs": [
				{
					"internalType": "address",
					"name": "receiver",
					"type": "address"
				}
			],
			"name": "ERC20InvalidReceiver",
			"type": "error"
		},
		{
			"inputs": [
				{
					"internalType": "address",
					"name": "sender",
					"type": "address"
				}
			],
			"name": "ERC20InvalidSender",
			"type": "error"
		},
		{
			"inputs": [
				{
					"internalType": "address",
					"name": "spender",
					"type": "address"
				}
			],
			"name": "ERC20InvalidSpender",
			"type": "error"
		},
		{
			"inputs": [
				{
					"internalType": "address",
					"name": "owner",
					"type": "address"
				}
			],
			"name": "OwnableInvalidOwner",
			"type": "error"
		},
		{
			"inputs": [
				{
					"internalType": "address",
					"name": "account",
					"type": "address"
				}
			],
			"name": "OwnableUnauthorizedAccount",
			"type": "error"
		},
		{
			"inputs": [
				{
					"internalType": "uint256",
					"name": "value",
					"type": "uint256"
				},
				{
					"internalType": "uint256",
					"name": "length",
					"type": "uint256"
				}
			],
			"name": "StringsInsufficientHexLength",
			"type": "error"
		},
		{
			"anonymous": false,
			"inputs": [
				{
					"indexed": true,
					"internalType": "address",
					"name": "owner",
					"type": "address"
				},
				{
					"indexed": true,
					"internalType": "address",
					"name": "spender",
					"type": "address"
				},
				{
					"indexed": false,
					"internalType": "uint256",
					"name": "value",
					"type": "uint256"
				}
			],
			"name": "Approval",
			"type": "event"
		},
		{
			"anonymous": false,
			"inputs": [
				{
					"indexed": true,
					"internalType": "address",
					"name": "buyer",
					"type": "address"
				},
				{
					"indexed": false,
					"internalType": "uint256",
					"name": "amount",
					"type": "uint256"
				}
			],
			"name": "BougthCarbonCredits",
			"type": "event"
		},
		{
			"anonymous": false,
			"inputs": [
				{
					"indexed": true,
					"internalType": "bytes32",
					"name": "requestId",
					"type": "bytes32"
				},
				{
					"indexed": false,
					"internalType": "string",
					"name": "moneySpentProteins",
					"type": "string"
				},
				{
					"indexed": false,
					"internalType": "string",
					"name": "moneySpentFats",
					"type": "string"
				},
				{
					"indexed": false,
					"internalType": "string",
					"name": "moneySpentCarbs",
					"type": "string"
				},
				{
					"indexed": false,
					"internalType": "uint256",
					"name": "proteinsEmission",
					"type": "uint256"
				},
				{
					"indexed": false,
					"internalType": "uint256",
					"name": "fatsEmission",
					"type": "uint256"
				},
				{
					"indexed": false,
					"internalType": "uint256",
					"name": "carbsEmission",
					"type": "uint256"
				},
				{
					"indexed": false,
					"internalType": "uint256",
					"name": "foodEmission",
					"type": "uint256"
				},
				{
					"indexed": false,
					"internalType": "address",
					"name": "buyer",
					"type": "address"
				}
			],
			"name": "GroceryCarbonFootprintOffset",
			"type": "event"
		},
		{
			"anonymous": false,
			"inputs": [
				{
					"indexed": true,
					"internalType": "address",
					"name": "previousOwner",
					"type": "address"
				},
				{
					"indexed": true,
					"internalType": "address",
					"name": "newOwner",
					"type": "address"
				}
			],
			"name": "OwnershipTransferred",
			"type": "event"
		},
		{
			"anonymous": false,
			"inputs": [
				{
					"indexed": true,
					"internalType": "address",
					"name": "buyer",
					"type": "address"
				},
				{
					"indexed": false,
					"internalType": "uint256",
					"name": "amount",
					"type": "uint256"
				},
				{
					"indexed": false,
					"internalType": "uint256",
					"name": "certificateId",
					"type": "uint256"
				}
			],
			"name": "RetiredCarbonCredits",
			"type": "event"
		},
		{
			"anonymous": false,
			"inputs": [
				{
					"indexed": true,
					"internalType": "address",
					"name": "from",
					"type": "address"
				},
				{
					"indexed": true,
					"internalType": "address",
					"name": "to",
					"type": "address"
				},
				{
					"indexed": false,
					"internalType": "uint256",
					"name": "value",
					"type": "uint256"
				}
			],
			"name": "Transfer",
			"type": "event"
		},
		{
			"anonymous": false,
			"inputs": [
				{
					"indexed": true,
					"internalType": "bytes32",
					"name": "requestId",
					"type": "bytes32"
				},
				{
					"indexed": false,
					"internalType": "string",
					"name": "distance",
					"type": "string"
				},
				{
					"indexed": false,
					"internalType": "string",
					"name": "nights",
					"type": "string"
				},
				{
					"indexed": false,
					"internalType": "uint256",
					"name": "flightEmission",
					"type": "uint256"
				},
				{
					"indexed": false,
					"internalType": "uint256",
					"name": "hotelEmission",
					"type": "uint256"
				},
				{
					"indexed": false,
					"internalType": "uint256",
					"name": "travelEmission",
					"type": "uint256"
				},
				{
					"indexed": false,
					"internalType": "address",
					"name": "buyer",
					"type": "address"
				}
			],
			"name": "TravelCarbonFootprintOffset",
			"type": "event"
		},
		{
			"inputs": [],
			"name": "CARBON_CALCULATOR_ADDRESS",
			"outputs": [
				{
					"internalType": "address",
					"name": "",
					"type": "address"
				}
			],
			"stateMutability": "view",
			"type": "function"
		},
		{
			"inputs": [],
			"name": "CARBON_CERTIFICATE_ADDRESS",
			"outputs": [
				{
					"internalType": "address",
					"name": "",
					"type": "address"
				}
			],
			"stateMutability": "view",
			"type": "function"
		},
		{
			"inputs": [],
			"name": "EPNS_COMM_ADDRESS",
			"outputs": [
				{
					"internalType": "address",
					"name": "",
					"type": "address"
				}
			],
			"stateMutability": "view",
			"type": "function"
		},
		{
			"inputs": [],
			"name": "LINK_TOKEN_ADDRESS",
			"outputs": [
				{
					"internalType": "address",
					"name": "",
					"type": "address"
				}
			],
			"stateMutability": "view",
			"type": "function"
		},
		{
			"inputs": [],
			"name": "TCO2FaucetExtense",
			"outputs": [
				{
					"internalType": "contract ITCO2Faucet",
					"name": "",
					"type": "address"
				}
			],
			"stateMutability": "view",
			"type": "function"
		},
		{
			"inputs": [],
			"name": "TCO2TokenExtense",
			"outputs": [
				{
					"internalType": "contract ITCO2Token",
					"name": "",
					"type": "address"
				}
			],
			"stateMutability": "view",
			"type": "function"
		},
		{
			"inputs": [],
			"name": "TCO2TokensInContract",
			"outputs": [
				{
					"internalType": "uint256",
					"name": "",
					"type": "uint256"
				}
			],
			"stateMutability": "view",
			"type": "function"
		},
		{
			"inputs": [
				{
					"internalType": "address",
					"name": "owner",
					"type": "address"
				},
				{
					"internalType": "address",
					"name": "spender",
					"type": "address"
				}
			],
			"name": "allowance",
			"outputs": [
				{
					"internalType": "uint256",
					"name": "",
					"type": "uint256"
				}
			],
			"stateMutability": "view",
			"type": "function"
		},
		{
			"inputs": [
				{
					"internalType": "address",
					"name": "spender",
					"type": "address"
				},
				{
					"internalType": "uint256",
					"name": "value",
					"type": "uint256"
				}
			],
			"name": "approve",
			"outputs": [
				{
					"internalType": "bool",
					"name": "",
					"type": "bool"
				}
			],
			"stateMutability": "nonpayable",
			"type": "function"
		},
		{
			"inputs": [
				{
					"internalType": "address",
					"name": "account",
					"type": "address"
				}
			],
			"name": "balanceOf",
			"outputs": [
				{
					"internalType": "uint256",
					"name": "",
					"type": "uint256"
				}
			],
			"stateMutability": "view",
			"type": "function"
		},
		{
			"inputs": [
				{
					"internalType": "uint256",
					"name": "value",
					"type": "uint256"
				}
			],
			"name": "burn",
			"outputs": [],
			"stateMutability": "nonpayable",
			"type": "function"
		},
		{
			"inputs": [
				{
					"internalType": "address",
					"name": "account",
					"type": "address"
				},
				{
					"internalType": "uint256",
					"name": "value",
					"type": "uint256"
				}
			],
			"name": "burnFrom",
			"outputs": [],
			"stateMutability": "nonpayable",
			"type": "function"
		},
		{
			"inputs": [
				{
					"internalType": "address",
					"name": "_buyer",
					"type": "address"
				},
				{
					"internalType": "uint256",
					"name": "_amount",
					"type": "uint256"
				}
			],
			"name": "buyCarbonCredits",
			"outputs": [],
			"stateMutability": "nonpayable",
			"type": "function"
		},
		{
			"inputs": [],
			"name": "carbonTokensMinted",
			"outputs": [
				{
					"internalType": "uint256",
					"name": "",
					"type": "uint256"
				}
			],
			"stateMutability": "view",
			"type": "function"
		},
		{
			"inputs": [],
			"name": "decimals",
			"outputs": [
				{
					"internalType": "uint8",
					"name": "",
					"type": "uint8"
				}
			],
			"stateMutability": "view",
			"type": "function"
		},
		{
			"inputs": [
				{
					"internalType": "bytes32",
					"name": "",
					"type": "bytes32"
				}
			],
			"name": "groceryRequests",
			"outputs": [
				{
					"internalType": "string",
					"name": "moneySpentProteins",
					"type": "string"
				},
				{
					"internalType": "string",
					"name": "moneySpentFats",
					"type": "string"
				},
				{
					"internalType": "string",
					"name": "moneySpentCarbs",
					"type": "string"
				},
				{
					"internalType": "uint256",
					"name": "proteinsEmission",
					"type": "uint256"
				},
				{
					"internalType": "uint256",
					"name": "fatsEmission",
					"type": "uint256"
				},
				{
					"internalType": "uint256",
					"name": "carbsEmission",
					"type": "uint256"
				},
				{
					"internalType": "uint256",
					"name": "foodEmission",
					"type": "uint256"
				},
				{
					"internalType": "address",
					"name": "buyer",
					"type": "address"
				}
			],
			"stateMutability": "view",
			"type": "function"
		},
		{
			"inputs": [],
			"name": "name",
			"outputs": [
				{
					"internalType": "string",
					"name": "",
					"type": "string"
				}
			],
			"stateMutability": "view",
			"type": "function"
		},
		{
			"inputs": [
				{
					"internalType": "bytes32",
					"name": "_requestId",
					"type": "bytes32"
				},
				{
					"internalType": "string",
					"name": "_flag",
					"type": "string"
				},
				{
					"internalType": "string[]",
					"name": "_args",
					"type": "string[]"
				},
				{
					"internalType": "uint256[]",
					"name": "_returns",
					"type": "uint256[]"
				},
				{
					"internalType": "address",
					"name": "_buyer",
					"type": "address"
				}
			],
			"name": "offsetCarbonFootprint",
			"outputs": [],
			"stateMutability": "nonpayable",
			"type": "function"
		},
		{
			"inputs": [],
			"name": "owner",
			"outputs": [
				{
					"internalType": "address",
					"name": "",
					"type": "address"
				}
			],
			"stateMutability": "view",
			"type": "function"
		},
		{
			"inputs": [],
			"name": "renounceOwnership",
			"outputs": [],
			"stateMutability": "nonpayable",
			"type": "function"
		},
		{
			"inputs": [
				{
					"internalType": "address",
					"name": "_buyer",
					"type": "address"
				},
				{
					"internalType": "uint256",
					"name": "_amount",
					"type": "uint256"
				}
			],
			"name": "retireCarbonCredits",
			"outputs": [],
			"stateMutability": "nonpayable",
			"type": "function"
		},
		{
			"inputs": [],
			"name": "symbol",
			"outputs": [
				{
					"internalType": "string",
					"name": "",
					"type": "string"
				}
			],
			"stateMutability": "view",
			"type": "function"
		},
		{
			"inputs": [],
			"name": "totalSupply",
			"outputs": [
				{
					"internalType": "uint256",
					"name": "",
					"type": "uint256"
				}
			],
			"stateMutability": "view",
			"type": "function"
		},
		{
			"inputs": [
				{
					"internalType": "address",
					"name": "to",
					"type": "address"
				},
				{
					"internalType": "uint256",
					"name": "amount",
					"type": "uint256"
				}
			],
			"name": "transfer",
			"outputs": [
				{
					"internalType": "bool",
					"name": "",
					"type": "bool"
				}
			],
			"stateMutability": "nonpayable",
			"type": "function"
		},
		{
			"inputs": [
				{
					"internalType": "address",
					"name": "from",
					"type": "address"
				},
				{
					"internalType": "address",
					"name": "to",
					"type": "address"
				},
				{
					"internalType": "uint256",
					"name": "amount",
					"type": "uint256"
				}
			],
			"name": "transferFrom",
			"outputs": [
				{
					"internalType": "bool",
					"name": "",
					"type": "bool"
				}
			],
			"stateMutability": "nonpayable",
			"type": "function"
		},
		{
			"inputs": [
				{
					"internalType": "address",
					"name": "newOwner",
					"type": "address"
				}
			],
			"name": "transferOwnership",
			"outputs": [],
			"stateMutability": "nonpayable",
			"type": "function"
		},
		{
			"inputs": [
				{
					"internalType": "bytes32",
					"name": "",
					"type": "bytes32"
				}
			],
			"name": "travelRequests",
			"outputs": [
				{
					"internalType": "string",
					"name": "distance",
					"type": "string"
				},
				{
					"internalType": "string",
					"name": "nights",
					"type": "string"
				},
				{
					"internalType": "uint256",
					"name": "flightEmission",
					"type": "uint256"
				},
				{
					"internalType": "uint256",
					"name": "hotelEmission",
					"type": "uint256"
				},
				{
					"internalType": "uint256",
					"name": "travelEmission",
					"type": "uint256"
				},
				{
					"internalType": "address",
					"name": "buyer",
					"type": "address"
				}
			],
			"stateMutability": "view",
			"type": "function"
		},
		{
			"inputs": [],
			"name": "withdrawFunds",
			"outputs": [],
			"stateMutability": "nonpayable",
			"type": "function"
		},
		{
			"inputs": [],
			"name": "withdrawTCO2Tokens",
			"outputs": [],
			"stateMutability": "nonpayable",
			"type": "function"
		},
		{
			"stateMutability": "payable",
			"type": "receive"
		}
	],
	"transactionHash": "0x4369cc76d45eac75d9c10b015259e622f131229929d66f7d9df29295171f5a76",
	"args": [
		"0x996b39698CF96A70B7a7005B5d1924a66C5E8f0e",
		"0xa5831eb637dff307395b5183c86B04c69C518681",
		"0xb3971BCef2D791bc4027BbfedFb47319A4AAaaAa",
		"0x326C977E6efc84E512bB9C30f76E30c160eD06FB",
		[
			"Certificate",
			"CERT",
			"https://api.carbon.fyi/certificate/"
		],
		[
			"0x6E2dc0F9DB014aE19888F539E59285D2Ea04244C"
		]
	],
	"numDeployments": 2,
	"solcInputHash": "91dacffc69e9c1dfbe0084b86e0479ec",
	"bytecode": "0x60806040523480156200001157600080fd5b50604051620068d6380380620068d6833981016040819052620000349162000541565b336040518060400160405280600681526020016531b0b93137b760d11b8152506040518060400160405280600681526020016521a0a92127a760d11b815250816003908162000084919062000775565b50600462000093828262000775565b5050506001600160a01b038116620000c657604051631e4fbdf760e01b8152600060048201526024015b60405180910390fd5b620000d181620003a5565b508151600314620001345760405162461bcd60e51b815260206004820152602660248201527f5f6365727469666963617465417267732073686f756c64206265206f66206c656044820152656e677468203360d01b6064820152608401620000bd565b8051600114620001955760405162461bcd60e51b815260206004820152602560248201527f5f63616c63756c61746f72417267732073686f756c64206265206f66206c656e604482015264677468203160d81b6064820152608401620000bd565b600680546001600160a01b038089166001600160a01b031992831617909255600780548884169083161790556008805487841690831617905560098054928616929091169190911790556000828181518110620001f657620001f662000857565b6020026020010151836001600281111562000215576200021562000841565b8151811062000228576200022862000857565b60200260200101518460028081111562000246576200024662000841565b8151811062000259576200025962000857565b60200260200101516040516200026f90620003f7565b6200027d939291906200089b565b604051809103906000f0801580156200029a573d6000803e3d6000fd5b5090506000828181518110620002b457620002b462000857565b6020026020010151604051620002ca9062000405565b6001600160a01b039091168152602001604051809103906000f080158015620002f7573d6000803e3d6000fd5b50600a80546001600160a01b038581166001600160a01b031992831617909255600b805484841692168217905560405163095ea7b360e01b81526004810191909152600019602482015291925086169063095ea7b3906044016020604051808303816000875af115801562000370573d6000803e3d6000fd5b505050506040513d601f19601f82011682018060405250810190620003969190620008e4565b5050505050505050506200090f565b600580546001600160a01b038381166001600160a01b0319831681179093556040519116919082907f8be0079c531659141344cd1fd0a4f28419497f9722a3daafe3b4186f6b6457e090600090a35050565b611323806200331983390190565b61229a806200463c83390190565b80516001600160a01b03811681146200042b57600080fd5b919050565b634e487b7160e01b600052604160045260246000fd5b604051601f8201601f191681016001600160401b038111828210171562000471576200047162000430565b604052919050565b60006001600160401b0382111562000495576200049562000430565b5060051b60200190565b60005b83811015620004bc578181015183820152602001620004a2565b50506000910152565b600082601f830112620004d757600080fd5b81516020620004f0620004ea8362000479565b62000446565b82815260059290921b840181019181810190868411156200051057600080fd5b8286015b848110156200053657620005288162000413565b835291830191830162000514565b509695505050505050565b60008060008060008060c087890312156200055b57600080fd5b620005668762000413565b9550620005766020880162000413565b9450620005866040880162000413565b9350620005966060880162000413565b60808801519093506001600160401b03811115620005b357600080fd5b8701601f81018913620005c557600080fd5b8051620005d6620004ea8262000479565b808282526020820191508b60208460051b8601011115620005f657600080fd5b602084015b60208460051b860101811015620006a95780516001600160401b038111156200062357600080fd5b8d603f82880101126200063557600080fd5b858101602001516001600160401b0381111562000656576200065662000430565b6200066b601f8201601f191660200162000446565b8181528f604083858b01010111156200068357600080fd5b6200069882602083016040868c01016200049f565b8552505060209283019201620005fb565b5060a08b0151909550925050506001600160401b03811115620006cb57600080fd5b620006d989828a01620004c5565b9150509295509295509295565b600181811c90821680620006fb57607f821691505b6020821081036200071c57634e487b7160e01b600052602260045260246000fd5b50919050565b601f8211156200077057600081815260208120601f850160051c810160208610156200074b5750805b601f850160051c820191505b818110156200076c5782815560010162000757565b5050505b505050565b81516001600160401b0381111562000791576200079162000430565b620007a981620007a28454620006e6565b8462000722565b602080601f831160018114620007e15760008415620007c85750858301515b600019600386901b1c1916600185901b1785556200076c565b600085815260208120601f198616915b828110156200081257888601518255948401946001909101908401620007f1565b5085821015620008315787850151600019600388901b60f8161c191681555b5050505050600190811b01905550565b634e487b7160e01b600052602160045260246000fd5b634e487b7160e01b600052603260045260246000fd5b60008151808452620008878160208601602086016200049f565b601f01601f19169290920160200192915050565b606081526000620008b060608301866200086d565b8281036020840152620008c481866200086d565b90508281036040840152620008da81856200086d565b9695505050505050565b600060208284031215620008f757600080fd5b815180151581146200090857600080fd5b9392505050565b6129fa806200091f6000396000f3fe6080604052600436106101c65760003560e01c806379cc6790116100f7578063a9059cbb11610095578063dd62ed3e11610064578063dd62ed3e14610518578063e6cf1f2d1461055e578063e75ad1151461057e578063f2fde38b1461059e57600080fd5b8063a9059cbb146104ac578063abc3e88b146104cc578063c37964bd146104ec578063d8f1d7241461050257600080fd5b80638a5b44b3116100d15780638a5b44b3146104445780638da5cb5b1461045957806391a89a291461047757806395d89b411461049757600080fd5b806379cc6790146103d05780637f092484146103f0578063839e19d91461041057600080fd5b806324600fc31161016457806348a3b4a41161013e57806348a3b4a4146103455780634da2d12a1461036557806370a0823114610385578063715018a6146103bb57600080fd5b806324600fc3146102f2578063313ce5671461030957806342966c681461032557600080fd5b806314444130116101a0578063144441301461026157806318160ddd1461029357806322a0bb6b146102b257806323b872dd146102d257600080fd5b806302598e0a146101d257806306fdde031461020f578063095ea7b31461023157600080fd5b366101cd57005b600080fd5b3480156101de57600080fd5b506009546101f2906001600160a01b031681565b6040516001600160a01b0390911681526020015b60405180910390f35b34801561021b57600080fd5b506102246105be565b604051610206919061211d565b34801561023d57600080fd5b5061025161024c366004612153565b610650565b6040519015158152602001610206565b34801561026d57600080fd5b5061028161027c36600461217d565b61066a565b60405161020696959493929190612196565b34801561029f57600080fd5b506002545b604051908152602001610206565b3480156102be57600080fd5b506007546101f2906001600160a01b031681565b3480156102de57600080fd5b506102516102ed3660046121ea565b6107b8565b3480156102fe57600080fd5b506103076108a7565b005b34801561031557600080fd5b5060405160128152602001610206565b34801561033157600080fd5b5061030761034036600461217d565b610941565b34801561035157600080fd5b506008546101f2906001600160a01b031681565b34801561037157600080fd5b50600b546101f2906001600160a01b031681565b34801561039157600080fd5b506102a46103a0366004612226565b6001600160a01b031660009081526020819052604090205490565b3480156103c757600080fd5b5061030761094b565b3480156103dc57600080fd5b506103076103eb366004612153565b61095f565b3480156103fc57600080fd5b50600a546101f2906001600160a01b031681565b34801561041c57600080fd5b5061043061042b36600461217d565b610978565b604051610206989796959493929190612241565b34801561045057600080fd5b50610307610b5a565b34801561046557600080fd5b506005546001600160a01b03166101f2565b34801561048357600080fd5b506006546101f2906001600160a01b031681565b3480156104a357600080fd5b50610224610c83565b3480156104b857600080fd5b506102516104c7366004612153565b610c92565b3480156104d857600080fd5b506103076104e7366004612153565b610d5c565b3480156104f857600080fd5b506102a4600d5481565b34801561050e57600080fd5b506102a4600c5481565b34801561052457600080fd5b506102a46105333660046122b2565b6001600160a01b03918216600090815260016020908152604080832093909416825291909152205490565b34801561056a57600080fd5b50610307610579366004612331565b611112565b34801561058a57600080fd5b50610307610599366004612153565b61175c565b3480156105aa57600080fd5b506103076105b9366004612226565b61195f565b6060600380546105cd90612413565b80601f01602080910402602001604051908101604052809291908181526020018280546105f990612413565b80156106465780601f1061061b57610100808354040283529160200191610646565b820191906000526020600020905b81548152906001019060200180831161062957829003601f168201915b5050505050905090565b60003361065e81858561199a565b60019150505b92915050565b600e6020526000908152604090208054819061068590612413565b80601f01602080910402602001604051908101604052809291908181526020018280546106b190612413565b80156106fe5780601f106106d3576101008083540402835291602001916106fe565b820191906000526020600020905b8154815290600101906020018083116106e157829003601f168201915b50505050509080600101805461071390612413565b80601f016020809104026020016040519081016040528092919081815260200182805461073f90612413565b801561078c5780601f106107615761010080835404028352916020019161078c565b820191906000526020600020905b81548152906001019060200180831161076f57829003601f168201915b50505050600283015460038401546004850154600590950154939491939092506001600160a01b031686565b6000336107c68582856119ac565b6107d1858585611a2a565b6008546001600160a01b039081169063ba3d69d79073aa7880db88d8e051428b5204817e58d8327340de908790610809908616611a89565b61082c60125b61081d9060ff16600a612547565b610827908a612553565b611a9f565b60405160200161083d929190612575565b6040516020818303038152906040526040518463ffffffff1660e01b815260040161086a9392919061261a565b600060405180830381600087803b15801561088457600080fd5b505af1158015610898573d6000803e3d6000fd5b50600198975050505050505050565b6108af611b32565b604051600090339047908381818185875af1925050503d80600081146108f1576040519150601f19603f3d011682016040523d82523d6000602084013e6108f6565b606091505b505090508061093e5760405162461bcd60e51b815260206004820152600f60248201526e151c985b9cd9995c8819985a5b1959608a1b60448201526064015b60405180910390fd5b50565b61093e3382611b5f565b610953611b32565b61095d6000611b95565b565b61096a8233836119ac565b6109748282611b5f565b5050565b600f6020526000908152604090208054819061099390612413565b80601f01602080910402602001604051908101604052809291908181526020018280546109bf90612413565b8015610a0c5780601f106109e157610100808354040283529160200191610a0c565b820191906000526020600020905b8154815290600101906020018083116109ef57829003601f168201915b505050505090806001018054610a2190612413565b80601f0160208091040260200160405190810160405280929190818152602001828054610a4d90612413565b8015610a9a5780601f10610a6f57610100808354040283529160200191610a9a565b820191906000526020600020905b815481529060010190602001808311610a7d57829003601f168201915b505050505090806002018054610aaf90612413565b80601f0160208091040260200160405190810160405280929190818152602001828054610adb90612413565b8015610b285780601f10610afd57610100808354040283529160200191610b28565b820191906000526020600020905b815481529060010190602001808311610b0b57829003601f168201915b50505060038401546004850154600586015460068701546007909701549596929591945092506001600160a01b031688565b610b62611b32565b6007546040516370a0823160e01b81523060048201526000916001600160a01b0316906370a0823190602401602060405180830381865afa158015610bab573d6000803e3d6000fd5b505050506040513d601f19601f82011682018060405250810190610bcf919061264f565b60075460405163a9059cbb60e01b8152336004820152602481018390529192506001600160a01b03169063a9059cbb906044016020604051808303816000875af1158015610c21573d6000803e3d6000fd5b505050506040513d601f19601f82011682018060405250810190610c459190612668565b61093e5760405162461bcd60e51b815260206004820152600f60248201526e151c985b9cd9995c8819985a5b1959608a1b6044820152606401610935565b6060600480546105cd90612413565b600033610ca0818585611a2a565b6008546001600160a01b039081169063ba3d69d79073aa7880db88d8e051428b5204817e58d8327340de908790610cd8908616611a89565b610ce2601261080f565b604051602001610cf3929190612575565b6040516020818303038152906040526040518463ffffffff1660e01b8152600401610d209392919061261a565b600060405180830381600087803b158015610d3a57600080fd5b505af1158015610d4e573d6000803e3d6000fd5b506001979650505050505050565b610d64611b32565b60008111610db45760405162461bcd60e51b815260206004820152601f60248201527f416d6f756e742073686f756c642062652067726561746572207468616e2030006044820152606401610935565b6001600160a01b038216600090815260208190526040902054811115610e1c5760405162461bcd60e51b815260206004820152601a60248201527f496e73756666696369656e7420434152424f4e20746f6b656e730000000000006044820152606401610935565b80600c5410610ea057600754604051633790cf5760e01b8152600481018390526001600160a01b0390911690633790cf5790602401600060405180830381600087803b158015610e6b57600080fd5b505af1158015610e7f573d6000803e3d6000fd5b5050505080600c6000828254610e95919061268a565b90915550610f7f9050565b6000600c5482610eb0919061268a565b60065460075460405163f3fef3a360e01b81526001600160a01b03918216600482015260248101849052929350169063f3fef3a390604401600060405180830381600087803b158015610f0257600080fd5b505af1158015610f16573d6000803e3d6000fd5b5050600754604051633790cf5760e01b8152600481018690526001600160a01b039091169250633790cf579150602401600060405180830381600087803b158015610f6057600080fd5b505af1158015610f74573d6000803e3d6000fd5b50506000600c555050505b80600d6000828254610f91919061268a565b90915550610fa0905081610941565b600a546040516340d097c360e01b81526001600160a01b03848116600483015260009216906340d097c3906024016020604051808303816000875af1158015610fed573d6000803e3d6000fd5b505050506040513d601f19601f82011682018060405250810190611011919061264f565b6008549091506001600160a01b031663ba3d69d773aa7880db88d8e051428b5204817e58d8327340de8561105960125b61104f9060ff16600a612547565b6108279088612553565b604051602001611069919061269d565b6040516020818303038152906040526040518463ffffffff1660e01b81526004016110969392919061261a565b600060405180830381600087803b1580156110b057600080fd5b505af11580156110c4573d6000803e3d6000fd5b505060408051858152602081018590526001600160a01b03871693507fd01c6570076b5796ea5b39d13cb939955b5d2ec43f5ba7ee52e6cd5613823aad9250015b60405180910390a2505050565b61111a611b32565b61117787878080601f016020809104026020016040519081016040528093929190818152602001838380828437600092019190915250506040805180820190915260068152651d1c985d995b60d21b60208201529150611be79050565b156113cb576040805160c081019091526000908087878481811061119d5761119d61275e565b90506020028101906111af9190612774565b8080601f016020809104026020016040519081016040528093929190818152602001838380828437600092019190915250505090825250602001878760018181106111fc576111fc61275e565b905060200281019061120e9190612774565b8080601f01602080910402602001604051908101604052809392919081815260200183838082843760009201829052509385525050602090920191508690869081811061125d5761125d61275e565b60209081029290920135835250018585600181811061127e5761127e61275e565b60209081029290920135835250018585600281811061129f5761129f61275e565b905060200201358152602001836001600160a01b0316815250905080600e60008b815260200190815260200160002060008201518160000190816112e3919061281f565b50602082015160018201906112f8908261281f565b5060408201518160020155606082015181600301556080820151816004015560a08201518160050160006101000a8154816001600160a01b0302191690836001600160a01b031602179055509050506113598160a00151826080015161175c565b61136b8160a001518260800151610d5c565b887f7c81b460a6b12a2e4a87588702b99415c687cce28884559cc2d0fd1947d16817826000015183602001518460400151856060015186608001518760a001516040516113bd96959493929190612196565b60405180910390a250611752565b61142987878080601f0160208091040260200160405190810160405280939291908181526020018383808284376000920191909152505060408051808201909152600781526667726f6365727960c81b60208201529150611be79050565b1561171b57604080516101008101909152600090808787848181106114505761145061275e565b90506020028101906114629190612774565b8080601f016020809104026020016040519081016040528093929190818152602001838380828437600092019190915250505090825250602001878760018181106114af576114af61275e565b90506020028101906114c19190612774565b8080601f0160208091040260200160405190810160405280939291908181526020018383808284376000920191909152505050908252506020018787600281811061150e5761150e61275e565b90506020028101906115209190612774565b8080601f01602080910402602001604051908101604052809392919081815260200183838082843760009201829052509385525050602090920191508690869081811061156f5761156f61275e565b6020908102929092013583525001858560018181106115905761159061275e565b6020908102929092013583525001858560028181106115b1576115b161275e565b6020908102929092013583525001858560038181106115d2576115d261275e565b905060200201358152602001836001600160a01b0316815250905080600f60008b81526020019081526020016000206000820151816000019081611616919061281f565b506020820151600182019061162b908261281f565b5060408201516002820190611640908261281f565b50606082015181600301556080820151816004015560a0820151816005015560c0820151816006015560e08201518160070160006101000a8154816001600160a01b0302191690836001600160a01b031602179055509050506116ab8160e001518260c0015161175c565b6116bd8160e001518260c00151610d5c565b887fbd10a9db6369936f36a7ea3c03e87509cf540e7505da28668ee8d80ce52ea30d826000015183602001518460400151856060015186608001518760a001518860c001518960e001516040516113bd989796959493929190612241565b60405162461bcd60e51b815260206004820152600c60248201526b496e76616c696420666c616760a01b6044820152606401610935565b5050505050505050565b611764611b32565b600081116117b45760405162461bcd60e51b815260206004820152601f60248201527f416d6f756e742073686f756c642062652067726561746572207468616e2030006044820152606401610935565b600081600d546117c491906128df565b905080600c541015611863576000600c54826117e0919061268a565b60065460075460405163f3fef3a360e01b81526001600160a01b03918216600482015260248101849052929350169063f3fef3a390604401600060405180830381600087803b15801561183257600080fd5b505af1158015611846573d6000803e3d6000fd5b5050505080600c600082825461185c91906128df565b9091555050505b61186d8383611c40565b81600d600082825461187f91906128df565b90915550506008546001600160a01b031663ba3d69d773aa7880db88d8e051428b5204817e58d8327340de856118b56012611041565b6040516020016118c591906128f2565b6040516020818303038152906040526040518463ffffffff1660e01b81526004016118f29392919061261a565b600060405180830381600087803b15801561190c57600080fd5b505af1158015611920573d6000803e3d6000fd5b50505050826001600160a01b03167fa46287cd6870c6d05612bb95b96833337e1e8a0ccea8be539c860dee7ac5f6e18360405161110591815260200190565b611967611b32565b6001600160a01b03811661199157604051631e4fbdf760e01b815260006004820152602401610935565b61093e81611b95565b6119a78383836001611c76565b505050565b6001600160a01b038381166000908152600160209081526040808320938616835292905220546000198114611a245781811015611a1557604051637dc7a0d960e11b81526001600160a01b03841660048201526024810182905260448101839052606401610935565b611a2484848484036000611c76565b50505050565b6001600160a01b038316611a5457604051634b637e8f60e11b815260006004820152602401610935565b6001600160a01b038216611a7e5760405163ec442f0560e01b815260006004820152602401610935565b6119a7838383611d4b565b60606106646001600160a01b0383166014611e75565b60606000611aac83611ff5565b600101905060008167ffffffffffffffff811115611acc57611acc6127bb565b6040519080825280601f01601f191660200182016040528015611af6576020820181803683370190505b5090508181016020015b600019016f181899199a1a9b1b9c1cb0b131b232b360811b600a86061a8153600a8504945084611b0057509392505050565b6005546001600160a01b0316331461095d5760405163118cdaa760e01b8152336004820152602401610935565b6001600160a01b038216611b8957604051634b637e8f60e11b815260006004820152602401610935565b61097482600083611d4b565b600580546001600160a01b038381166001600160a01b0319831681179093556040519116919082907f8be0079c531659141344cd1fd0a4f28419497f9722a3daafe3b4186f6b6457e090600090a35050565b600081604051602001611bfa919061297a565b6040516020818303038152906040528051906020012083604051602001611c21919061297a565b6040516020818303038152906040528051906020012014905092915050565b6001600160a01b038216611c6a5760405163ec442f0560e01b815260006004820152602401610935565b61097460008383611d4b565b6001600160a01b038416611ca05760405163e602df0560e01b815260006004820152602401610935565b6001600160a01b038316611cca57604051634a1406b160e11b815260006004820152602401610935565b6001600160a01b0380851660009081526001602090815260408083209387168352929052208290558015611a2457826001600160a01b0316846001600160a01b03167f8c5be1e5ebec7d5bd14f71427d1e84f3dd0314c0f7b2291e5b200ac8c7c3b92584604051611d3d91815260200190565b60405180910390a350505050565b6001600160a01b038316611d76578060026000828254611d6b91906128df565b90915550611de89050565b6001600160a01b03831660009081526020819052604090205481811015611dc95760405163391434e360e21b81526001600160a01b03851660048201526024810182905260448101839052606401610935565b6001600160a01b03841660009081526020819052604090209082900390555b6001600160a01b038216611e0457600280548290039055611e23565b6001600160a01b03821660009081526020819052604090208054820190555b816001600160a01b0316836001600160a01b03167fddf252ad1be2c89b69c2b068fc378daa952ba7f163c4a11628f55a4df523b3ef83604051611e6891815260200190565b60405180910390a3505050565b6060826000611e85846002612996565b611e909060026128df565b67ffffffffffffffff811115611ea857611ea86127bb565b6040519080825280601f01601f191660200182016040528015611ed2576020820181803683370190505b509050600360fc1b81600081518110611eed57611eed61275e565b60200101906001600160f81b031916908160001a905350600f60fb1b81600181518110611f1c57611f1c61275e565b60200101906001600160f81b031916908160001a9053506000611f40856002612996565b611f4b9060016128df565b90505b6001811115611fc3576f181899199a1a9b1b9c1cb0b131b232b360811b83600f1660108110611f7f57611f7f61275e565b1a60f81b828281518110611f9557611f9561275e565b60200101906001600160f81b031916908160001a90535060049290921c91611fbc816129ad565b9050611f4e565b508115611fed5760405163e22e27eb60e01b81526004810186905260248101859052604401610935565b949350505050565b60008072184f03e93ff9f4daa797ed6e38ed64bf6a1f0160401b83106120345772184f03e93ff9f4daa797ed6e38ed64bf6a1f0160401b830492506040015b6d04ee2d6d415b85acef81000000008310612060576d04ee2d6d415b85acef8100000000830492506020015b662386f26fc10000831061207e57662386f26fc10000830492506010015b6305f5e1008310612096576305f5e100830492506008015b61271083106120aa57612710830492506004015b606483106120bc576064830492506002015b600a83106106645760010192915050565b60005b838110156120e85781810151838201526020016120d0565b50506000910152565b600081518084526121098160208601602086016120cd565b601f01601f19169290920160200192915050565b60208152600061213060208301846120f1565b9392505050565b80356001600160a01b038116811461214e57600080fd5b919050565b6000806040838503121561216657600080fd5b61216f83612137565b946020939093013593505050565b60006020828403121561218f57600080fd5b5035919050565b60c0815260006121a960c08301896120f1565b82810360208401526121bb81896120f1565b60408401979097525050606081019390935260808301919091526001600160a01b031660a09091015292915050565b6000806000606084860312156121ff57600080fd5b61220884612137565b925061221660208501612137565b9150604084013590509250925092565b60006020828403121561223857600080fd5b61213082612137565b60006101008083526122558184018c6120f1565b90508281036020840152612269818b6120f1565b9050828103604084015261227d818a6120f1565b60608401989098525050608081019490945260a084019290925260c08301526001600160a01b031660e0909101529392505050565b600080604083850312156122c557600080fd5b6122ce83612137565b91506122dc60208401612137565b90509250929050565b60008083601f8401126122f757600080fd5b50813567ffffffffffffffff81111561230f57600080fd5b6020830191508360208260051b850101111561232a57600080fd5b9250929050565b60008060008060008060008060a0898b03121561234d57600080fd5b88359750602089013567ffffffffffffffff8082111561236c57600080fd5b818b0191508b601f83011261238057600080fd5b81358181111561238f57600080fd5b8c60208285010111156123a157600080fd5b6020830199508098505060408b01359150808211156123bf57600080fd5b6123cb8c838d016122e5565b909750955060608b01359150808211156123e457600080fd5b506123f18b828c016122e5565b9094509250612404905060808a01612137565b90509295985092959890939650565b600181811c9082168061242757607f821691505b60208210810361244757634e487b7160e01b600052602260045260246000fd5b50919050565b634e487b7160e01b600052601160045260246000fd5b600181815b8085111561249e5781600019048211156124845761248461244d565b8085161561249157918102915b93841c9390800290612468565b509250929050565b6000826124b557506001610664565b816124c257506000610664565b81600181146124d857600281146124e2576124fe565b6001915050610664565b60ff8411156124f3576124f361244d565b50506001821b610664565b5060208310610133831016604e8410600b8410161715612521575081810a610664565b61252b8383612463565b806000190482111561253f5761253f61244d565b029392505050565b600061213083836124a6565b60008261257057634e487b7160e01b600052601260045260246000fd5b500490565b600360fc1b81526000602b60f81b806001840152603360f81b600284015280600384015268436f6e67726174732160b81b600484015280600d8401525083516125c581600e8501602088016120cd565b6c0103a3930b739b332b93932b21609d1b600e9184019182015283516125f281601b8401602088016120cd565b6e20434152424f4e20746f20796f752160881b601b9290910191820152602a01949350505050565b6001600160a01b03848116825283166020820152606060408201819052600090612646908301846120f1565b95945050505050565b60006020828403121561266157600080fd5b5051919050565b60006020828403121561267a57600080fd5b8151801515811461213057600080fd5b818103818111156106645761066461244d565b600360fc1b81526000602b60f81b806001840152603360f81b600284015280600384015268436f6e67726174732160b81b600484015280600d840152507f596f75206a75737420726563656976656420616e206f66667365742063657274600e83015268034b334b1b0ba3290960bd1b602e8301526f02cb7bab91037b33339b2ba103bb0b9960851b6037830152825161273e8160478501602087016120cd565b6820434f3220546f6e7360b81b6047939091019283015250605001919050565b634e487b7160e01b600052603260045260246000fd5b6000808335601e1984360301811261278b57600080fd5b83018035915067ffffffffffffffff8211156127a657600080fd5b60200191503681900382131561232a57600080fd5b634e487b7160e01b600052604160045260246000fd5b601f8211156119a757600081815260208120601f850160051c810160208610156127f85750805b601f850160051c820191505b8181101561281757828155600101612804565b505050505050565b815167ffffffffffffffff811115612839576128396127bb565b61284d816128478454612413565b846127d1565b602080601f831160018114612882576000841561286a5750858301515b600019600386901b1c1916600185901b178555612817565b600085815260208120601f198616915b828110156128b157888601518255948401946001909101908401612892565b50858210156128cf5787850151600019600388901b60f8161c191681555b5050505050600190811b01905550565b808201808211156106645761066461244d565b600360fc1b81526000602b60f81b806001840152603360f81b600284015280600384015268436f6e67726174732160b81b600484015280600d840152506f02cb7ba90353ab9ba103137bab3b43a160851b600e830152825161295b81601e8501602087016120cd565b6720434152424f4e2160c01b601e939091019283015250602601919050565b6000825161298c8184602087016120cd565b9190910192915050565b80820281158282048414176106645761066461244d565b6000816129bc576129bc61244d565b50600019019056fea264697066735822122085b42614247e66e2c889b8cdf56458ba4b63333ab338b101569dd64a12d502f864736f6c6343000814003360806040523480156200001157600080fd5b5060405162001323380380620013238339810160408190526200003491620001c1565b3383836000620000458382620002e1565b506001620000548282620002e1565b5050506001600160a01b0381166200008657604051631e4fbdf760e01b81526000600482015260240160405180910390fd5b6200009181620000aa565b506008620000a08282620002e1565b50505050620003ad565b600680546001600160a01b038381166001600160a01b0319831681179093556040519116919082907f8be0079c531659141344cd1fd0a4f28419497f9722a3daafe3b4186f6b6457e090600090a35050565b634e487b7160e01b600052604160045260246000fd5b600082601f8301126200012457600080fd5b81516001600160401b0380821115620001415762000141620000fc565b604051601f8301601f19908116603f011681019082821181831017156200016c576200016c620000fc565b816040528381526020925086838588010111156200018957600080fd5b600091505b83821015620001ad57858201830151818301840152908201906200018e565b600093810190920192909252949350505050565b600080600060608486031215620001d757600080fd5b83516001600160401b0380821115620001ef57600080fd5b620001fd8783880162000112565b945060208601519150808211156200021457600080fd5b620002228783880162000112565b935060408601519150808211156200023957600080fd5b50620002488682870162000112565b9150509250925092565b600181811c908216806200026757607f821691505b6020821081036200028857634e487b7160e01b600052602260045260246000fd5b50919050565b601f821115620002dc57600081815260208120601f850160051c81016020861015620002b75750805b601f850160051c820191505b81811015620002d857828155600101620002c3565b5050505b505050565b81516001600160401b03811115620002fd57620002fd620000fc565b62000315816200030e845462000252565b846200028e565b602080601f8311600181146200034d5760008415620003345750858301515b600019600386901b1c1916600185901b178555620002d8565b600085815260208120601f198616915b828110156200037e578886015182559484019460019091019084016200035d565b50858210156200039d5787850151600019600388901b60f8161c191681555b5050505050600190811b01905550565b610f6680620003bd6000396000f3fe608060405234801561001057600080fd5b50600436106101165760003560e01c8063715018a6116100a2578063a22cb46511610071578063a22cb4651461022f578063b88d4fde14610242578063c87b56dd14610255578063e985e9c514610268578063f2fde38b1461027b57600080fd5b8063715018a6146102055780638da5cb5b1461020d57806395d89b411461021e57806398bdf6f51461022657600080fd5b806323b872dd116100e957806323b872dd1461019857806340d097c3146101ab57806342842e0e146101cc5780636352211e146101df57806370a08231146101f257600080fd5b806301ffc9a71461011b57806306fdde0314610143578063081812fc14610158578063095ea7b314610183575b600080fd5b61012e610129366004610be6565b61028e565b60405190151581526020015b60405180910390f35b61014b6102e0565b60405161013a9190610c50565b61016b610166366004610c63565b610372565b6040516001600160a01b03909116815260200161013a565b610196610191366004610c93565b61039b565b005b6101966101a6366004610cbd565b6103e0565b6101be6101b9366004610cf9565b610428565b60405190815260200161013a565b6101966101da366004610cbd565b61045b565b61016b6101ed366004610c63565b61047b565b6101be610200366004610cf9565b610486565b6101966104ce565b6006546001600160a01b031661016b565b61014b6104e2565b6101be60075481565b61019661023d366004610d14565b6104f1565b610196610250366004610d66565b610539565b61014b610263366004610c63565b610581565b61012e610276366004610e42565b61061f565b610196610289366004610cf9565b61064d565b60006001600160e01b031982166380ac58cd60e01b14806102bf57506001600160e01b03198216635b5e139f60e01b145b806102da57506301ffc9a760e01b6001600160e01b03198316145b92915050565b6060600080546102ef90610e75565b80601f016020809104026020016040519081016040528092919081815260200182805461031b90610e75565b80156103685780601f1061033d57610100808354040283529160200191610368565b820191906000526020600020905b81548152906001019060200180831161034b57829003601f168201915b5050505050905090565b600061037d8261068b565b506000828152600460205260409020546001600160a01b03166102da565b60405162461bcd60e51b8152602060048201526015602482015274105c1c1c9bdd99481a5cdb89dd08185b1b1bddd959605a1b60448201526064015b60405180910390fd5b60405162461bcd60e51b815260206004820152601a60248201527f7472616e7366657246726f6d2069736e277420616c6c6f77656400000000000060448201526064016103d7565b60006104326106c4565b60078054908190600061044483610eaf565b919050555061045383826106f1565b90505b919050565b61047683838360405180602001604052806000815250610539565b505050565b60006102da8261068b565b60006001600160a01b0382166104b2576040516322718ad960e21b8152600060048201526024016103d7565b506001600160a01b031660009081526003602052604090205490565b6104d66106c4565b6104e0600061070f565b565b6060600180546102ef90610e75565b60405162461bcd60e51b815260206004820152601f60248201527f736574417070726f76616c466f72416c6c2069736e277420616c6c6f7765640060448201526064016103d7565b60405162461bcd60e51b815260206004820152601e60248201527f736166655472616e7366657246726f6d2069736e277420616c6c6f776564000060448201526064016103d7565b606061058c8261068b565b506008805461059a90610e75565b80601f01602080910402602001604051908101604052809291908181526020018280546105c690610e75565b80156106135780601f106105e857610100808354040283529160200191610613565b820191906000526020600020905b8154815290600101906020018083116105f657829003601f168201915b50505050509050919050565b6001600160a01b03918216600090815260056020908152604080832093909416825291909152205460ff1690565b6106556106c4565b6001600160a01b03811661067f57604051631e4fbdf760e01b8152600060048201526024016103d7565b6106888161070f565b50565b6000818152600260205260408120546001600160a01b03168061045357604051637e27328960e01b8152600481018490526024016103d7565b6006546001600160a01b031633146104e05760405163118cdaa760e01b81523360048201526024016103d7565b61070b828260405180602001604052806000815250610761565b5050565b600680546001600160a01b038381166001600160a01b0319831681179093556040519116919082907f8be0079c531659141344cd1fd0a4f28419497f9722a3daafe3b4186f6b6457e090600090a35050565b61076b8383610778565b61047660008484846107dd565b6001600160a01b0382166107a257604051633250574960e11b8152600060048201526024016103d7565b60006107b083836000610907565b90506001600160a01b03811615610476576040516339e3563760e11b8152600060048201526024016103d7565b6001600160a01b0383163b1561090157604051630a85bd0160e11b81526001600160a01b0384169063150b7a029061081f903390889087908790600401610ed6565b6020604051808303816000875af192505050801561085a575060408051601f3d908101601f1916820190925261085791810190610f13565b60015b6108c3573d808015610888576040519150601f19603f3d011682016040523d82523d6000602084013e61088d565b606091505b5080516000036108bb57604051633250574960e11b81526001600160a01b03851660048201526024016103d7565b805181602001fd5b6001600160e01b03198116630a85bd0160e11b146108ff57604051633250574960e11b81526001600160a01b03851660048201526024016103d7565b505b50505050565b6000828152600260205260408120546001600160a01b039081169083161561093457610934818486610a00565b6001600160a01b0381161561097257610951600085600080610a64565b6001600160a01b038116600090815260036020526040902080546000190190555b6001600160a01b038516156109a1576001600160a01b0385166000908152600360205260409020805460010190555b60008481526002602052604080822080546001600160a01b0319166001600160a01b0389811691821790925591518793918516917fddf252ad1be2c89b69c2b068fc378daa952ba7f163c4a11628f55a4df523b3ef91a4949350505050565b610a0b838383610b6a565b610476576001600160a01b038316610a3957604051637e27328960e01b8152600481018290526024016103d7565b60405163177e802f60e01b81526001600160a01b0383166004820152602481018290526044016103d7565b8080610a7857506001600160a01b03821615155b15610b3a576000610a888461068b565b90506001600160a01b03831615801590610ab45750826001600160a01b0316816001600160a01b031614155b8015610ac75750610ac5818461061f565b155b15610af05760405163a9fbf51f60e01b81526001600160a01b03841660048201526024016103d7565b8115610b385783856001600160a01b0316826001600160a01b03167f8c5be1e5ebec7d5bd14f71427d1e84f3dd0314c0f7b2291e5b200ac8c7c3b92560405160405180910390a45b505b5050600090815260046020526040902080546001600160a01b0319166001600160a01b0392909216919091179055565b60006001600160a01b03831615801590610bc85750826001600160a01b0316846001600160a01b03161480610ba45750610ba4848461061f565b80610bc857506000828152600460205260409020546001600160a01b038481169116145b949350505050565b6001600160e01b03198116811461068857600080fd5b600060208284031215610bf857600080fd5b8135610c0381610bd0565b9392505050565b6000815180845260005b81811015610c3057602081850181015186830182015201610c14565b506000602082860101526020601f19601f83011685010191505092915050565b602081526000610c036020830184610c0a565b600060208284031215610c7557600080fd5b5035919050565b80356001600160a01b038116811461045657600080fd5b60008060408385031215610ca657600080fd5b610caf83610c7c565b946020939093013593505050565b600080600060608486031215610cd257600080fd5b610cdb84610c7c565b9250610ce960208501610c7c565b9150604084013590509250925092565b600060208284031215610d0b57600080fd5b610c0382610c7c565b60008060408385031215610d2757600080fd5b610d3083610c7c565b915060208301358015158114610d4557600080fd5b809150509250929050565b634e487b7160e01b600052604160045260246000fd5b60008060008060808587031215610d7c57600080fd5b610d8585610c7c565b9350610d9360208601610c7c565b925060408501359150606085013567ffffffffffffffff80821115610db757600080fd5b818701915087601f830112610dcb57600080fd5b813581811115610ddd57610ddd610d50565b604051601f8201601f19908116603f01168101908382118183101715610e0557610e05610d50565b816040528281528a6020848701011115610e1e57600080fd5b82602086016020830137600060208483010152809550505050505092959194509250565b60008060408385031215610e5557600080fd5b610e5e83610c7c565b9150610e6c60208401610c7c565b90509250929050565b600181811c90821680610e8957607f821691505b602082108103610ea957634e487b7160e01b600052602260045260246000fd5b50919050565b600060018201610ecf57634e487b7160e01b600052601160045260246000fd5b5060010190565b6001600160a01b0385811682528416602082015260408101839052608060608201819052600090610f0990830184610c0a565b9695505050505050565b600060208284031215610f2557600080fd5b8151610c0381610bd056fea26469706673582212202dfe89de97fe86a5f1be87c0a5c9cae61bd864023442072d7ec20e1c3ec1e1c364736f6c6343000814003360a06040523480156200001157600080fd5b506040516200229a3803806200229a833981016040819052620000349162000180565b6001600160a01b0381166080523380600081620000985760405162461bcd60e51b815260206004820152601860248201527f43616e6e6f7420736574206f776e657220746f207a65726f000000000000000060448201526064015b60405180910390fd5b600080546001600160a01b0319166001600160a01b0384811691909117909155811615620000cb57620000cb81620000d5565b50505050620001b2565b336001600160a01b038216036200012f5760405162461bcd60e51b815260206004820152601760248201527f43616e6e6f74207472616e7366657220746f2073656c6600000000000000000060448201526064016200008f565b600180546001600160a01b0319166001600160a01b0383811691821790925560008054604051929316917fed8889f560326eb138920d842192f0eb3dd22b4f139c87a2c57538e05bae12789190a350565b6000602082840312156200019357600080fd5b81516001600160a01b0381168114620001ab57600080fd5b9392505050565b6080516120c5620001d5600039600081816101dc0152610ab601526120c56000f3fe608060405234801561001057600080fd5b50600436106100cf5760003560e01c80638da5cb5b1161008c578063bfc2e4fc11610066578063bfc2e4fc14610185578063f2fde38b14610198578063f3fa880e146101ab578063f9befbfd146101be57600080fd5b80638da5cb5b1461014a5780639681096f1461015b578063b1e217491461017c57600080fd5b80630ca76175146100d45780633944ea3a146100e95780634b0795a8146101075780634f5aae921461010f57806371e4dda61461011757806379ba509714610142575b600080fd5b6100e76100e2366004611779565b6101d1565b005b6100f1610255565b6040516100fe9190611835565b60405180910390f35b6100f16102e3565b6100f16102f0565b60055461012a906001600160a01b031681565b6040516001600160a01b0390911681526020016100fe565b6100e76102fd565b6000546001600160a01b031661012a565b61016e610169366004611878565b6103ac565b6040519081526020016100fe565b61016e60025481565b61016e610193366004611a36565b6103d0565b6100e76101a6366004611b6d565b6104d5565b61016e6101b9366004611b88565b6104e9565b6100f16101cc366004611b88565b61050a565b336001600160a01b037f0000000000000000000000000000000000000000000000000000000000000000161461021a5760405163c6829f8360e01b815260040160405180910390fd5b610225838383610535565b60405183907f85e1543bf2f84fe80c6badbce3648c8539ad1df4d2b3d822938ca0538be727e690600090a2505050565b6003805461026290611ba1565b80601f016020809104026020016040519081016040528092919081815260200182805461028e90611ba1565b80156102db5780601f106102b0576101008083540402835291602001916102db565b820191906000526020600020905b8154815290600101906020018083116102be57829003601f168201915b505050505081565b6004805461026290611ba1565b6006805461026290611ba1565b6001546001600160a01b031633146103555760405162461bcd60e51b815260206004820152601660248201527526bab9ba10313290383937b837b9b2b21037bbb732b960511b60448201526064015b60405180910390fd5b60008054336001600160a01b0319808316821784556001805490911690556040516001600160a01b0390921692909183917f8be0079c531659141344cd1fd0a4f28419497f9722a3daafe3b4186f6b6457e091a350565b60006103b6610a5c565b6103c285858585610ab1565b600281905595945050505050565b60006104136040805160e0810190915280600081526020016000815260200160008152602001606081526020016060815260200160608152602001606081525090565b61041d818c610b83565b8951156104335761042e818b610b94565b61044d565b6001600160401b0388161561044d5761044d818a8a610bc5565b86511561045e5761045e8188610c5b565b85511561046f5761046f8187610c85565b600580546001600160a01b0319166001600160a01b038f1617905560066104968d82611c29565b5086516104aa9060079060208a0190611586565b506104bf6104b782610caf565b868686610ab1565b60028190559d9c50505050505050505050505050565b6104dd610a5c565b6104e681610f87565b50565b600881815481106104f957600080fd5b600091825260209091200154905081565b6007818154811061051a57600080fd5b90600052602060002001600091509050805461026290611ba1565b826002541461055a5760405163d068bf5b60e01b81526004810184905260240161034c565b6000825111801561061857506106186006805461057690611ba1565b80601f01602080910402602001604051908101604052809291908181526020018280546105a290611ba1565b80156105ef5780601f106105c4576101008083540402835291602001916105ef565b820191906000526020600020905b8154815290600101906020018083116105d257829003601f168201915b5050505050604051806040016040528060068152602001651d1c985d995b60d21b815250611030565b15610795576000828060200190518101906106339190611ce8565b9050670de0b6b3a7640000600061064a8280611d17565b6106549084611d44565b90506106608280611d17565b61066a9084611d58565b925060006106788385611d44565b90506106848385611d58565b6040805160038082526080820190925291955085919060208201606080368337505081516106b99260089250602001906115dc565b508260086000815481106106cf576106cf611d6c565b90600052602060002001819055508160086001815481106106f2576106f2611d6c565b906000526020600020018190555080600860028154811061071557610715611d6c565b600091825260209091200155600361072d8882611c29565b50600461073a8782611c29565b5060055460405189917fb46213618301da6493e4eb9418f3bbb39dd63885882b661a3113d2f042413b3c91610783916006916007916008916001600160a01b0390911690611dff565b60405180910390a25050505050610a1b565b600082511180156108545750610854600680546107b190611ba1565b80601f01602080910402602001604051908101604052809291908181526020018280546107dd90611ba1565b801561082a5780601f106107ff5761010080835404028352916020019161082a565b820191906000526020600020905b81548152906001019060200180831161080d57829003601f168201915b50505050506040518060400160405280600781526020016667726f6365727960c81b815250611030565b15610a1b5760008280602001905181019061086f9190611ce8565b9050670de0b6b3a76400006000816108878180611d17565b6108919190611d17565b61089b9084611d44565b9050816108a88180611d17565b6108b29190611d17565b6108bc9084611d58565b925060006108ca8380611d17565b6108d49085611d44565b90506108e08380611d17565b6108ea9085611d58565b935060006108f88486611d44565b90506109048486611d58565b60408051600480825260a0820190925291965086919060208201608080368337505081516109399260089250602001906115dc565b5083600860008154811061094f5761094f611d6c565b906000526020600020018190555082600860018154811061097257610972611d6c565b906000526020600020018190555081600860028154811061099557610995611d6c565b90600052602060002001819055508060086003815481106109b8576109b8611d6c565b6000918252602090912001556005546040518a917fb46213618301da6493e4eb9418f3bbb39dd63885882b661a3113d2f042413b3c91610a0c916006916007916008916001600160a01b0390911690611dff565b60405180910390a25050505050505b827f7873807bf6ddc50401cd3d29bbe0decee23fd4d68d273f4b5eb83cded4d2f17260036004604051610a4f929190611ec0565b60405180910390a2505050565b6000546001600160a01b03163314610aaf5760405162461bcd60e51b815260206004820152601660248201527527b7363c9031b0b63630b1363290313c9037bbb732b960511b604482015260640161034c565b565b6000807f00000000000000000000000000000000000000000000000000000000000000006001600160a01b031663461d27628688600188886040518663ffffffff1660e01b8152600401610b09959493929190611ee5565b6020604051808303816000875af1158015610b28573d6000803e3d6000fd5b505050506040513d601f19601f82011682018060405250810190610b4c9190611ce8565b60405190915081907f1131472297a800fee664d1d89cfa8f7676ff07189ecc53f80bbb5f4969099db890600090a295945050505050565b610b90826000808461108a565b5050565b8051600003610bb65760405163e889636f60e01b815260040160405180910390fd5b60016020830152608090910152565b6000610bd2610100611108565b9050610c05604051806040016040528060068152602001651cdb1bdd125160d21b8152508261112990919063ffffffff16565b610c128160ff8516611147565b6040805180820190915260078152663b32b939b4b7b760c91b6020820152610c3b908290611129565b610c458183611147565b6002602085015251516080909301929092525050565b8051600003610c7d5760405163fe936cb760e01b815260040160405180910390fd5b60a090910152565b8051600003610ca75760405163fe936cb760e01b815260040160405180910390fd5b60c090910152565b60606000610cbe610100611108565b9050610cf76040518060400160405280600c81526020016b31b7b232a637b1b0ba34b7b760a11b8152508261112990919063ffffffff16565b8251610d15906002811115610d0e57610d0e611f2e565b8290611153565b6040805180820190915260088152676c616e677561676560c01b6020820152610d3f908290611129565b6040830151610d56908015610d0e57610d0e611f2e565b604080518082019091526006815265736f7572636560d01b6020820152610d7e908290611129565b6060830151610d8e908290611129565b60a08301515115610e22576040805180820190915260048152636172677360e01b6020820152610dbf908290611129565b610dc88161118c565b60005b8360a0015151811015610e1857610e088460a001518281518110610df157610df1611d6c565b60200260200101518361112990919063ffffffff16565b610e1181611f44565b9050610dcb565b50610e22816111b0565b60808301515115610ee657600083602001516002811115610e4557610e45611f2e565b03610e635760405163a80d31f760e01b815260040160405180910390fd5b60408051808201909152600f81526e39b2b1b932ba39a637b1b0ba34b7b760891b6020820152610e94908290611129565b610ead83602001516002811115610d0e57610d0e611f2e565b6040805180820190915260078152667365637265747360c81b6020820152610ed6908290611129565b6080830151610ee69082906111ce565b60c08301515115610f7f5760408051808201909152600981526862797465734172677360b81b6020820152610f1c908290611129565b610f258161118c565b60005b8360c0015151811015610f7557610f658460c001518281518110610f4e57610f4e611d6c565b6020026020010151836111ce90919063ffffffff16565b610f6e81611f44565b9050610f28565b50610f7f816111b0565b515192915050565b336001600160a01b03821603610fdf5760405162461bcd60e51b815260206004820152601760248201527f43616e6e6f74207472616e7366657220746f2073656c66000000000000000000604482015260640161034c565b600180546001600160a01b0319166001600160a01b0383811691821790925560008054604051929316917fed8889f560326eb138920d842192f0eb3dd22b4f139c87a2c57538e05bae12789190a350565b6000816040516020016110439190611f5d565b604051602081830303815290604052805190602001208360405160200161106a9190611f5d565b604051602081830303815290604052805190602001201490505b92915050565b80516000036110ac576040516322ce3edd60e01b815260040160405180910390fd5b838360028111156110bf576110bf611f2e565b908160028111156110d2576110d2611f2e565b905250604084018280156110e8576110e8611f2e565b908180156110f8576110f8611f2e565b9052506060909301929092525050565b611110611623565b805161111c90836111db565b5060006020820152919050565b6111368260038351611252565b81516111429082611371565b505050565b610b9082600083611252565b81516111609060c2611399565b50610b90828260405160200161117891815260200190565b6040516020818303038152906040526111ce565b611197816004611402565b6001816020018181516111aa9190611f79565b90525050565b6111bb816007611402565b6001816020018181516111aa9190611f8c565b6111368260028351611252565b6040805180820190915260608152600060208201526111fb602083611d58565b156112235761120b602083611d58565b611216906020611f8c565b6112209083611f79565b91505b60208084018390526040518085526000815290818401018181101561124757600080fd5b604052509192915050565b6017816001600160401b03161161127e5782516112789060e0600585901b168317611399565b50505050565b60ff816001600160401b0316116112be5782516112a6906018611fe0600586901b1617611399565b508251611278906001600160401b0383166001611419565b61ffff816001600160401b0316116112ff5782516112e7906019611fe0600586901b1617611399565b508251611278906001600160401b0383166002611419565b63ffffffff816001600160401b03161161134257825161132a90601a611fe0600586901b1617611399565b508251611278906001600160401b0383166004611419565b825161135990601b611fe0600586901b1617611399565b508251611278906001600160401b0383166008611419565b6040805180820190915260608152600060208201526113928383845161149e565b9392505050565b60408051808201909152606081526000602082015282515160006113be826001611f79565b9050846020015182106113df576113df856113da836002611d17565b61156f565b84516020838201018581535080518211156113f8578181525b5093949350505050565b815161114290601f611fe0600585901b1617611399565b604080518082019091526060815260006020820152835151600061143d8285611f79565b9050856020015181111561145a5761145a866113da836002611d17565b6000600161146a86610100612083565b6114749190611f8c565b90508651828101878319825116178152508051831115611492578281525b50959695505050505050565b60408051808201909152606081526000602082015282518211156114c157600080fd5b83515160006114d08483611f79565b905085602001518111156114ed576114ed866113da836002611d17565b855180518382016020019160009180851115611507578482525b505050602086015b602086106115475780518252611526602083611f79565b9150611533602082611f79565b9050611540602087611f8c565b955061150f565b51815160001960208890036101000a0190811690199190911617905250849150509392505050565b815161157b83836111db565b506112788382611371565b8280548282559060005260206000209081019282156115cc579160200282015b828111156115cc57825182906115bc9082611c29565b50916020019190600101906115a6565b506115d8929150611658565b5090565b828054828255906000526020600020908101928215611617579160200282015b828111156116175782518255916020019190600101906115fc565b506115d8929150611675565b604051806040016040528061164b604051806040016040528060608152602001600081525090565b8152602001600081525090565b808211156115d857600061166c828261168a565b50600101611658565b5b808211156115d85760008155600101611676565b50805461169690611ba1565b6000825580601f106116a6575050565b601f0160209004906000526020600020908101906104e69190611675565b634e487b7160e01b600052604160045260246000fd5b604051601f8201601f191681016001600160401b0381118282101715611702576117026116c4565b604052919050565b600082601f83011261171b57600080fd5b81356001600160401b03811115611734576117346116c4565b611747601f8201601f19166020016116da565b81815284602083860101111561175c57600080fd5b816020850160208301376000918101602001919091529392505050565b60008060006060848603121561178e57600080fd5b8335925060208401356001600160401b03808211156117ac57600080fd5b6117b88783880161170a565b935060408601359150808211156117ce57600080fd5b506117db8682870161170a565b9150509250925092565b60005b838110156118005781810151838201526020016117e8565b50506000910152565b600081518084526118218160208601602086016117e5565b601f01601f19169290920160200192915050565b6020815260006113926020830184611809565b80356001600160401b038116811461185f57600080fd5b919050565b803563ffffffff8116811461185f57600080fd5b6000806000806080858703121561188e57600080fd5b84356001600160401b038111156118a457600080fd5b6118b08782880161170a565b9450506118bf60208601611848565b92506118cd60408601611864565b9396929550929360600135925050565b80356001600160a01b038116811461185f57600080fd5b803560ff8116811461185f57600080fd5b60006001600160401b0382111561191e5761191e6116c4565b5060051b60200190565b600082601f83011261193957600080fd5b8135602061194e61194983611905565b6116da565b82815260059290921b8401810191818101908684111561196d57600080fd5b8286015b848110156119ac5780356001600160401b038111156119905760008081fd5b61199e8986838b010161170a565b845250918301918301611971565b509695505050505050565b600082601f8301126119c857600080fd5b813560206119d861194983611905565b82815260059290921b840181019181810190868411156119f757600080fd5b8286015b848110156119ac5780356001600160401b03811115611a1a5760008081fd5b611a288986838b010161170a565b8452509183019183016119fb565b60008060008060008060008060008060006101608c8e031215611a5857600080fd5b611a618c6118dd565b9a506001600160401b038060208e01351115611a7c57600080fd5b611a8c8e60208f01358f0161170a565b9a508060408e01351115611a9f57600080fd5b611aaf8e60408f01358f0161170a565b99508060608e01351115611ac257600080fd5b611ad28e60608f01358f0161170a565b9850611ae060808e016118f4565b9750611aee60a08e01611848565b96508060c08e01351115611b0157600080fd5b611b118e60c08f01358f01611928565b95508060e08e01351115611b2457600080fd5b50611b358d60e08e01358e016119b7565b9350611b446101008d01611848565b9250611b536101208d01611864565b91506101408c013590509295989b509295989b9093969950565b600060208284031215611b7f57600080fd5b611392826118dd565b600060208284031215611b9a57600080fd5b5035919050565b600181811c90821680611bb557607f821691505b602082108103611bd557634e487b7160e01b600052602260045260246000fd5b50919050565b601f82111561114257600081815260208120601f850160051c81016020861015611c025750805b601f850160051c820191505b81811015611c2157828155600101611c0e565b505050505050565b81516001600160401b03811115611c4257611c426116c4565b611c5681611c508454611ba1565b84611bdb565b602080601f831160018114611c8b5760008415611c735750858301515b600019600386901b1c1916600185901b178555611c21565b600085815260208120601f198616915b82811015611cba57888601518255948401946001909101908401611c9b565b5085821015611cd85787850151600019600388901b60f8161c191681555b5050505050600190811b01905550565b600060208284031215611cfa57600080fd5b5051919050565b634e487b7160e01b600052601160045260246000fd5b808202811582820484141761108457611084611d01565b634e487b7160e01b600052601260045260246000fd5b600082611d5357611d53611d2e565b500490565b600082611d6757611d67611d2e565b500690565b634e487b7160e01b600052603260045260246000fd5b60008154611d8f81611ba1565b808552602060018381168015611dac5760018114611dc657611df4565b60ff1985168884015283151560051b880183019550611df4565b866000528260002060005b85811015611dec5781548a8201860152908301908401611dd1565b890184019650505b505050505092915050565b608081526000611e126080830187611d82565b6020838203818501528187548084528284019150828160051b85010160008a8152848120815b84811015611e6557878403601f19018652611e538483611d82565b95870195935060019182019101611e38565b5050878203604089015289548083528a8252858220928601965093509091505b82811015611ea157815485529383019360019182019101611e85565b5050506001600160a01b03851660608501525090505b95945050505050565b604081526000611ed36040830185611d82565b8281036020840152611eb78185611d82565b6001600160401b038616815260a060208201526000611f0760a0830187611809565b61ffff9590951660408301525063ffffffff92909216606083015260809091015292915050565b634e487b7160e01b600052602160045260246000fd5b600060018201611f5657611f56611d01565b5060010190565b60008251611f6f8184602087016117e5565b9190910192915050565b8082018082111561108457611084611d01565b8181038181111561108457611084611d01565b600181815b80851115611fda578160001904821115611fc057611fc0611d01565b80851615611fcd57918102915b93841c9390800290611fa4565b509250929050565b600082611ff157506001611084565b81611ffe57506000611084565b8160018114612014576002811461201e5761203a565b6001915050611084565b60ff84111561202f5761202f611d01565b50506001821b611084565b5060208310610133831016604e8410600b841016171561205d575081810a611084565b6120678383611f9f565b806000190482111561207b5761207b611d01565b029392505050565b60006113928383611fe256fea2646970667358221220b4bf3a0098b6ff40f6edd9056e87641466d3f03c654179880332543b2d83856964736f6c63430008140033",
	"devdoc": {
		"errors": {
			"ERC20InsufficientAllowance(address,uint256,uint256)": [
				{
					"details": "Indicates a failure with the `spender`s `allowance`. Used in transfers.",
					"params": {
						"allowance": "Amount of tokens a `spender` is allowed to operate with.",
						"needed": "Minimum amount required to perform a transfer.",
						"spender": "Address that may be allowed to operate on tokens without being their owner."
					}
				}
			],
			"ERC20InsufficientBalance(address,uint256,uint256)": [
				{
					"details": "Indicates an error related to the current `balance` of a `sender`. Used in transfers.",
					"params": {
						"balance": "Current balance for the interacting account.",
						"needed": "Minimum amount required to perform a transfer.",
						"sender": "Address whose tokens are being transferred."
					}
				}
			],
			"ERC20InvalidApprover(address)": [
				{
					"details": "Indicates a failure with the `approver` of a token to be approved. Used in approvals.",
					"params": {
						"approver": "Address initiating an approval operation."
					}
				}
			],
			"ERC20InvalidReceiver(address)": [
				{
					"details": "Indicates a failure with the token `receiver`. Used in transfers.",
					"params": {
						"receiver": "Address to which tokens are being transferred."
					}
				}
			],
			"ERC20InvalidSender(address)": [
				{
					"details": "Indicates a failure with the token `sender`. Used in transfers.",
					"params": {
						"sender": "Address whose tokens are being transferred."
					}
				}
			],
			"ERC20InvalidSpender(address)": [
				{
					"details": "Indicates a failure with the `spender` to be approved. Used in approvals.",
					"params": {
						"spender": "Address that may be allowed to operate on tokens without being their owner."
					}
				}
			],
			"OwnableInvalidOwner(address)": [
				{
					"details": "The owner is not a valid owner account. (eg. `address(0)`)"
				}
			],
			"OwnableUnauthorizedAccount(address)": [
				{
					"details": "The caller account is not authorized to perform an operation."
				}
			],
			"StringsInsufficientHexLength(uint256,uint256)": [
				{
					"details": "The `value` string doesn't fit in the specified `length`."
				}
			]
		},
		"events": {
			"Approval(address,address,uint256)": {
				"details": "Emitted when the allowance of a `spender` for an `owner` is set by a call to {approve}. `value` is the new allowance."
			},
			"Transfer(address,address,uint256)": {
				"details": "Emitted when `value` tokens are moved from one account (`from`) to another (`to`). Note that `value` may be zero."
			}
		},
		"kind": "dev",
		"methods": {
			"allowance(address,address)": {
				"details": "See {IERC20-allowance}."
			},
			"approve(address,uint256)": {
				"details": "See {IERC20-approve}. NOTE: If `value` is the maximum `uint256`, the allowance is not updated on `transferFrom`. This is semantically equivalent to an infinite approval. Requirements: - `spender` cannot be the zero address."
			},
			"balanceOf(address)": {
				"details": "See {IERC20-balanceOf}."
			},
			"burn(uint256)": {
				"details": "Destroys a `value` amount of tokens from the caller. See {ERC20-_burn}."
			},
			"burnFrom(address,uint256)": {
				"details": "Destroys a `value` amount of tokens from `account`, deducting from the caller's allowance. See {ERC20-_burn} and {ERC20-allowance}. Requirements: - the caller must have allowance for ``accounts``'s tokens of at least `value`."
			},
			"decimals()": {
				"details": "Returns the number of decimals used to get its user representation. For example, if `decimals` equals `2`, a balance of `505` tokens should be displayed to a user as `5.05` (`505 / 10 ** 2`). Tokens usually opt for a value of 18, imitating the relationship between Ether and Wei. This is the default value returned by this function, unless it's overridden. NOTE: This information is only used for _display_ purposes: it in no way affects any of the arithmetic of the contract, including {IERC20-balanceOf} and {IERC20-transfer}."
			},
			"name()": {
				"details": "Returns the name of the token."
			},
			"owner()": {
				"details": "Returns the address of the current owner."
			},
			"renounceOwnership()": {
				"details": "Leaves the contract without owner. It will not be possible to call `onlyOwner` functions. Can only be called by the current owner. NOTE: Renouncing ownership will leave the contract without an owner, thereby disabling any functionality that is only available to the owner."
			},
			"symbol()": {
				"details": "Returns the symbol of the token, usually a shorter version of the name."
			},
			"totalSupply()": {
				"details": "See {IERC20-totalSupply}."
			},
			"transferOwnership(address)": {
				"details": "Transfers ownership of the contract to a new account (`newOwner`). Can only be called by the current owner."
			}
		},
		"version": 1
	},
	"userdoc": {
		"kind": "user",
		"methods": {},
		"version": 1
	},
	"storageLayout": {
		"storage": [
			{
				"astId": 2750,
				"contract": "contracts/Carbon.sol:Carbon",
				"label": "_balances",
				"offset": 0,
				"slot": "0",
				"type": "t_mapping(t_address,t_uint256)"
			},
			{
				"astId": 2756,
				"contract": "contracts/Carbon.sol:Carbon",
				"label": "_allowances",
				"offset": 0,
				"slot": "1",
				"type": "t_mapping(t_address,t_mapping(t_address,t_uint256))"
			},
			{
				"astId": 2758,
				"contract": "contracts/Carbon.sol:Carbon",
				"label": "_totalSupply",
				"offset": 0,
				"slot": "2",
				"type": "t_uint256"
			},
			{
				"astId": 2760,
				"contract": "contracts/Carbon.sol:Carbon",
				"label": "_name",
				"offset": 0,
				"slot": "3",
				"type": "t_string_storage"
			},
			{
				"astId": 2762,
				"contract": "contracts/Carbon.sol:Carbon",
				"label": "_symbol",
				"offset": 0,
				"slot": "4",
				"type": "t_string_storage"
			},
			{
				"astId": 2451,
				"contract": "contracts/Carbon.sol:Carbon",
				"label": "_owner",
				"offset": 0,
				"slot": "5",
				"type": "t_address"
			},
			{
				"astId": 6534,
				"contract": "contracts/Carbon.sol:Carbon",
				"label": "TCO2FaucetExtense",
				"offset": 0,
				"slot": "6",
				"type": "t_contract(ITCO2Faucet)7608"
			},
			{
				"astId": 6537,
				"contract": "contracts/Carbon.sol:Carbon",
				"label": "TCO2TokenExtense",
				"offset": 0,
				"slot": "7",
				"type": "t_contract(ITCO2Token)7620"
			},
			{
				"astId": 6539,
				"contract": "contracts/Carbon.sol:Carbon",
				"label": "EPNS_COMM_ADDRESS",
				"offset": 0,
				"slot": "8",
				"type": "t_address"
			},
			{
				"astId": 6541,
				"contract": "contracts/Carbon.sol:Carbon",
				"label": "LINK_TOKEN_ADDRESS",
				"offset": 0,
				"slot": "9",
				"type": "t_address"
			},
			{
				"astId": 6543,
				"contract": "contracts/Carbon.sol:Carbon",
				"label": "CARBON_CERTIFICATE_ADDRESS",
				"offset": 0,
				"slot": "10",
				"type": "t_address"
			},
			{
				"astId": 6545,
				"contract": "contracts/Carbon.sol:Carbon",
				"label": "CARBON_CALCULATOR_ADDRESS",
				"offset": 0,
				"slot": "11",
				"type": "t_address"
			},
			{
				"astId": 6547,
				"contract": "contracts/Carbon.sol:Carbon",
				"label": "TCO2TokensInContract",
				"offset": 0,
				"slot": "12",
				"type": "t_uint256"
			},
			{
				"astId": 6549,
				"contract": "contracts/Carbon.sol:Carbon",
				"label": "carbonTokensMinted",
				"offset": 0,
				"slot": "13",
				"type": "t_uint256"
			},
			{
				"astId": 6554,
				"contract": "contracts/Carbon.sol:Carbon",
				"label": "travelRequests",
				"offset": 0,
				"slot": "14",
				"type": "t_mapping(t_bytes32,t_struct(Travel)7635_storage)"
			},
			{
				"astId": 6559,
				"contract": "contracts/Carbon.sol:Carbon",
				"label": "groceryRequests",
				"offset": 0,
				"slot": "15",
				"type": "t_mapping(t_bytes32,t_struct(Grocery)7652_storage)"
			}
		],
		"types": {
			"t_address": {
				"encoding": "inplace",
				"label": "address",
				"numberOfBytes": "20"
			},
			"t_bytes32": {
				"encoding": "inplace",
				"label": "bytes32",
				"numberOfBytes": "32"
			},
			"t_contract(ITCO2Faucet)7608": {
				"encoding": "inplace",
				"label": "contract ITCO2Faucet",
				"numberOfBytes": "20"
			},
			"t_contract(ITCO2Token)7620": {
				"encoding": "inplace",
				"label": "contract ITCO2Token",
				"numberOfBytes": "20"
			},
			"t_mapping(t_address,t_mapping(t_address,t_uint256))": {
				"encoding": "mapping",
				"key": "t_address",
				"label": "mapping(address => mapping(address => uint256))",
				"numberOfBytes": "32",
				"value": "t_mapping(t_address,t_uint256)"
			},
			"t_mapping(t_address,t_uint256)": {
				"encoding": "mapping",
				"key": "t_address",
				"label": "mapping(address => uint256)",
				"numberOfBytes": "32",
				"value": "t_uint256"
			},
			"t_mapping(t_bytes32,t_struct(Grocery)7652_storage)": {
				"encoding": "mapping",
				"key": "t_bytes32",
				"label": "mapping(bytes32 => struct Grocery)",
				"numberOfBytes": "32",
				"value": "t_struct(Grocery)7652_storage"
			},
			"t_mapping(t_bytes32,t_struct(Travel)7635_storage)": {
				"encoding": "mapping",
				"key": "t_bytes32",
				"label": "mapping(bytes32 => struct Travel)",
				"numberOfBytes": "32",
				"value": "t_struct(Travel)7635_storage"
			},
			"t_string_storage": {
				"encoding": "bytes",
				"label": "string",
				"numberOfBytes": "32"
			},
			"t_struct(Grocery)7652_storage": {
				"encoding": "inplace",
				"label": "struct Grocery",
				"members": [
					{
						"astId": 7637,
						"contract": "contracts/Carbon.sol:Carbon",
						"label": "moneySpentProteins",
						"offset": 0,
						"slot": "0",
						"type": "t_string_storage"
					},
					{
						"astId": 7639,
						"contract": "contracts/Carbon.sol:Carbon",
						"label": "moneySpentFats",
						"offset": 0,
						"slot": "1",
						"type": "t_string_storage"
					},
					{
						"astId": 7641,
						"contract": "contracts/Carbon.sol:Carbon",
						"label": "moneySpentCarbs",
						"offset": 0,
						"slot": "2",
						"type": "t_string_storage"
					},
					{
						"astId": 7643,
						"contract": "contracts/Carbon.sol:Carbon",
						"label": "proteinsEmission",
						"offset": 0,
						"slot": "3",
						"type": "t_uint256"
					},
					{
						"astId": 7645,
						"contract": "contracts/Carbon.sol:Carbon",
						"label": "fatsEmission",
						"offset": 0,
						"slot": "4",
						"type": "t_uint256"
					},
					{
						"astId": 7647,
						"contract": "contracts/Carbon.sol:Carbon",
						"label": "carbsEmission",
						"offset": 0,
						"slot": "5",
						"type": "t_uint256"
					},
					{
						"astId": 7649,
						"contract": "contracts/Carbon.sol:Carbon",
						"label": "foodEmission",
						"offset": 0,
						"slot": "6",
						"type": "t_uint256"
					},
					{
						"astId": 7651,
						"contract": "contracts/Carbon.sol:Carbon",
						"label": "buyer",
						"offset": 0,
						"slot": "7",
						"type": "t_address"
					}
				],
				"numberOfBytes": "256"
			},
			"t_struct(Travel)7635_storage": {
				"encoding": "inplace",
				"label": "struct Travel",
				"members": [
					{
						"astId": 7624,
						"contract": "contracts/Carbon.sol:Carbon",
						"label": "distance",
						"offset": 0,
						"slot": "0",
						"type": "t_string_storage"
					},
					{
						"astId": 7626,
						"contract": "contracts/Carbon.sol:Carbon",
						"label": "nights",
						"offset": 0,
						"slot": "1",
						"type": "t_string_storage"
					},
					{
						"astId": 7628,
						"contract": "contracts/Carbon.sol:Carbon",
						"label": "flightEmission",
						"offset": 0,
						"slot": "2",
						"type": "t_uint256"
					},
					{
						"astId": 7630,
						"contract": "contracts/Carbon.sol:Carbon",
						"label": "hotelEmission",
						"offset": 0,
						"slot": "3",
						"type": "t_uint256"
					},
					{
						"astId": 7632,
						"contract": "contracts/Carbon.sol:Carbon",
						"label": "travelEmission",
						"offset": 0,
						"slot": "4",
						"type": "t_uint256"
					},
					{
						"astId": 7634,
						"contract": "contracts/Carbon.sol:Carbon",
						"label": "buyer",
						"offset": 0,
						"slot": "5",
						"type": "t_address"
					}
				],
				"numberOfBytes": "192"
			},
			"t_uint256": {
				"encoding": "inplace",
				"label": "uint256",
				"numberOfBytes": "32"
			}
		}
	}
}