{
	"address": "0xD360D724aDCCEDf7285E8eFDDb98586686216Ff9",
	"abi": [
		{
			"inputs": [
				{
					"internalType": "address",
					"name": "_router",
					"type": "address"
				},
				{
					"internalType": "address",
					"name": "_link",
					"type": "address"
				},
				{
					"internalType": "address",
					"name": "_EPNS_COMM_ADDRESS",
					"type": "address"
				}
			],
			"stateMutability": "nonpayable",
			"type": "constructor"
		},
		{
			"inputs": [
				{
					"internalType": "uint64",
					"name": "destinationChainSelector",
					"type": "uint64"
				}
			],
			"name": "DestinationChainNotWhitelisted",
			"type": "error"
		},
		{
			"inputs": [
				{
					"internalType": "address",
					"name": "owner",
					"type": "address"
				},
				{
					"internalType": "address",
					"name": "target",
					"type": "address"
				},
				{
					"internalType": "uint256",
					"name": "value",
					"type": "uint256"
				}
			],
			"name": "FailedToWithdrawEth",
			"type": "error"
		},
		{
			"inputs": [
				{
					"internalType": "uint256",
					"name": "currentBalance",
					"type": "uint256"
				},
				{
					"internalType": "uint256",
					"name": "calculatedFees",
					"type": "uint256"
				}
			],
			"name": "NotEnoughBalance",
			"type": "error"
		},
		{
			"inputs": [],
			"name": "NothingToWithdraw",
			"type": "error"
		},
		{
			"anonymous": false,
			"inputs": [
				{
					"indexed": true,
					"internalType": "address",
					"name": "from",
					"type": "address"
				},
				{
					"indexed": true,
					"internalType": "address",
					"name": "to",
					"type": "address"
				}
			],
			"name": "OwnershipTransferRequested",
			"type": "event"
		},
		{
			"anonymous": false,
			"inputs": [
				{
					"indexed": true,
					"internalType": "address",
					"name": "from",
					"type": "address"
				},
				{
					"indexed": true,
					"internalType": "address",
					"name": "to",
					"type": "address"
				}
			],
			"name": "OwnershipTransferred",
			"type": "event"
		},
		{
			"anonymous": false,
			"inputs": [
				{
					"indexed": true,
					"internalType": "bytes32",
					"name": "messageId",
					"type": "bytes32"
				},
				{
					"indexed": true,
					"internalType": "uint64",
					"name": "destinationChainSelector",
					"type": "uint64"
				},
				{
					"indexed": false,
					"internalType": "address",
					"name": "receiver",
					"type": "address"
				},
				{
					"indexed": false,
					"internalType": "address",
					"name": "token",
					"type": "address"
				},
				{
					"indexed": false,
					"internalType": "uint256",
					"name": "tokenAmount",
					"type": "uint256"
				},
				{
					"indexed": false,
					"internalType": "address",
					"name": "feeToken",
					"type": "address"
				},
				{
					"indexed": false,
					"internalType": "uint256",
					"name": "fees",
					"type": "uint256"
				}
			],
			"name": "TokensTransferred",
			"type": "event"
		},
		{
			"inputs": [],
			"name": "EPNS_COMM_ADDRESS",
			"outputs": [
				{
					"internalType": "address",
					"name": "",
					"type": "address"
				}
			],
			"stateMutability": "view",
			"type": "function"
		},
		{
			"inputs": [],
			"name": "acceptOwnership",
			"outputs": [],
			"stateMutability": "nonpayable",
			"type": "function"
		},
		{
			"inputs": [
				{
					"internalType": "uint64",
					"name": "_destinationChainSelector",
					"type": "uint64"
				}
			],
			"name": "denylistChain",
			"outputs": [],
			"stateMutability": "nonpayable",
			"type": "function"
		},
		{
			"inputs": [],
			"name": "owner",
			"outputs": [
				{
					"internalType": "address",
					"name": "",
					"type": "address"
				}
			],
			"stateMutability": "view",
			"type": "function"
		},
		{
			"inputs": [
				{
					"internalType": "address",
					"name": "to",
					"type": "address"
				}
			],
			"name": "transferOwnership",
			"outputs": [],
			"stateMutability": "nonpayable",
			"type": "function"
		},
		{
			"inputs": [
				{
					"internalType": "uint64",
					"name": "_destinationChainSelector",
					"type": "uint64"
				},
				{
					"internalType": "address",
					"name": "_receiver",
					"type": "address"
				},
				{
					"internalType": "address",
					"name": "_token",
					"type": "address"
				},
				{
					"internalType": "uint256",
					"name": "_amount",
					"type": "uint256"
				}
			],
			"name": "transferTokensPayLINK",
			"outputs": [
				{
					"internalType": "bytes32",
					"name": "messageId",
					"type": "bytes32"
				}
			],
			"stateMutability": "nonpayable",
			"type": "function"
		},
		{
			"inputs": [
				{
					"internalType": "uint64",
					"name": "_destinationChainSelector",
					"type": "uint64"
				},
				{
					"internalType": "address",
					"name": "_receiver",
					"type": "address"
				},
				{
					"internalType": "address",
					"name": "_token",
					"type": "address"
				},
				{
					"internalType": "uint256",
					"name": "_amount",
					"type": "uint256"
				}
			],
			"name": "transferTokensPayNative",
			"outputs": [
				{
					"internalType": "bytes32",
					"name": "messageId",
					"type": "bytes32"
				}
			],
			"stateMutability": "nonpayable",
			"type": "function"
		},
		{
			"inputs": [
				{
					"internalType": "uint64",
					"name": "_destinationChainSelector",
					"type": "uint64"
				}
			],
			"name": "whitelistChain",
			"outputs": [],
			"stateMutability": "nonpayable",
			"type": "function"
		},
		{
			"inputs": [
				{
					"internalType": "uint64",
					"name": "",
					"type": "uint64"
				}
			],
			"name": "whitelistedChains",
			"outputs": [
				{
					"internalType": "bool",
					"name": "",
					"type": "bool"
				}
			],
			"stateMutability": "view",
			"type": "function"
		},
		{
			"inputs": [
				{
					"internalType": "address",
					"name": "_beneficiary",
					"type": "address"
				}
			],
			"name": "withdraw",
			"outputs": [],
			"stateMutability": "nonpayable",
			"type": "function"
		},
		{
			"inputs": [
				{
					"internalType": "address",
					"name": "_beneficiary",
					"type": "address"
				},
				{
					"internalType": "address",
					"name": "_token",
					"type": "address"
				}
			],
			"name": "withdrawToken",
			"outputs": [],
			"stateMutability": "nonpayable",
			"type": "function"
		},
		{
			"stateMutability": "payable",
			"type": "receive"
		}
	],
	"transactionHash": "0x66aee7629527a14d2ceecb3b80ed178835ccc6e2681a576c90531d8f9e5b4282",
	"args": [
		"0x70499c328e1E2a3c41108bd3730F6670a44595D1",
		"0x326C977E6efc84E512bB9C30f76E30c160eD06FB",
		"0xb3971BCef2D791bc4027BbfedFb47319A4AAaaAa"
	],
	"numDeployments": 1,
	"solcInputHash": "ab58490f915daac0c62e7736f1b331b5",
	"bytecode": "0x60806040523480156200001157600080fd5b5060405162001780380380620017808339810160408190526200003491620001cc565b33806000816200008b5760405162461bcd60e51b815260206004820152601860248201527f43616e6e6f7420736574206f776e657220746f207a65726f000000000000000060448201526064015b60405180910390fd5b600080546001600160a01b0319166001600160a01b0384811691909117909155811615620000be57620000be8162000104565b5050600280546001600160a01b039586166001600160a01b0319918216179091556003805494861694821694909417909355506004805491909316911617905562000216565b336001600160a01b038216036200015e5760405162461bcd60e51b815260206004820152601760248201527f43616e6e6f74207472616e7366657220746f2073656c66000000000000000000604482015260640162000082565b600180546001600160a01b0319166001600160a01b0383811691821790925560008054604051929316917fed8889f560326eb138920d842192f0eb3dd22b4f139c87a2c57538e05bae12789190a350565b80516001600160a01b0381168114620001c757600080fd5b919050565b600080600060608486031215620001e257600080fd5b620001ed84620001af565b9250620001fd60208501620001af565b91506200020d60408501620001af565b90509250925092565b61155a80620002266000396000f3fe6080604052600436106100a05760003560e01c8063763574f611610064578063763574f61461017957806379ba5097146101b95780638da5cb5b146101ce57806395e1402c146101ec578063d345ac7d1461020c578063f2fde38b1461022c57600080fd5b806334625dcc146100ac5780633aeac4e1146100ce57806348a3b4a4146100ee57806351419b4b1461012b57806351cff8d91461015957600080fd5b366100a757005b600080fd5b3480156100b857600080fd5b506100cc6100c73660046110af565b61024c565b005b3480156100da57600080fd5b506100cc6100e93660046110e8565b610276565b3480156100fa57600080fd5b5060045461010e906001600160a01b031681565b6040516001600160a01b0390911681526020015b60405180910390f35b34801561013757600080fd5b5061014b61014636600461111b565b610385565b604051908152602001610122565b34801561016557600080fd5b506100cc610174366004611166565b6105f5565b34801561018557600080fd5b506101a96101943660046110af565b60056020526000908152604090205460ff1681565b6040519015158152602001610122565b3480156101c557600080fd5b506100cc6106b1565b3480156101da57600080fd5b506000546001600160a01b031661010e565b3480156101f857600080fd5b5061014b61020736600461111b565b61075b565b34801561021857600080fd5b506100cc6102273660046110af565b610c57565b34801561023857600080fd5b506100cc610247366004611166565b610c84565b610254610c98565b67ffffffffffffffff166000908152600560205260409020805460ff19169055565b61027e610c98565b6040516370a0823160e01b81523060048201526000906001600160a01b038316906370a0823190602401602060405180830381865afa1580156102c5573d6000803e3d6000fd5b505050506040513d601f19601f820116820180604052508101906102e99190611181565b90508060000361030c57604051630686827b60e51b815260040160405180910390fd5b60405163a9059cbb60e01b81526001600160a01b0384811660048301526024820183905283169063a9059cbb906044016020604051808303816000875af115801561035b573d6000803e3d6000fd5b505050506040513d601f19601f8201168201806040525081019061037f919061119a565b50505050565b600061038f610c98565b67ffffffffffffffff8516600090815260056020526040902054859060ff166103dc57604051632328ea8d60e11b815267ffffffffffffffff821660048201526024015b60405180910390fd5b60006103eb8686866000610ced565b6002546040516320487ded60e01b81529192506000916001600160a01b03909116906320487ded90610423908b90869060040161120c565b602060405180830381865afa158015610440573d6000803e3d6000fd5b505050506040513d601f19601f820116820180604052508101906104649190611181565b90504781111561049057604051634787a10360e11b8152476004820152602481018290526044016103d3565b60025460405163095ea7b360e01b81526001600160a01b039182166004820152602481018790529087169063095ea7b3906044016020604051808303816000875af11580156104e3573d6000803e3d6000fd5b505050506040513d601f19601f82011682018060405250810190610507919061119a565b506002546040516396f4e9f960e01b81526001600160a01b03909116906396f4e9f990839061053c908c90879060040161120c565b60206040518083038185885af115801561055a573d6000803e3d6000fd5b50505050506040513d601f19601f8201168201806040525081019061057f9190611181565b604080516001600160a01b03808b16825289166020820152908101879052600060608201526080810183905290945067ffffffffffffffff89169085907fc15fb748c32ba4eb29c1c311e78533f93b4425eab49ea87c6fe4279ecadca0439060a0015b60405180910390a3505050949350505050565b6105fd610c98565b47600081900361062057604051630686827b60e51b815260040160405180910390fd5b6000826001600160a01b03168260405160006040518083038185875af1925050503d806000811461066d576040519150601f19603f3d011682016040523d82523d6000602084013e610672565b606091505b50509050806106ac57604051639d11f56360e01b81523360048201526001600160a01b0384166024820152604481018390526064016103d3565b505050565b6001546001600160a01b031633146107045760405162461bcd60e51b815260206004820152601660248201527526bab9ba10313290383937b837b9b2b21037bbb732b960511b60448201526064016103d3565b60008054336001600160a01b0319808316821784556001805490911690556040516001600160a01b0390921692909183917f8be0079c531659141344cd1fd0a4f28419497f9722a3daafe3b4186f6b6457e091a350565b6000610765610c98565b67ffffffffffffffff8516600090815260056020526040902054859060ff166107ad57604051632328ea8d60e11b815267ffffffffffffffff821660048201526024016103d3565b6003546000906107cb908790879087906001600160a01b0316610ced565b6002546040516320487ded60e01b81529192506000916001600160a01b03909116906320487ded90610803908b90869060040161120c565b602060405180830381865afa158015610820573d6000803e3d6000fd5b505050506040513d601f19601f820116820180604052508101906108449190611181565b6003546040516370a0823160e01b81523060048201529192506001600160a01b0316906370a0823190602401602060405180830381865afa15801561088d573d6000803e3d6000fd5b505050506040513d601f19601f820116820180604052508101906108b19190611181565b811115610948576003546040516370a0823160e01b81523060048201526001600160a01b03909116906370a0823190602401602060405180830381865afa158015610900573d6000803e3d6000fd5b505050506040513d601f19601f820116820180604052508101906109249190611181565b604051634787a10360e11b81526004810191909152602481018290526044016103d3565b60035460025460405163095ea7b360e01b81526001600160a01b0391821660048201526024810184905291169063095ea7b3906044016020604051808303816000875af115801561099d573d6000803e3d6000fd5b505050506040513d601f19601f820116820180604052508101906109c1919061119a565b5060025460405163095ea7b360e01b81526001600160a01b039182166004820152602481018790529087169063095ea7b3906044016020604051808303816000875af1158015610a15573d6000803e3d6000fd5b505050506040513d601f19601f82011682018060405250810190610a39919061119a565b506002546040516396f4e9f960e01b81526001600160a01b03909116906396f4e9f990610a6c908b90869060040161120c565b6020604051808303816000875af1158015610a8b573d6000803e3d6000fd5b505050506040513d601f19601f82011682018060405250810190610aaf9190611181565b6004549094506001600160a01b031615610bef57600460009054906101000a90046001600160a01b03166001600160a01b031663ba3d69d773aa7880db88d8e051428b5204817e58d8327340de33610b7f8a6001600160a01b031663313ce5676040518163ffffffff1660e01b8152600401602060405180830381865afa158015610b3e573d6000803e3d6000fd5b505050506040513d601f19601f82011682018060405250810190610b6291906112e6565b610b709060ff16600a611403565b610b7a908b61140f565b610e7d565b604051602001610b8f9190611431565b6040516020818303038152906040526040518463ffffffff1660e01b8152600401610bbc939291906114c3565b600060405180830381600087803b158015610bd657600080fd5b505af1158015610bea573d6000803e3d6000fd5b505050505b600354604080516001600160a01b03808b168252808a166020830152918101889052911660608201526080810182905267ffffffffffffffff89169085907fc15fb748c32ba4eb29c1c311e78533f93b4425eab49ea87c6fe4279ecadca0439060a0016105e2565b610c5f610c98565b67ffffffffffffffff166000908152600560205260409020805460ff19166001179055565b610c8c610c98565b610c9581610f10565b50565b6000546001600160a01b03163314610ceb5760405162461bcd60e51b815260206004820152601660248201527527b7363c9031b0b63630b1363290313c9037bbb732b960511b60448201526064016103d3565b565b610d286040518060a0016040528060608152602001606081526020016060815260200160006001600160a01b03168152602001606081525090565b604080516001808252818301909252600091816020015b6040805180820190915260008082526020820152815260200190600190039081610d3f57905050905060006040518060400160405280876001600160a01b031681526020018681525090508082600081518110610d9e57610d9e61150e565b60209081029190910101526040805160a081019091526001600160a01b03881660c08201526000908060e081016040516020818303038152906040528152602001604051806020016040528060008152508152602001848152602001866001600160a01b03168152602001610e6f604051806040016040528060008152602001600015158152506040805182516024820152602092830151151560448083019190915282518083039091018152606490910190915290810180516001600160e01b03166397a657c960e01b17905290565b905298975050505050505050565b60606000610e8a83610fb9565b600101905060008167ffffffffffffffff811115610eaa57610eaa6114f8565b6040519080825280601f01601f191660200182016040528015610ed4576020820181803683370190505b5090508181016020015b600019016f181899199a1a9b1b9c1cb0b131b232b360811b600a86061a8153600a8504945084610ede57509392505050565b336001600160a01b03821603610f685760405162461bcd60e51b815260206004820152601760248201527f43616e6e6f74207472616e7366657220746f2073656c6600000000000000000060448201526064016103d3565b600180546001600160a01b0319166001600160a01b0383811691821790925560008054604051929316917fed8889f560326eb138920d842192f0eb3dd22b4f139c87a2c57538e05bae12789190a350565b60008072184f03e93ff9f4daa797ed6e38ed64bf6a1f0160401b8310610ff85772184f03e93ff9f4daa797ed6e38ed64bf6a1f0160401b830492506040015b6d04ee2d6d415b85acef81000000008310611024576d04ee2d6d415b85acef8100000000830492506020015b662386f26fc10000831061104257662386f26fc10000830492506010015b6305f5e100831061105a576305f5e100830492506008015b612710831061106e57612710830492506004015b60648310611080576064830492506002015b600a831061108c576001015b92915050565b803567ffffffffffffffff811681146110aa57600080fd5b919050565b6000602082840312156110c157600080fd5b6110ca82611092565b9392505050565b80356001600160a01b03811681146110aa57600080fd5b600080604083850312156110fb57600080fd5b611104836110d1565b9150611112602084016110d1565b90509250929050565b6000806000806080858703121561113157600080fd5b61113a85611092565b9350611148602086016110d1565b9250611156604086016110d1565b9396929550929360600135925050565b60006020828403121561117857600080fd5b6110ca826110d1565b60006020828403121561119357600080fd5b5051919050565b6000602082840312156111ac57600080fd5b815180151581146110ca57600080fd5b60005b838110156111d75781810151838201526020016111bf565b50506000910152565b600081518084526111f88160208601602086016111bc565b601f01601f19169290920160200192915050565b6000604067ffffffffffffffff8516835260208181850152845160a08386015261123960e08601826111e0565b905081860151603f198087840301606088015261125683836111e0565b88860151888203830160808a01528051808352908601945060009350908501905b808410156112a957845180516001600160a01b0316835286015186830152938501936001939093019290860190611277565b5060608901516001600160a01b031660a08901526080890151888203830160c08a015295506112d881876111e0565b9a9950505050505050505050565b6000602082840312156112f857600080fd5b815160ff811681146110ca57600080fd5b634e487b7160e01b600052601160045260246000fd5b600181815b8085111561135a57816000190482111561134057611340611309565b8085161561134d57918102915b93841c9390800290611324565b509250929050565b6000826113715750600161108c565b8161137e5750600061108c565b8160018114611394576002811461139e576113ba565b600191505061108c565b60ff8411156113af576113af611309565b50506001821b61108c565b5060208310610133831016604e8410600b84101617156113dd575081810a61108c565b6113e7838361131f565b80600019048211156113fb576113fb611309565b029392505050565b60006110ca8383611362565b60008261142c57634e487b7160e01b600052601260045260246000fd5b500490565b600360fc1b81526000602b60f81b806001840152603360f81b600284015280600384015268436f6e67726174732160b81b600484015280600d840152506d02cb7ba90353ab9ba1039b2b73a160951b600e830152825161149881601c8501602087016111bc565b7320434152424f4e2120746f204f7074696d69736d60601b601c939091019283015250603001919050565b6001600160a01b038481168252831660208201526060604082018190526000906114ef908301846111e0565b95945050505050565b634e487b7160e01b600052604160045260246000fd5b634e487b7160e01b600052603260045260246000fdfea2646970667358221220fef514722ceb4a77da27a5d9db00c472d38294b60c73753a88fa7f3aef75fd8464736f6c63430008140033",
	"devdoc": {
		"kind": "dev",
		"methods": {
			"transferTokensPayLINK(uint64,address,address,uint256)": {
				"details": "Assumes your contract has sufficient LINK tokens to pay for the fees.",
				"params": {
					"_amount": "token amount.",
					"_destinationChainSelector": "The identifier (aka selector) for the destination blockchain.",
					"_receiver": "The address of the recipient on the destination blockchain.",
					"_token": "token address."
				},
				"returns": {
					"messageId": "The ID of the message that was sent."
				}
			},
			"transferTokensPayNative(uint64,address,address,uint256)": {
				"details": "Assumes your contract has sufficient native gas like ETH on Ethereum or MATIC on Polygon.",
				"params": {
					"_amount": "token amount.",
					"_destinationChainSelector": "The identifier (aka selector) for the destination blockchain.",
					"_receiver": "The address of the recipient on the destination blockchain.",
					"_token": "token address."
				},
				"returns": {
					"messageId": "The ID of the message that was sent."
				}
			}
		},
		"version": 1
	},
	"userdoc": {
		"kind": "user",
		"methods": {
			"acceptOwnership()": {
				"notice": "Allows an ownership transfer to be completed by the recipient."
			},
			"owner()": {
				"notice": "Get the current owner"
			},
			"transferOwnership(address)": {
				"notice": "Allows an owner to begin transferring ownership to a new address, pending."
			},
			"transferTokensPayLINK(uint64,address,address,uint256)": {
				"notice": "Transfer tokens to receiver on the destination chain.pay in LINK.the token must be in the list of supported tokens.This function can only be called by the owner."
			},
			"transferTokensPayNative(uint64,address,address,uint256)": {
				"notice": "Transfer tokens to receiver on the destination chain.Pay in native gas such as ETH on Ethereum or MATIC on Polgon.the token must be in the list of supported tokens.This function can only be called by the owner."
			}
		},
		"version": 1
	},
	"storageLayout": {
		"storage": [
			{
				"astId": 27,
				"contract": "contracts/Gateway.sol:Gateway",
				"label": "s_owner",
				"offset": 0,
				"slot": "0",
				"type": "t_address"
			},
			{
				"astId": 29,
				"contract": "contracts/Gateway.sol:Gateway",
				"label": "s_pendingOwner",
				"offset": 0,
				"slot": "1",
				"type": "t_address"
			},
			{
				"astId": 8037,
				"contract": "contracts/Gateway.sol:Gateway",
				"label": "router",
				"offset": 0,
				"slot": "2",
				"type": "t_contract(IRouterClient)233"
			},
			{
				"astId": 8040,
				"contract": "contracts/Gateway.sol:Gateway",
				"label": "linkToken",
				"offset": 0,
				"slot": "3",
				"type": "t_contract(LinkTokenInterface)1657"
			},
			{
				"astId": 8042,
				"contract": "contracts/Gateway.sol:Gateway",
				"label": "EPNS_COMM_ADDRESS",
				"offset": 0,
				"slot": "4",
				"type": "t_address"
			},
			{
				"astId": 8046,
				"contract": "contracts/Gateway.sol:Gateway",
				"label": "whitelistedChains",
				"offset": 0,
				"slot": "5",
				"type": "t_mapping(t_uint64,t_bool)"
			}
		],
		"types": {
			"t_address": {
				"encoding": "inplace",
				"label": "address",
				"numberOfBytes": "20"
			},
			"t_bool": {
				"encoding": "inplace",
				"label": "bool",
				"numberOfBytes": "1"
			},
			"t_contract(IRouterClient)233": {
				"encoding": "inplace",
				"label": "contract IRouterClient",
				"numberOfBytes": "20"
			},
			"t_contract(LinkTokenInterface)1657": {
				"encoding": "inplace",
				"label": "contract LinkTokenInterface",
				"numberOfBytes": "20"
			},
			"t_mapping(t_uint64,t_bool)": {
				"encoding": "mapping",
				"key": "t_uint64",
				"label": "mapping(uint64 => bool)",
				"numberOfBytes": "32",
				"value": "t_bool"
			},
			"t_uint64": {
				"encoding": "inplace",
				"label": "uint64",
				"numberOfBytes": "8"
			}
		}
	}
}