{
	"address": "0x816Fe7B6B8473e188569D244F4bF61eF620B0e9E",
	"abi": [
		{
			"inputs": [
				{
					"internalType": "address[]",
					"name": "_carbonArgs",
					"type": "address[]"
				},
				{
					"internalType": "string[]",
					"name": "_certificateArgs",
					"type": "string[]"
				},
				{
					"internalType": "address[]",
					"name": "_calculatorArgs",
					"type": "address[]"
				},
				{
					"internalType": "address[]",
					"name": "_communicatorArgs",
					"type": "address[]"
				}
			],
			"stateMutability": "nonpayable",
			"type": "constructor"
		},
		{
			"inputs": [
				{
					"internalType": "address",
					"name": "spender",
					"type": "address"
				},
				{
					"internalType": "uint256",
					"name": "allowance",
					"type": "uint256"
				},
				{
					"internalType": "uint256",
					"name": "needed",
					"type": "uint256"
				}
			],
			"name": "ERC20InsufficientAllowance",
			"type": "error"
		},
		{
			"inputs": [
				{
					"internalType": "address",
					"name": "sender",
					"type": "address"
				},
				{
					"internalType": "uint256",
					"name": "balance",
					"type": "uint256"
				},
				{
					"internalType": "uint256",
					"name": "needed",
					"type": "uint256"
				}
			],
			"name": "ERC20InsufficientBalance",
			"type": "error"
		},
		{
			"inputs": [
				{
					"internalType": "address",
					"name": "approver",
					"type": "address"
				}
			],
			"name": "ERC20InvalidApprover",
			"type": "error"
		},
		{
			"inputs": [
				{
					"internalType": "address",
					"name": "receiver",
					"type": "address"
				}
			],
			"name": "ERC20InvalidReceiver",
			"type": "error"
		},
		{
			"inputs": [
				{
					"internalType": "address",
					"name": "sender",
					"type": "address"
				}
			],
			"name": "ERC20InvalidSender",
			"type": "error"
		},
		{
			"inputs": [
				{
					"internalType": "address",
					"name": "spender",
					"type": "address"
				}
			],
			"name": "ERC20InvalidSpender",
			"type": "error"
		},
		{
			"inputs": [
				{
					"internalType": "address",
					"name": "owner",
					"type": "address"
				}
			],
			"name": "OwnableInvalidOwner",
			"type": "error"
		},
		{
			"inputs": [
				{
					"internalType": "address",
					"name": "account",
					"type": "address"
				}
			],
			"name": "OwnableUnauthorizedAccount",
			"type": "error"
		},
		{
			"inputs": [
				{
					"internalType": "uint256",
					"name": "value",
					"type": "uint256"
				},
				{
					"internalType": "uint256",
					"name": "length",
					"type": "uint256"
				}
			],
			"name": "StringsInsufficientHexLength",
			"type": "error"
		},
		{
			"anonymous": false,
			"inputs": [
				{
					"indexed": true,
					"internalType": "address",
					"name": "owner",
					"type": "address"
				},
				{
					"indexed": true,
					"internalType": "address",
					"name": "spender",
					"type": "address"
				},
				{
					"indexed": false,
					"internalType": "uint256",
					"name": "value",
					"type": "uint256"
				}
			],
			"name": "Approval",
			"type": "event"
		},
		{
			"anonymous": false,
			"inputs": [
				{
					"indexed": true,
					"internalType": "address",
					"name": "buyer",
					"type": "address"
				},
				{
					"indexed": false,
					"internalType": "uint256",
					"name": "amount",
					"type": "uint256"
				}
			],
			"name": "BougthCarbonCredits",
			"type": "event"
		},
		{
			"anonymous": false,
			"inputs": [
				{
					"indexed": true,
					"internalType": "address",
					"name": "buyer",
					"type": "address"
				},
				{
					"indexed": false,
					"internalType": "uint256",
					"name": "amount",
					"type": "uint256"
				},
				{
					"indexed": false,
					"internalType": "string",
					"name": "network",
					"type": "string"
				}
			],
			"name": "BougthCarbonCreditsCrosschain",
			"type": "event"
		},
		{
			"anonymous": false,
			"inputs": [
				{
					"indexed": true,
					"internalType": "bytes32",
					"name": "requestId",
					"type": "bytes32"
				},
				{
					"indexed": false,
					"internalType": "string",
					"name": "moneySpentProteins",
					"type": "string"
				},
				{
					"indexed": false,
					"internalType": "string",
					"name": "moneySpentFats",
					"type": "string"
				},
				{
					"indexed": false,
					"internalType": "string",
					"name": "moneySpentCarbs",
					"type": "string"
				},
				{
					"indexed": false,
					"internalType": "uint256",
					"name": "proteinsEmission",
					"type": "uint256"
				},
				{
					"indexed": false,
					"internalType": "uint256",
					"name": "fatsEmission",
					"type": "uint256"
				},
				{
					"indexed": false,
					"internalType": "uint256",
					"name": "carbsEmission",
					"type": "uint256"
				},
				{
					"indexed": false,
					"internalType": "uint256",
					"name": "foodEmission",
					"type": "uint256"
				},
				{
					"indexed": false,
					"internalType": "address",
					"name": "buyer",
					"type": "address"
				}
			],
			"name": "GroceryCarbonFootprintOffset",
			"type": "event"
		},
		{
			"anonymous": false,
			"inputs": [
				{
					"indexed": true,
					"internalType": "address",
					"name": "previousOwner",
					"type": "address"
				},
				{
					"indexed": true,
					"internalType": "address",
					"name": "newOwner",
					"type": "address"
				}
			],
			"name": "OwnershipTransferred",
			"type": "event"
		},
		{
			"anonymous": false,
			"inputs": [
				{
					"indexed": true,
					"internalType": "address",
					"name": "buyer",
					"type": "address"
				},
				{
					"indexed": false,
					"internalType": "uint256",
					"name": "amount",
					"type": "uint256"
				},
				{
					"indexed": false,
					"internalType": "uint256",
					"name": "certificateId",
					"type": "uint256"
				}
			],
			"name": "RetiredCarbonCredits",
			"type": "event"
		},
		{
			"anonymous": false,
			"inputs": [
				{
					"indexed": true,
					"internalType": "address",
					"name": "buyer",
					"type": "address"
				},
				{
					"indexed": false,
					"internalType": "uint256",
					"name": "amount",
					"type": "uint256"
				},
				{
					"indexed": false,
					"internalType": "string",
					"name": "network",
					"type": "string"
				}
			],
			"name": "RetiredCarbonCreditsCrosschain",
			"type": "event"
		},
		{
			"anonymous": false,
			"inputs": [
				{
					"indexed": true,
					"internalType": "address",
					"name": "from",
					"type": "address"
				},
				{
					"indexed": true,
					"internalType": "address",
					"name": "to",
					"type": "address"
				},
				{
					"indexed": false,
					"internalType": "uint256",
					"name": "value",
					"type": "uint256"
				}
			],
			"name": "Transfer",
			"type": "event"
		},
		{
			"anonymous": false,
			"inputs": [
				{
					"indexed": true,
					"internalType": "address",
					"name": "from",
					"type": "address"
				},
				{
					"indexed": true,
					"internalType": "address",
					"name": "to",
					"type": "address"
				},
				{
					"indexed": false,
					"internalType": "uint256",
					"name": "amount",
					"type": "uint256"
				},
				{
					"indexed": false,
					"internalType": "string",
					"name": "network",
					"type": "string"
				}
			],
			"name": "TransferCrosschain",
			"type": "event"
		},
		{
			"anonymous": false,
			"inputs": [
				{
					"indexed": true,
					"internalType": "address",
					"name": "sender",
					"type": "address"
				},
				{
					"indexed": true,
					"internalType": "address",
					"name": "from",
					"type": "address"
				},
				{
					"indexed": true,
					"internalType": "address",
					"name": "to",
					"type": "address"
				},
				{
					"indexed": false,
					"internalType": "uint256",
					"name": "amount",
					"type": "uint256"
				},
				{
					"indexed": false,
					"internalType": "string",
					"name": "network",
					"type": "string"
				}
			],
			"name": "TransferFromCrosschain",
			"type": "event"
		},
		{
			"anonymous": false,
			"inputs": [
				{
					"indexed": true,
					"internalType": "bytes32",
					"name": "requestId",
					"type": "bytes32"
				},
				{
					"indexed": false,
					"internalType": "string",
					"name": "distance",
					"type": "string"
				},
				{
					"indexed": false,
					"internalType": "string",
					"name": "nights",
					"type": "string"
				},
				{
					"indexed": false,
					"internalType": "uint256",
					"name": "flightEmission",
					"type": "uint256"
				},
				{
					"indexed": false,
					"internalType": "uint256",
					"name": "hotelEmission",
					"type": "uint256"
				},
				{
					"indexed": false,
					"internalType": "uint256",
					"name": "travelEmission",
					"type": "uint256"
				},
				{
					"indexed": false,
					"internalType": "address",
					"name": "buyer",
					"type": "address"
				}
			],
			"name": "TravelCarbonFootprintOffset",
			"type": "event"
		},
		{
			"inputs": [],
			"name": "CARBON_CALCULATOR_ADDRESS",
			"outputs": [
				{
					"internalType": "address",
					"name": "",
					"type": "address"
				}
			],
			"stateMutability": "view",
			"type": "function"
		},
		{
			"inputs": [],
			"name": "CARBON_CERTIFICATE_ADDRESS",
			"outputs": [
				{
					"internalType": "address",
					"name": "",
					"type": "address"
				}
			],
			"stateMutability": "view",
			"type": "function"
		},
		{
			"inputs": [],
			"name": "CARBON_COMMUNICATOR_ADDRESS",
			"outputs": [
				{
					"internalType": "address",
					"name": "",
					"type": "address"
				}
			],
			"stateMutability": "view",
			"type": "function"
		},
		{
			"inputs": [],
			"name": "CARBON_RECEIVER_ADDRESS",
			"outputs": [
				{
					"internalType": "address",
					"name": "",
					"type": "address"
				}
			],
			"stateMutability": "view",
			"type": "function"
		},
		{
			"inputs": [],
			"name": "EPNS_COMM_ADDRESS",
			"outputs": [
				{
					"internalType": "address",
					"name": "",
					"type": "address"
				}
			],
			"stateMutability": "view",
			"type": "function"
		},
		{
			"inputs": [],
			"name": "TCO2FaucetExtense",
			"outputs": [
				{
					"internalType": "contract ITCO2Faucet",
					"name": "",
					"type": "address"
				}
			],
			"stateMutability": "view",
			"type": "function"
		},
		{
			"inputs": [],
			"name": "TCO2TokenExtense",
			"outputs": [
				{
					"internalType": "contract ITCO2Token",
					"name": "",
					"type": "address"
				}
			],
			"stateMutability": "view",
			"type": "function"
		},
		{
			"inputs": [],
			"name": "TCO2TokensInContract",
			"outputs": [
				{
					"internalType": "uint256",
					"name": "",
					"type": "uint256"
				}
			],
			"stateMutability": "view",
			"type": "function"
		},
		{
			"inputs": [
				{
					"internalType": "address",
					"name": "owner",
					"type": "address"
				},
				{
					"internalType": "address",
					"name": "spender",
					"type": "address"
				}
			],
			"name": "allowance",
			"outputs": [
				{
					"internalType": "uint256",
					"name": "",
					"type": "uint256"
				}
			],
			"stateMutability": "view",
			"type": "function"
		},
		{
			"inputs": [
				{
					"internalType": "address",
					"name": "spender",
					"type": "address"
				},
				{
					"internalType": "uint256",
					"name": "value",
					"type": "uint256"
				}
			],
			"name": "approve",
			"outputs": [
				{
					"internalType": "bool",
					"name": "",
					"type": "bool"
				}
			],
			"stateMutability": "nonpayable",
			"type": "function"
		},
		{
			"inputs": [
				{
					"internalType": "address",
					"name": "account",
					"type": "address"
				}
			],
			"name": "balanceOf",
			"outputs": [
				{
					"internalType": "uint256",
					"name": "",
					"type": "uint256"
				}
			],
			"stateMutability": "view",
			"type": "function"
		},
		{
			"inputs": [
				{
					"internalType": "uint256",
					"name": "value",
					"type": "uint256"
				}
			],
			"name": "burn",
			"outputs": [],
			"stateMutability": "nonpayable",
			"type": "function"
		},
		{
			"inputs": [
				{
					"internalType": "address",
					"name": "account",
					"type": "address"
				},
				{
					"internalType": "uint256",
					"name": "value",
					"type": "uint256"
				}
			],
			"name": "burnFrom",
			"outputs": [],
			"stateMutability": "nonpayable",
			"type": "function"
		},
		{
			"inputs": [
				{
					"internalType": "address",
					"name": "_buyer",
					"type": "address"
				},
				{
					"internalType": "uint256",
					"name": "_amount",
					"type": "uint256"
				}
			],
			"name": "buyCarbonCredits",
			"outputs": [],
			"stateMutability": "nonpayable",
			"type": "function"
		},
		{
			"inputs": [
				{
					"internalType": "address",
					"name": "_buyer",
					"type": "address"
				},
				{
					"internalType": "uint256",
					"name": "_amount",
					"type": "uint256"
				},
				{
					"internalType": "address",
					"name": "_receiver",
					"type": "address"
				},
				{
					"internalType": "string",
					"name": "messageContent",
					"type": "string"
				},
				{
					"internalType": "uint64",
					"name": "_destinationChainSelector",
					"type": "uint64"
				}
			],
			"name": "buyCarbonCreditsCrosschain",
			"outputs": [],
			"stateMutability": "nonpayable",
			"type": "function"
		},
		{
			"inputs": [],
			"name": "carbonTokensBurned",
			"outputs": [
				{
					"internalType": "uint256",
					"name": "",
					"type": "uint256"
				}
			],
			"stateMutability": "view",
			"type": "function"
		},
		{
			"inputs": [
				{
					"internalType": "address",
					"name": "",
					"type": "address"
				}
			],
			"name": "carbonTokensBurnedPerUser",
			"outputs": [
				{
					"internalType": "uint256",
					"name": "",
					"type": "uint256"
				}
			],
			"stateMutability": "view",
			"type": "function"
		},
		{
			"inputs": [],
			"name": "carbonTokensMinted",
			"outputs": [
				{
					"internalType": "uint256",
					"name": "",
					"type": "uint256"
				}
			],
			"stateMutability": "view",
			"type": "function"
		},
		{
			"inputs": [],
			"name": "decimals",
			"outputs": [
				{
					"internalType": "uint8",
					"name": "",
					"type": "uint8"
				}
			],
			"stateMutability": "view",
			"type": "function"
		},
		{
			"inputs": [
				{
					"internalType": "bytes32",
					"name": "",
					"type": "bytes32"
				}
			],
			"name": "groceryRequests",
			"outputs": [
				{
					"internalType": "string",
					"name": "moneySpentProteins",
					"type": "string"
				},
				{
					"internalType": "string",
					"name": "moneySpentFats",
					"type": "string"
				},
				{
					"internalType": "string",
					"name": "moneySpentCarbs",
					"type": "string"
				},
				{
					"internalType": "uint256",
					"name": "proteinsEmission",
					"type": "uint256"
				},
				{
					"internalType": "uint256",
					"name": "fatsEmission",
					"type": "uint256"
				},
				{
					"internalType": "uint256",
					"name": "carbsEmission",
					"type": "uint256"
				},
				{
					"internalType": "uint256",
					"name": "foodEmission",
					"type": "uint256"
				},
				{
					"internalType": "address",
					"name": "buyer",
					"type": "address"
				}
			],
			"stateMutability": "view",
			"type": "function"
		},
		{
			"inputs": [],
			"name": "isMumbai",
			"outputs": [
				{
					"internalType": "bool",
					"name": "",
					"type": "bool"
				}
			],
			"stateMutability": "view",
			"type": "function"
		},
		{
			"inputs": [],
			"name": "name",
			"outputs": [
				{
					"internalType": "string",
					"name": "",
					"type": "string"
				}
			],
			"stateMutability": "view",
			"type": "function"
		},
		{
			"inputs": [
				{
					"internalType": "bytes32",
					"name": "_requestId",
					"type": "bytes32"
				},
				{
					"internalType": "string",
					"name": "_flag",
					"type": "string"
				},
				{
					"internalType": "string[]",
					"name": "_args",
					"type": "string[]"
				},
				{
					"internalType": "uint256[]",
					"name": "_returns",
					"type": "uint256[]"
				},
				{
					"internalType": "address",
					"name": "_buyer",
					"type": "address"
				},
				{
					"internalType": "string",
					"name": "_tokenURI",
					"type": "string"
				}
			],
			"name": "offsetCarbonFootprint",
			"outputs": [],
			"stateMutability": "nonpayable",
			"type": "function"
		},
		{
			"inputs": [],
			"name": "owner",
			"outputs": [
				{
					"internalType": "address",
					"name": "",
					"type": "address"
				}
			],
			"stateMutability": "view",
			"type": "function"
		},
		{
			"inputs": [],
			"name": "renounceOwnership",
			"outputs": [],
			"stateMutability": "nonpayable",
			"type": "function"
		},
		{
			"inputs": [
				{
					"internalType": "address",
					"name": "_buyer",
					"type": "address"
				},
				{
					"internalType": "uint256",
					"name": "_amount",
					"type": "uint256"
				},
				{
					"internalType": "string",
					"name": "_tokenURI",
					"type": "string"
				}
			],
			"name": "retireCarbonCredits",
			"outputs": [],
			"stateMutability": "nonpayable",
			"type": "function"
		},
		{
			"inputs": [
				{
					"internalType": "address",
					"name": "_buyer",
					"type": "address"
				},
				{
					"internalType": "uint256",
					"name": "_amount",
					"type": "uint256"
				},
				{
					"internalType": "string",
					"name": "_tokenURI",
					"type": "string"
				},
				{
					"internalType": "address",
					"name": "_receiver",
					"type": "address"
				},
				{
					"internalType": "string",
					"name": "messageContent",
					"type": "string"
				},
				{
					"internalType": "uint64",
					"name": "_destinationChainSelector",
					"type": "uint64"
				}
			],
			"name": "retireCarbonCreditsCrosschain",
			"outputs": [],
			"stateMutability": "nonpayable",
			"type": "function"
		},
		{
			"inputs": [],
			"name": "symbol",
			"outputs": [
				{
					"internalType": "string",
					"name": "",
					"type": "string"
				}
			],
			"stateMutability": "view",
			"type": "function"
		},
		{
			"inputs": [],
			"name": "totalSupply",
			"outputs": [
				{
					"internalType": "uint256",
					"name": "",
					"type": "uint256"
				}
			],
			"stateMutability": "view",
			"type": "function"
		},
		{
			"inputs": [
				{
					"internalType": "address",
					"name": "to",
					"type": "address"
				},
				{
					"internalType": "uint256",
					"name": "amount",
					"type": "uint256"
				}
			],
			"name": "transfer",
			"outputs": [
				{
					"internalType": "bool",
					"name": "",
					"type": "bool"
				}
			],
			"stateMutability": "nonpayable",
			"type": "function"
		},
		{
			"inputs": [
				{
					"internalType": "address",
					"name": "to",
					"type": "address"
				},
				{
					"internalType": "uint256",
					"name": "amount",
					"type": "uint256"
				},
				{
					"internalType": "address",
					"name": "_receiver",
					"type": "address"
				},
				{
					"internalType": "string",
					"name": "messageContent",
					"type": "string"
				},
				{
					"internalType": "uint64",
					"name": "destinationChainSelector",
					"type": "uint64"
				}
			],
			"name": "transferCrosschain",
			"outputs": [],
			"stateMutability": "nonpayable",
			"type": "function"
		},
		{
			"inputs": [
				{
					"internalType": "address",
					"name": "from",
					"type": "address"
				},
				{
					"internalType": "address",
					"name": "to",
					"type": "address"
				},
				{
					"internalType": "uint256",
					"name": "amount",
					"type": "uint256"
				}
			],
			"name": "transferFrom",
			"outputs": [
				{
					"internalType": "bool",
					"name": "",
					"type": "bool"
				}
			],
			"stateMutability": "nonpayable",
			"type": "function"
		},
		{
			"inputs": [
				{
					"internalType": "address",
					"name": "from",
					"type": "address"
				},
				{
					"internalType": "address",
					"name": "to",
					"type": "address"
				},
				{
					"internalType": "uint256",
					"name": "amount",
					"type": "uint256"
				},
				{
					"internalType": "address",
					"name": "_receiver",
					"type": "address"
				},
				{
					"internalType": "string",
					"name": "messageContent",
					"type": "string"
				},
				{
					"internalType": "uint64",
					"name": "destinationChainSelector",
					"type": "uint64"
				}
			],
			"name": "transferFromCrosschain",
			"outputs": [],
			"stateMutability": "nonpayable",
			"type": "function"
		},
		{
			"inputs": [
				{
					"internalType": "address",
					"name": "newOwner",
					"type": "address"
				}
			],
			"name": "transferOwnership",
			"outputs": [],
			"stateMutability": "nonpayable",
			"type": "function"
		},
		{
			"inputs": [
				{
					"internalType": "bytes32",
					"name": "",
					"type": "bytes32"
				}
			],
			"name": "travelRequests",
			"outputs": [
				{
					"internalType": "string",
					"name": "distance",
					"type": "string"
				},
				{
					"internalType": "string",
					"name": "nights",
					"type": "string"
				},
				{
					"internalType": "uint256",
					"name": "flightEmission",
					"type": "uint256"
				},
				{
					"internalType": "uint256",
					"name": "hotelEmission",
					"type": "uint256"
				},
				{
					"internalType": "uint256",
					"name": "travelEmission",
					"type": "uint256"
				},
				{
					"internalType": "address",
					"name": "buyer",
					"type": "address"
				}
			],
			"stateMutability": "view",
			"type": "function"
		},
		{
			"inputs": [
				{
					"internalType": "address",
					"name": "_buyer",
					"type": "address"
				},
				{
					"internalType": "uint256",
					"name": "_amount",
					"type": "uint256"
				},
				{
					"internalType": "string",
					"name": "_network",
					"type": "string"
				}
			],
			"name": "websocketBuyCarbonCredits",
			"outputs": [],
			"stateMutability": "nonpayable",
			"type": "function"
		},
		{
			"inputs": [
				{
					"internalType": "address",
					"name": "_buyer",
					"type": "address"
				},
				{
					"internalType": "uint256",
					"name": "_amount",
					"type": "uint256"
				},
				{
					"internalType": "string",
					"name": "_network",
					"type": "string"
				}
			],
			"name": "websocketRetireCarbonCredits",
			"outputs": [],
			"stateMutability": "nonpayable",
			"type": "function"
		},
		{
			"inputs": [
				{
					"internalType": "address",
					"name": "_from",
					"type": "address"
				},
				{
					"internalType": "address",
					"name": "_to",
					"type": "address"
				},
				{
					"internalType": "uint256",
					"name": "_amount",
					"type": "uint256"
				},
				{
					"internalType": "string",
					"name": "_network",
					"type": "string"
				}
			],
			"name": "websocketTransfer",
			"outputs": [],
			"stateMutability": "nonpayable",
			"type": "function"
		},
		{
			"inputs": [
				{
					"internalType": "address",
					"name": "_sender",
					"type": "address"
				},
				{
					"internalType": "address",
					"name": "_from",
					"type": "address"
				},
				{
					"internalType": "address",
					"name": "_to",
					"type": "address"
				},
				{
					"internalType": "uint256",
					"name": "_amount",
					"type": "uint256"
				},
				{
					"internalType": "string",
					"name": "_network",
					"type": "string"
				}
			],
			"name": "websocketTransferFrom",
			"outputs": [],
			"stateMutability": "nonpayable",
			"type": "function"
		},
		{
			"inputs": [],
			"name": "withdrawFunds",
			"outputs": [],
			"stateMutability": "nonpayable",
			"type": "function"
		},
		{
			"inputs": [],
			"name": "withdrawTCO2Tokens",
			"outputs": [],
			"stateMutability": "nonpayable",
			"type": "function"
		}
	],
	"transactionHash": "0x16f9cde23bc6adfeb472afcd64c4ec488710db141007c35d13a6d450a369265a",
	"args": [
		[
			"0x0000000000000000000000000000000000000000",
			"0x0000000000000000000000000000000000000000",
			"0x0000000000000000000000000000000000000000"
		],
		[
			"Certificate",
			"CERT",
			""
		],
		[
			"0x0000000000000000000000000000000000000000"
		],
		[
			"0xD0daae2231E9CB96b94C8512223533293C3693Bf",
			"0x779877A7B0D9E8603169DdbD7836e478b4624789"
		]
	],
	"numDeployments": 1,
	"solcInputHash": "9240b17789ae3f346c03730f8be3c950",
	"bytecode": "0x60806040523480156200001157600080fd5b50604051620091b0380380620091b083398101604081905262000034916200087b565b336040518060400160405280600681526020016531b0b93137b760d11b8152506040518060400160405280600681526020016521a0a92127a760d11b815250816003908162000084919062000a91565b50600462000093828262000a91565b5050506001600160a01b038116620000c657604051631e4fbdf760e01b8152600060048201526024015b60405180910390fd5b620000d18162000692565b5083516003146200012f5760405162461bcd60e51b815260206004820152602160248201527f5f636172626f6e417267732073686f756c64206265206f66206c656e677468206044820152603360f81b6064820152608401620000bd565b8251600314620001915760405162461bcd60e51b815260206004820152602660248201527f5f6365727469666963617465417267732073686f756c64206265206f66206c656044820152656e677468203360d01b6064820152608401620000bd565b8151600114620001f25760405162461bcd60e51b815260206004820152602560248201527f5f63616c63756c61746f72417267732073686f756c64206265206f66206c656e604482015264677468203160d81b6064820152608401620000bd565b8051600214620002555760405162461bcd60e51b815260206004820152602760248201527f5f636f6d6d756e696361746f72417267732073686f756c64206265206f66206c60448201526632b733ba34101960c91b6064820152608401620000bd565b620002e6846000815181106200026f576200026f62000b73565b602002602001015185600160028111156200028e576200028e62000b5d565b81518110620002a157620002a162000b73565b602002602001015186600280811115620002bf57620002bf62000b5d565b81518110620002d257620002d262000b73565b6020026020010151620006e460201b60201c565b6010805460ff1916911515919091179055836000815181106200030d576200030d62000b73565b6020908102919091010151600680546001600160a01b0319166001600160a01b03909216919091179055836001815181106200034d576200034d62000b73565b6020908102919091010151600780546001600160a01b0319166001600160a01b03909216919091179055836002815181106200038d576200038d62000b73565b6020908102919091010151600880546001600160a01b0319166001600160a01b039092169190911790556000838181518110620003ce57620003ce62000b73565b60200260200101518460016002811115620003ed57620003ed62000b5d565b8151811062000400576200040062000b73565b6020026020010151856002808111156200041e576200041e62000b5d565b8151811062000431576200043162000b73565b6020026020010151604051620004479062000724565b620004559392919062000bb7565b604051809103906000f08015801562000472573d6000803e3d6000fd5b50600980546001600160a01b0319166001600160a01b03831617905560105490915060ff16156200051f576000838181518110620004b457620004b462000b73565b6020026020010151604051620004ca9062000732565b6001600160a01b039091168152602001604051809103906000f080158015620004f7573d6000803e3d6000fd5b50600a80546001600160a01b0319166001600160a01b03929092169190911790555062000530565b600a80546001600160a01b03191690555b600082818151811062000547576200054762000b73565b60200260200101518360018081111562000565576200056562000b5d565b8151811062000578576200057862000b73565b60200260200101516040516200058e9062000740565b6001600160a01b03928316815291166020820152604001604051809103906000f080158015620005c2573d6000803e3d6000fd5b5090506000838181518110620005dc57620005dc62000b73565b602002602001015184600180811115620005fa57620005fa62000b5d565b815181106200060d576200060d62000b73565b602002602001015160405162000623906200074e565b6001600160a01b03928316815291166020820152604001604051809103906000f08015801562000657573d6000803e3d6000fd5b50600b80546001600160a01b039485166001600160a01b031991821617909155600c8054929094169116179091555062000c00945050505050565b600580546001600160a01b038381166001600160a01b0319831681179093556040519116919082907f8be0079c531659141344cd1fd0a4f28419497f9722a3daafe3b4186f6b6457e090600090a35050565b60006001600160a01b038416158015906200070757506001600160a01b03831615155b80156200071c57506001600160a01b03821615155b949350505050565b611a7c80620042ee83390190565b61229a8062005d6a83390190565b61074e806200800483390190565b610a5e806200875283390190565b634e487b7160e01b600052604160045260246000fd5b604051601f8201601f191681016001600160401b03811182821017156200079d576200079d6200075c565b604052919050565b60006001600160401b03821115620007c157620007c16200075c565b5060051b60200190565b600082601f830112620007dd57600080fd5b81516020620007f6620007f083620007a5565b62000772565b82815260059290921b840181019181810190868411156200081657600080fd5b8286015b848110156200084a5780516001600160a01b03811681146200083c5760008081fd5b83529183019183016200081a565b509695505050505050565b60005b838110156200087257818101518382015260200162000858565b50506000910152565b600080600080608085870312156200089257600080fd5b84516001600160401b0380821115620008aa57600080fd5b620008b888838901620007cb565b9550602091508187015181811115620008d057600080fd5b8701601f81018913620008e257600080fd5b8051620008f3620007f082620007a5565b81815260059190911b8201840190848101908b8311156200091357600080fd5b8584015b83811015620009a6578051868111156200093057600080fd5b8501603f81018e136200094257600080fd5b87810151878111156200095957620009596200075c565b6200096d601f8201601f19168a0162000772565b8181528f6040838501011115620009845760008081fd5b62000996828b83016040860162000855565b8552505091860191860162000917565b5060408b0151909850945050505080821115620009c257600080fd5b620009d088838901620007cb565b93506060870151915080821115620009e757600080fd5b50620009f687828801620007cb565b91505092959194509250565b600181811c9082168062000a1757607f821691505b60208210810362000a3857634e487b7160e01b600052602260045260246000fd5b50919050565b601f82111562000a8c57600081815260208120601f850160051c8101602086101562000a675750805b601f850160051c820191505b8181101562000a885782815560010162000a73565b5050505b505050565b81516001600160401b0381111562000aad5762000aad6200075c565b62000ac58162000abe845462000a02565b8462000a3e565b602080601f83116001811462000afd576000841562000ae45750858301515b600019600386901b1c1916600185901b17855562000a88565b600085815260208120601f198616915b8281101562000b2e5788860151825594840194600190910190840162000b0d565b508582101562000b4d5787850151600019600388901b60f8161c191681555b5050505050600190811b01905550565b634e487b7160e01b600052602160045260246000fd5b634e487b7160e01b600052603260045260246000fd5b6000815180845262000ba381602086016020860162000855565b601f01601f19169290920160200192915050565b60608152600062000bcc606083018662000b89565b828103602084015262000be0818662000b89565b9050828103604084015262000bf6818562000b89565b9695505050505050565b6136de8062000c106000396000f3fe608060405234801561001057600080fd5b50600436106102525760003560e01c80637f09248411610146578063c37964bd116100c3578063dd62ed3e11610087578063dd62ed3e1461051d578063e75ad11514610556578063ec65464414610569578063ef0ae1e21461057c578063f2fde38b14610589578063f990336e1461059c57600080fd5b8063c37964bd146104d2578063c71340bb146104db578063cd4c42cf146104ee578063d8f1d72414610501578063da66aed11461050a57600080fd5b80638f3510511161010a5780638f3510511461047157806391a89a291461049157806395d89b41146104a4578063a594043f146104ac578063a9059cbb146104bf57600080fd5b80637f0924841461040b578063839e19d91461041e578063847dd730146104455780638a5b44b3146104585780638da5cb5b1461046057600080fd5b8063313ce567116101d4578063503ec1a611610198578063503ec1a6146103a157806370a08231146103b4578063715018a6146103dd57806379cc6790146103e55780637a49b1af146103f857600080fd5b8063313ce5671461034657806338bbdf7c1461035557806342966c681461036857806348a3b4a41461037b5780634da2d12a1461038e57600080fd5b806318160ddd1161021b57806318160ddd146102e557806322a0bb6b146102ed57806323b872dd1461031857806324600fc31461032b5780632e427f041461033357600080fd5b8062d6f1fc1461025757806306fdde03146102735780630904f58614610288578063095ea7b31461029d57806314444130146102c0575b600080fd5b610260600f5481565b6040519081526020015b60405180910390f35b61027b6105af565b60405161026a919061295c565b61029b610296366004612a1e565b610641565b005b6102b06102ab366004612b01565b610c8e565b604051901515815260200161026a565b6102d36102ce366004612b2b565b610ca8565b60405161026a96959493929190612b44565b600254610260565b600754610300906001600160a01b031681565b6040516001600160a01b03909116815260200161026a565b6102b0610326366004612b98565b610df6565b61029b610ef1565b61029b610341366004612c76565b610f86565b6040516012815260200161026a565b61029b610363366004612ccc565b6111f0565b61029b610376366004612b2b565b611261565b600854610300906001600160a01b031681565b600a54610300906001600160a01b031681565b61029b6103af366004612d5b565b61126b565b6102606103c2366004612dd3565b6001600160a01b031660009081526020819052604090205490565b61029b6112da565b61029b6103f3366004612b01565b6112ee565b61029b610406366004612dee565b611307565b600954610300906001600160a01b031681565b61043161042c366004612b2b565b61136d565b60405161026a989796959493929190612e55565b61029b610453366004612ec6565b61154f565b61029b611970565b6005546001600160a01b0316610300565b61026061047f366004612dd3565b60116020526000908152604090205481565b600654610300906001600160a01b031681565b61027b611a99565b61029b6104ba366004612d5b565b611aa8565b6102b06104cd366004612b01565b611b8f565b610260600e5481565b61029b6104e9366004612f1f565b611c64565b600c54610300906001600160a01b031681565b610260600d5481565b600b54610300906001600160a01b031681565b61026061052b366004612fbc565b6001600160a01b03918216600090815260016020908152604080832093909416825291909152205490565b61029b610564366004612b01565b611e41565b61029b610577366004612c76565b612026565b6010546102b09060ff1681565b61029b610597366004612dd3565b61214a565b61029b6105aa366004612fef565b612185565b6060600380546105be9061305b565b80601f01602080910402602001604051908101604052809291908181526020018280546105ea9061305b565b80156106375780601f1061060c57610100808354040283529160200191610637565b820191906000526020600020905b81548152906001019060200180831161061a57829003601f168201915b5050505050905090565b61069e89898080601f016020809104026020016040519081016040528093929190818152602001838380828437600092019190915250506040805180820190915260068152651d1c985d995b60d21b602082015291506121f49050565b156108f4576040805160c08101909152600090808989848181106106c4576106c4613095565b90506020028101906106d691906130ab565b8080601f0160208091040260200160405190810160405280939291908181526020018383808284376000920191909152505050908252506020018989600181811061072357610723613095565b905060200281019061073591906130ab565b8080601f01602080910402602001604051908101604052809392919081815260200183838082843760009201829052509385525050602090920191508890889081811061078457610784613095565b6020908102929092013583525001878760018181106107a5576107a5613095565b6020908102929092013583525001878760028181106107c6576107c6613095565b905060200201358152602001856001600160a01b0316815250905080601260008d8152602001908152602001600020600082015181600001908161080a9190613137565b506020820151600182019061081f9082613137565b5060408201518160020155606082015181600301556080820151816004015560a08201518160050160006101000a8154816001600160a01b0302191690836001600160a01b031602179055509050506108808160a001518260800151611e41565b6108948160a001518260800151858561154f565b8a7f7c81b460a6b12a2e4a87588702b99415c687cce28884559cc2d0fd1947d16817826000015183602001518460400151856060015186608001518760a001516040516108e696959493929190612b44565b60405180910390a250610c82565b61095289898080601f0160208091040260200160405190810160405280939291908181526020018383808284376000920191909152505060408051808201909152600781526667726f6365727960c81b602082015291506121f49050565b15610c46576040805161010081019091526000908089898481811061097957610979613095565b905060200281019061098b91906130ab565b8080601f016020809104026020016040519081016040528093929190818152602001838380828437600092019190915250505090825250602001898960018181106109d8576109d8613095565b90506020028101906109ea91906130ab565b8080601f01602080910402602001604051908101604052809392919081815260200183838082843760009201919091525050509082525060200189896002818110610a3757610a37613095565b9050602002810190610a4991906130ab565b8080601f016020809104026020016040519081016040528093929190818152602001838380828437600092018290525093855250506020909201915088908890818110610a9857610a98613095565b602090810292909201358352500187876001818110610ab957610ab9613095565b602090810292909201358352500187876002818110610ada57610ada613095565b602090810292909201358352500187876003818110610afb57610afb613095565b905060200201358152602001856001600160a01b0316815250905080601360008d81526020019081526020016000206000820151816000019081610b3f9190613137565b5060208201516001820190610b549082613137565b5060408201516002820190610b699082613137565b50606082015181600301556080820151816004015560a0820151816005015560c0820151816006015560e08201518160070160006101000a8154816001600160a01b0302191690836001600160a01b03160217905550905050610bd48160e001518260c00151611e41565b610be88160e001518260c00151858561154f565b8a7fbd10a9db6369936f36a7ea3c03e87509cf540e7505da28668ee8d80ce52ea30d826000015183602001518460400151856060015186608001518760a001518860c001518960e001516040516108e6989796959493929190612e55565b60405162461bcd60e51b815260206004820152600c60248201526b496e76616c696420666c616760a01b60448201526064015b60405180910390fd5b50505050505050505050565b600033610c9c81858561224d565b60019150505b92915050565b601260205260009081526040902080548190610cc39061305b565b80601f0160208091040260200160405190810160405280929190818152602001828054610cef9061305b565b8015610d3c5780601f10610d1157610100808354040283529160200191610d3c565b820191906000526020600020905b815481529060010190602001808311610d1f57829003601f168201915b505050505090806001018054610d519061305b565b80601f0160208091040260200160405190810160405280929190818152602001828054610d7d9061305b565b8015610dca5780601f10610d9f57610100808354040283529160200191610dca565b820191906000526020600020905b815481529060010190602001808311610dad57829003601f168201915b50505050600283015460038401546004850154600590950154939491939092506001600160a01b031686565b600033610e0485828561225a565b610e0f8585856122d2565b60105460ff1615610ee6576008546001600160a01b039081169063ba3d69d79073aa7880db88d8e051428b5204817e58d8327340de908790610e52908616612331565b610e7560125b610e669060ff16600a6132f0565b610e70908a6132fc565b612347565b604051602001610e8692919061331e565b6040516020818303038152906040526040518463ffffffff1660e01b8152600401610eb3939291906133c3565b600060405180830381600087803b158015610ecd57600080fd5b505af1158015610ee1573d6000803e3d6000fd5b505050505b506001949350505050565b610ef96123d9565b604051600090339047908381818185875af1925050503d8060008114610f3b576040519150601f19603f3d011682016040523d82523d6000602084013e610f40565b606091505b5050905080610f835760405162461bcd60e51b815260206004820152600f60248201526e151c985b9cd9995c8819985a5b1959608a1b6044820152606401610c79565b50565b610f8e6123d9565b60105460ff16156111a35781600d541061101d57600754604051633790cf5760e01b8152600481018490526001600160a01b0390911690633790cf5790602401600060405180830381600087803b158015610fe857600080fd5b505af1158015610ffc573d6000803e3d6000fd5b5050505081600d600082825461101291906133f8565b909155506110fc9050565b6000600d548361102d91906133f8565b60065460075460405163f3fef3a360e01b81526001600160a01b03918216600482015260248101849052929350169063f3fef3a390604401600060405180830381600087803b15801561107f57600080fd5b505af1158015611093573d6000803e3d6000fd5b5050600754604051633790cf5760e01b8152600481018790526001600160a01b039091169250633790cf579150602401600060405180830381600087803b1580156110dd57600080fd5b505af11580156110f1573d6000803e3d6000fd5b50506000600d555050505b81600e600082825461110e91906133f8565b9250508190555081600f6000828254611127919061340b565b90915550506001600160a01b0383166000908152601160205260408120805484929061115490849061340b565b92505081905550826001600160a01b03167f81922118eca999dcafa898334e01c58229aff44a338931381c49f0465346539b838360405161119692919061341e565b60405180910390a2505050565b60405162461bcd60e51b815260206004820181905260248201527f4f6e6c79204d756d626169206e6574776f726b20697320737570706f727465646044820152606401610c79565b505050565b6111f86123d9565b6112028383612406565b826001600160a01b0316846001600160a01b0316866001600160a01b03167f88e4b21d5a0c212e3297b81e5dad2fefc35b12f90e918c5cd95fd75b02198cf8858560405161125192919061341e565b60405180910390a45b5050505050565b610f83338261243c565b600b54604051630570b31f60e41b81526001600160a01b039091169063570b31f09061129f90869086908690600401613437565b600060405180830381600087803b1580156112b957600080fd5b505af11580156112cd573d6000803e3d6000fd5b5050505061125a84611261565b6112e26123d9565b6112ec6000612472565b565b6112f982338361225a565b611303828261243c565b5050565b61130f6123d9565b6113198383612406565b826001600160a01b0316846001600160a01b03167fee856043119fb693ceb04fc8ace1c8d0e73785a353c12c41f4cf50eeee05bcfb848460405161135e92919061341e565b60405180910390a35b50505050565b6013602052600090815260409020805481906113889061305b565b80601f01602080910402602001604051908101604052809291908181526020018280546113b49061305b565b80156114015780601f106113d657610100808354040283529160200191611401565b820191906000526020600020905b8154815290600101906020018083116113e457829003601f168201915b5050505050908060010180546114169061305b565b80601f01602080910402602001604051908101604052809291908181526020018280546114429061305b565b801561148f5780601f106114645761010080835404028352916020019161148f565b820191906000526020600020905b81548152906001019060200180831161147257829003601f168201915b5050505050908060020180546114a49061305b565b80601f01602080910402602001604051908101604052809291908181526020018280546114d09061305b565b801561151d5780601f106114f25761010080835404028352916020019161151d565b820191906000526020600020905b81548152906001019060200180831161150057829003601f168201915b50505060038401546004850154600586015460068701546007909701549596929591945092506001600160a01b031688565b60105460ff16156111a3576000831161157a5760405162461bcd60e51b8152600401610c7990613474565b6001600160a01b0384166000908152602081905260409020548311156115e25760405162461bcd60e51b815260206004820152601a60248201527f496e73756666696369656e7420434152424f4e20746f6b656e730000000000006044820152606401610c79565b82600d541061166657600754604051633790cf5760e01b8152600481018590526001600160a01b0390911690633790cf5790602401600060405180830381600087803b15801561163157600080fd5b505af1158015611645573d6000803e3d6000fd5b5050505082600d600082825461165b91906133f8565b909155506117459050565b6000600d548461167691906133f8565b60065460075460405163f3fef3a360e01b81526001600160a01b03918216600482015260248101849052929350169063f3fef3a390604401600060405180830381600087803b1580156116c857600080fd5b505af11580156116dc573d6000803e3d6000fd5b5050600754604051633790cf5760e01b8152600481018890526001600160a01b039091169250633790cf579150602401600060405180830381600087803b15801561172657600080fd5b505af115801561173a573d6000803e3d6000fd5b50506000600d555050505b82600e600082825461175791906133f8565b9250508190555082600f6000828254611770919061340b565b90915550506001600160a01b0384166000908152601160205260408120805485929061179d90849061340b565b909155506117ac905083611261565b6009546040516339a0c6f960e01b81526001600160a01b03909116906339a0c6f9906117de90859085906004016134ab565b600060405180830381600087803b1580156117f857600080fd5b505af115801561180c573d6000803e3d6000fd5b50506009546040516340d097c360e01b81526001600160a01b0388811660048301526000945090911691506340d097c3906024016020604051808303816000875af115801561185f573d6000803e3d6000fd5b505050506040513d601f19601f8201168201806040525081019061188391906134da565b6008549091506001600160a01b031663ba3d69d773aa7880db88d8e051428b5204817e58d8327340de876118b76012610e58565b6040516020016118c791906134f3565b6040516020818303038152906040526040518463ffffffff1660e01b81526004016118f4939291906133c3565b600060405180830381600087803b15801561190e57600080fd5b505af1158015611922573d6000803e3d6000fd5b505060408051878152602081018590526001600160a01b03891693507fd01c6570076b5796ea5b39d13cb939955b5d2ec43f5ba7ee52e6cd5613823aad92500160405180910390a250611367565b6119786123d9565b6007546040516370a0823160e01b81523060048201526000916001600160a01b0316906370a0823190602401602060405180830381865afa1580156119c1573d6000803e3d6000fd5b505050506040513d601f19601f820116820180604052508101906119e591906134da565b60075460405163a9059cbb60e01b8152336004820152602481018390529192506001600160a01b03169063a9059cbb906044016020604051808303816000875af1158015611a37573d6000803e3d6000fd5b505050506040513d601f19601f82011682018060405250810190611a5b91906135b4565b610f835760405162461bcd60e51b815260206004820152600f60248201526e151c985b9cd9995c8819985a5b1959608a1b6044820152606401610c79565b6060600480546105be9061305b565b60105460ff16611b475760008411611ad25760405162461bcd60e51b8152600401610c7990613474565b600b54604051630570b31f60e41b81526001600160a01b039091169063570b31f090611b0690869086908690600401613437565b600060405180830381600087803b158015611b2057600080fd5b505af1158015611b34573d6000803e3d6000fd5b50505050611b428585612406565b61125a565b60405162461bcd60e51b815260206004820152601f60248201527f4e6f7420737570706f7274656420696e204d756d626169206e6574776f726b006044820152606401610c79565b600033611b9d8185856122d2565b60105460ff1615610c9c576008546001600160a01b039081169063ba3d69d79073aa7880db88d8e051428b5204817e58d8327340de908790611be0908616612331565b611bea6012610e58565b604051602001611bfb92919061331e565b6040516020818303038152906040526040518463ffffffff1660e01b8152600401611c28939291906133c3565b600060405180830381600087803b158015611c4257600080fd5b505af1158015611c56573d6000803e3d6000fd5b506001979650505050505050565b60105460ff16611b475760008511611c8e5760405162461bcd60e51b8152600401610c7990613474565b6001600160a01b038616600090815260208190526040902054851115611cf65760405162461bcd60e51b815260206004820152601a60248201527f496e73756666696369656e7420434152424f4e20746f6b656e730000000000006044820152606401610c79565b600b54604051630570b31f60e41b81526001600160a01b039091169063570b31f090611d2a90869086908690600401613437565b600060405180830381600087803b158015611d4457600080fd5b505af1158015611d58573d6000803e3d6000fd5b50505050611d6585611261565b6009546040516339a0c6f960e01b81526001600160a01b03909116906339a0c6f990611d9590879060040161295c565b600060405180830381600087803b158015611daf57600080fd5b505af1158015611dc3573d6000803e3d6000fd5b50506009546040516340d097c360e01b81526001600160a01b038a8116600483015290911692506340d097c391506024016020604051808303816000875af1158015611e13573d6000803e3d6000fd5b505050506040513d601f19601f82011682018060405250810190611e3791906134da565b505b505050505050565b60105460ff16156111a35760008111611e6c5760405162461bcd60e51b8152600401610c7990613474565b600081600e54611e7c919061340b565b905080600d541015611f1b576000600d5482611e9891906133f8565b60065460075460405163f3fef3a360e01b81526001600160a01b03918216600482015260248101849052929350169063f3fef3a390604401600060405180830381600087803b158015611eea57600080fd5b505af1158015611efe573d6000803e3d6000fd5b5050505080600d6000828254611f14919061340b565b9091555050505b611f258383612406565b81600e6000828254611f37919061340b565b90915550506008546001600160a01b031663ba3d69d773aa7880db88d8e051428b5204817e58d8327340de85611f7c611f726012600a6132f0565b610e7090886132fc565b604051602001611f8c91906135d6565b6040516020818303038152906040526040518463ffffffff1660e01b8152600401611fb9939291906133c3565b600060405180830381600087803b158015611fd357600080fd5b505af1158015611fe7573d6000803e3d6000fd5b50505050826001600160a01b03167fa46287cd6870c6d05612bb95b96833337e1e8a0ccea8be539c860dee7ac5f6e18360405161119691815260200190565b61202e6123d9565b60105460ff16156111a357600082600e54612049919061340b565b905080600d5410156120e8576000600d548261206591906133f8565b60065460075460405163f3fef3a360e01b81526001600160a01b03918216600482015260248101849052929350169063f3fef3a390604401600060405180830381600087803b1580156120b757600080fd5b505af11580156120cb573d6000803e3d6000fd5b5050505080600d60008282546120e1919061340b565b9091555050505b82600e60008282546120fa919061340b565b92505081905550836001600160a01b03167f6ee9dc1b621cc255e9671ca38c1a3d6719f132baaad1b1a28ae29f1da70483ee848460405161213c92919061341e565b60405180910390a250505050565b6121526123d9565b6001600160a01b03811661217c57604051631e4fbdf760e01b815260006004820152602401610c79565b610f8381612472565b600b54604051630570b31f60e41b81526001600160a01b039091169063570b31f0906121b990869086908690600401613437565b600060405180830381600087803b1580156121d357600080fd5b505af11580156121e7573d6000803e3d6000fd5b50505050611e3984611261565b600081604051602001612207919061365e565b604051602081830303815290604052805190602001208360405160200161222e919061365e565b6040516020818303038152906040528051906020012014905092915050565b6111eb83838360016124c4565b6001600160a01b03838116600090815260016020908152604080832093861683529290522054600019811461136757818110156122c357604051637dc7a0d960e11b81526001600160a01b03841660048201526024810182905260448101839052606401610c79565b611367848484840360006124c4565b6001600160a01b0383166122fc57604051634b637e8f60e11b815260006004820152602401610c79565b6001600160a01b0382166123265760405163ec442f0560e01b815260006004820152602401610c79565b6111eb83838361258b565b6060610ca26001600160a01b03831660146126b5565b6060600061235483612834565b60010190506000816001600160401b0381111561237357612373612bd4565b6040519080825280601f01601f19166020018201604052801561239d576020820181803683370190505b5090508181016020015b600019016f181899199a1a9b1b9c1cb0b131b232b360811b600a86061a8153600a85049450846123a757509392505050565b6005546001600160a01b031633146112ec5760405163118cdaa760e01b8152336004820152602401610c79565b6001600160a01b0382166124305760405163ec442f0560e01b815260006004820152602401610c79565b6113036000838361258b565b6001600160a01b03821661246657604051634b637e8f60e11b815260006004820152602401610c79565b6113038260008361258b565b600580546001600160a01b038381166001600160a01b0319831681179093556040519116919082907f8be0079c531659141344cd1fd0a4f28419497f9722a3daafe3b4186f6b6457e090600090a35050565b6001600160a01b0384166124ee5760405163e602df0560e01b815260006004820152602401610c79565b6001600160a01b03831661251857604051634a1406b160e11b815260006004820152602401610c79565b6001600160a01b038085166000908152600160209081526040808320938716835292905220829055801561136757826001600160a01b0316846001600160a01b03167f8c5be1e5ebec7d5bd14f71427d1e84f3dd0314c0f7b2291e5b200ac8c7c3b9258460405161135e91815260200190565b6001600160a01b0383166125b65780600260008282546125ab919061340b565b909155506126289050565b6001600160a01b038316600090815260208190526040902054818110156126095760405163391434e360e21b81526001600160a01b03851660048201526024810182905260448101839052606401610c79565b6001600160a01b03841660009081526020819052604090209082900390555b6001600160a01b03821661264457600280548290039055612663565b6001600160a01b03821660009081526020819052604090208054820190555b816001600160a01b0316836001600160a01b03167fddf252ad1be2c89b69c2b068fc378daa952ba7f163c4a11628f55a4df523b3ef836040516126a891815260200190565b60405180910390a3505050565b60608260006126c584600261367a565b6126d090600261340b565b6001600160401b038111156126e7576126e7612bd4565b6040519080825280601f01601f191660200182016040528015612711576020820181803683370190505b509050600360fc1b8160008151811061272c5761272c613095565b60200101906001600160f81b031916908160001a905350600f60fb1b8160018151811061275b5761275b613095565b60200101906001600160f81b031916908160001a905350600061277f85600261367a565b61278a90600161340b565b90505b6001811115612802576f181899199a1a9b1b9c1cb0b131b232b360811b83600f16601081106127be576127be613095565b1a60f81b8282815181106127d4576127d4613095565b60200101906001600160f81b031916908160001a90535060049290921c916127fb81613691565b905061278d565b50811561282c5760405163e22e27eb60e01b81526004810186905260248101859052604401610c79565b949350505050565b60008072184f03e93ff9f4daa797ed6e38ed64bf6a1f0160401b83106128735772184f03e93ff9f4daa797ed6e38ed64bf6a1f0160401b830492506040015b6d04ee2d6d415b85acef8100000000831061289f576d04ee2d6d415b85acef8100000000830492506020015b662386f26fc1000083106128bd57662386f26fc10000830492506010015b6305f5e10083106128d5576305f5e100830492506008015b61271083106128e957612710830492506004015b606483106128fb576064830492506002015b600a8310610ca25760010192915050565b60005b8381101561292757818101518382015260200161290f565b50506000910152565b6000815180845261294881602086016020860161290c565b601f01601f19169290920160200192915050565b60208152600061296f6020830184612930565b9392505050565b60008083601f84011261298857600080fd5b5081356001600160401b0381111561299f57600080fd5b6020830191508360208285010111156129b757600080fd5b9250929050565b60008083601f8401126129d057600080fd5b5081356001600160401b038111156129e757600080fd5b6020830191508360208260051b85010111156129b757600080fd5b80356001600160a01b0381168114612a1957600080fd5b919050565b60008060008060008060008060008060c08b8d031215612a3d57600080fd5b8a35995060208b01356001600160401b0380821115612a5b57600080fd5b612a678e838f01612976565b909b50995060408d0135915080821115612a8057600080fd5b612a8c8e838f016129be565b909950975060608d0135915080821115612aa557600080fd5b612ab18e838f016129be565b9097509550859150612ac560808e01612a02565b945060a08d0135915080821115612adb57600080fd5b50612ae88d828e01612976565b915080935050809150509295989b9194979a5092959850565b60008060408385031215612b1457600080fd5b612b1d83612a02565b946020939093013593505050565b600060208284031215612b3d57600080fd5b5035919050565b60c081526000612b5760c0830189612930565b8281036020840152612b698189612930565b60408401979097525050606081019390935260808301919091526001600160a01b031660a09091015292915050565b600080600060608486031215612bad57600080fd5b612bb684612a02565b9250612bc460208501612a02565b9150604084013590509250925092565b634e487b7160e01b600052604160045260246000fd5b600082601f830112612bfb57600080fd5b81356001600160401b0380821115612c1557612c15612bd4565b604051601f8301601f19908116603f01168101908282118183101715612c3d57612c3d612bd4565b81604052838152866020858801011115612c5657600080fd5b836020870160208301376000602085830101528094505050505092915050565b600080600060608486031215612c8b57600080fd5b612c9484612a02565b92506020840135915060408401356001600160401b03811115612cb657600080fd5b612cc286828701612bea565b9150509250925092565b600080600080600060a08688031215612ce457600080fd5b612ced86612a02565b9450612cfb60208701612a02565b9350612d0960408701612a02565b92506060860135915060808601356001600160401b03811115612d2b57600080fd5b612d3788828901612bea565b9150509295509295909350565b80356001600160401b0381168114612a1957600080fd5b600080600080600060a08688031215612d7357600080fd5b612d7c86612a02565b945060208601359350612d9160408701612a02565b925060608601356001600160401b03811115612dac57600080fd5b612db888828901612bea565b925050612dc760808701612d44565b90509295509295909350565b600060208284031215612de557600080fd5b61296f82612a02565b60008060008060808587031215612e0457600080fd5b612e0d85612a02565b9350612e1b60208601612a02565b92506040850135915060608501356001600160401b03811115612e3d57600080fd5b612e4987828801612bea565b91505092959194509250565b6000610100808352612e698184018c612930565b90508281036020840152612e7d818b612930565b90508281036040840152612e91818a612930565b60608401989098525050608081019490945260a084019290925260c08301526001600160a01b031660e0909101529392505050565b60008060008060608587031215612edc57600080fd5b612ee585612a02565b93506020850135925060408501356001600160401b03811115612f0757600080fd5b612f1387828801612976565b95989497509550505050565b60008060008060008060c08789031215612f3857600080fd5b612f4187612a02565b95506020870135945060408701356001600160401b0380821115612f6457600080fd5b612f708a838b01612bea565b9550612f7e60608a01612a02565b94506080890135915080821115612f9457600080fd5b50612fa189828a01612bea565b925050612fb060a08801612d44565b90509295509295509295565b60008060408385031215612fcf57600080fd5b612fd883612a02565b9150612fe660208401612a02565b90509250929050565b60008060008060008060c0878903121561300857600080fd5b61301187612a02565b955061301f60208801612a02565b94506040870135935061303460608801612a02565b925060808701356001600160401b0381111561304f57600080fd5b612fa189828a01612bea565b600181811c9082168061306f57607f821691505b60208210810361308f57634e487b7160e01b600052602260045260246000fd5b50919050565b634e487b7160e01b600052603260045260246000fd5b6000808335601e198436030181126130c257600080fd5b8301803591506001600160401b038211156130dc57600080fd5b6020019150368190038213156129b757600080fd5b601f8211156111eb57600081815260208120601f850160051c810160208610156131185750805b601f850160051c820191505b81811015611e3957828155600101613124565b81516001600160401b0381111561315057613150612bd4565b6131648161315e845461305b565b846130f1565b602080601f83116001811461319957600084156131815750858301515b600019600386901b1c1916600185901b178555611e39565b600085815260208120601f198616915b828110156131c8578886015182559484019460019091019084016131a9565b50858210156131e65787850151600019600388901b60f8161c191681555b5050505050600190811b01905550565b634e487b7160e01b600052601160045260246000fd5b600181815b8085111561324757816000190482111561322d5761322d6131f6565b8085161561323a57918102915b93841c9390800290613211565b509250929050565b60008261325e57506001610ca2565b8161326b57506000610ca2565b8160018114613281576002811461328b576132a7565b6001915050610ca2565b60ff84111561329c5761329c6131f6565b50506001821b610ca2565b5060208310610133831016604e8410600b84101617156132ca575081810a610ca2565b6132d4838361320c565b80600019048211156132e8576132e86131f6565b029392505050565b600061296f838361324f565b60008261331957634e487b7160e01b600052601260045260246000fd5b500490565b600360fc1b81526000602b60f81b806001840152603360f81b600284015280600384015268436f6e67726174732160b81b600484015280600d84015250835161336e81600e85016020880161290c565b6c0103a3930b739b332b93932b21609d1b600e91840191820152835161339b81601b84016020880161290c565b6e20434152424f4e20746f20796f752160881b601b9290910191820152602a01949350505050565b6001600160a01b038481168252831660208201526060604082018190526000906133ef90830184612930565b95945050505050565b81810381811115610ca257610ca26131f6565b80820180821115610ca257610ca26131f6565b82815260406020820152600061282c6040830184612930565b6001600160a01b038416815260606020820181905260009061345b90830185612930565b90506001600160401b0383166040830152949350505050565b6020808252601f908201527f416d6f756e742073686f756c642062652067726561746572207468616e203000604082015260600190565b60208152816020820152818360408301376000818301604090810191909152601f909201601f19160101919050565b6000602082840312156134ec57600080fd5b5051919050565b600360fc1b81526000602b60f81b806001840152603360f81b600284015280600384015268436f6e67726174732160b81b600484015280600d840152507f596f75206a75737420726563656976656420616e206f66667365742063657274600e83015268034b334b1b0ba3290960bd1b602e8301526f02cb7bab91037b33339b2ba103bb0b9960851b6037830152825161359481604785016020870161290c565b6820434f3220546f6e7360b81b6047939091019283015250605001919050565b6000602082840312156135c657600080fd5b8151801515811461296f57600080fd5b600360fc1b81526000602b60f81b806001840152603360f81b600284015280600384015268436f6e67726174732160b81b600484015280600d840152506f02cb7ba90353ab9ba103137bab3b43a160851b600e830152825161363f81601e85016020870161290c565b6720434152424f4e2160c01b601e939091019283015250602601919050565b6000825161367081846020870161290c565b9190910192915050565b8082028115828204841417610ca257610ca26131f6565b6000816136a0576136a06131f6565b50600019019056fea264697066735822122020a1c74350909b4f65a649766ad50d70f3fa3864909511fb1cd317e451932aba64736f6c6343000814003360806040523480156200001157600080fd5b5060405162001a7c38038062001a7c8339810160408190526200003491620001c1565b3383836000620000458382620002e1565b506001620000548282620002e1565b5050506001600160a01b0381166200008657604051631e4fbdf760e01b81526000600482015260240160405180910390fd5b6200009181620000aa565b50600b620000a08282620002e1565b50505050620003ad565b600a80546001600160a01b038381166001600160a01b0319831681179093556040519116919082907f8be0079c531659141344cd1fd0a4f28419497f9722a3daafe3b4186f6b6457e090600090a35050565b634e487b7160e01b600052604160045260246000fd5b600082601f8301126200012457600080fd5b81516001600160401b0380821115620001415762000141620000fc565b604051601f8301601f19908116603f011681019082821181831017156200016c576200016c620000fc565b816040528381526020925086838588010111156200018957600080fd5b600091505b83821015620001ad57858201830151818301840152908201906200018e565b600093810190920192909252949350505050565b600080600060608486031215620001d757600080fd5b83516001600160401b0380821115620001ef57600080fd5b620001fd8783880162000112565b945060208601519150808211156200021457600080fd5b620002228783880162000112565b935060408601519150808211156200023957600080fd5b50620002488682870162000112565b9150509250925092565b600181811c908216806200026757607f821691505b6020821081036200028857634e487b7160e01b600052602260045260246000fd5b50919050565b601f821115620002dc57600081815260208120601f850160051c81016020861015620002b75750805b601f850160051c820191505b81811015620002d857828155600101620002c3565b5050505b505050565b81516001600160401b03811115620002fd57620002fd620000fc565b62000315816200030e845462000252565b846200028e565b602080601f8311600181146200034d5760008415620003345750858301515b600019600386901b1c1916600185901b178555620002d8565b600085815260208120601f198616915b828110156200037e578886015182559484019460019091019084016200035d565b50858210156200039d5787850151600019600388901b60f8161c191681555b5050505050600190811b01905550565b6116bf80620003bd6000396000f3fe608060405234801561001057600080fd5b506004361061014d5760003560e01c80636352211e116100c357806398bdf6f51161007c57806398bdf6f5146102ba578063a22cb465146102c3578063b88d4fde146102d6578063c87b56dd146102e9578063e985e9c5146102fc578063f2fde38b1461030f57600080fd5b80636352211e1461025357806370a0823114610266578063715018a6146102795780638462151c146102815780638da5cb5b146102a157806395d89b41146102b257600080fd5b806323b872dd1161011557806323b872dd146101e15780632f745c59146101f457806339a0c6f91461020757806340d097c31461021a57806342842e0e1461022d5780634f6ccce71461024057600080fd5b806301ffc9a71461015257806306fdde031461017a578063081812fc1461018f578063095ea7b3146101ba57806318160ddd146101cf575b600080fd5b61016561016036600461111d565b610322565b60405190151581526020015b60405180910390f35b610182610333565b6040516101719190611187565b6101a261019d36600461119a565b6103c5565b6040516001600160a01b039091168152602001610171565b6101cd6101c83660046111ca565b6103ee565b005b6008545b604051908152602001610171565b6101cd6101ef3660046111f4565b610433565b6101d36102023660046111ca565b61047b565b6101cd6102153660046112bc565b6104e0565b6101d3610228366004611305565b6104f8565b6101cd61023b3660046111f4565b61052b565b6101d361024e36600461119a565b61054b565b6101a261026136600461119a565b6105a4565b6101d3610274366004611305565b6105af565b6101cd6105f7565b61029461028f366004611305565b61060b565b6040516101719190611320565b600a546001600160a01b03166101a2565b610182610739565b6101d3600c5481565b6101cd6102d1366004611394565b610748565b6101cd6102e43660046113d0565b610790565b6101826102f736600461119a565b6107d8565b61016561030a36600461144c565b610876565b6101cd61031d366004611305565b6108a4565b600061032d826108e2565b92915050565b6060600080546103429061147f565b80601f016020809104026020016040519081016040528092919081815260200182805461036e9061147f565b80156103bb5780601f10610390576101008083540402835291602001916103bb565b820191906000526020600020905b81548152906001019060200180831161039e57829003601f168201915b5050505050905090565b60006103d082610907565b506000828152600460205260409020546001600160a01b031661032d565b60405162461bcd60e51b8152602060048201526015602482015274105c1c1c9bdd99481a5cdb89dd08185b1b1bddd959605a1b60448201526064015b60405180910390fd5b60405162461bcd60e51b815260206004820152601a60248201527f7472616e7366657246726f6d2069736e277420616c6c6f776564000000000000604482015260640161042a565b6000610486836105af565b82106104b75760405163295f44f760e21b81526001600160a01b03841660048201526024810183905260440161042a565b506001600160a01b03919091166000908152600660209081526040808320938352929052205490565b6104e8610940565b600b6104f48282611501565b5050565b6000610502610940565b600c80549081906000610514836115d7565b9190505550610523838261096d565b90505b919050565b61054683838360405180602001604052806000815250610790565b505050565b600061055660085490565b821061057f5760405163295f44f760e21b8152600060048201526024810183905260440161042a565b60088281548110610592576105926115f0565b90600052602060002001549050919050565b600061032d82610907565b60006001600160a01b0382166105db576040516322718ad960e21b81526000600482015260240161042a565b506001600160a01b031660009081526003602052604090205490565b6105ff610940565b6106096000610987565b565b60606000610618836105af565b905080600003610668576040805160008082526020820190925290610660565b6040805180820190915260008152606060208201528152602001906001900390816106385790505b509392505050565b60008167ffffffffffffffff81111561068357610683611230565b6040519080825280602002602001820160405280156106c957816020015b6040805180820190915260008152606060208201528152602001906001900390816106a15790505b50905060005b828110156106605760006106e3868361047b565b905060405180604001604052808281526020016106ff836107d8565b815250838381518110610714576107146115f0565b602002602001018190525050808061072b906115d7565b9150506106cf565b50919050565b6060600180546103429061147f565b60405162461bcd60e51b815260206004820152601f60248201527f736574417070726f76616c466f72416c6c2069736e277420616c6c6f77656400604482015260640161042a565b60405162461bcd60e51b815260206004820152601e60248201527f736166655472616e7366657246726f6d2069736e277420616c6c6f7765640000604482015260640161042a565b60606107e382610907565b50600b80546107f19061147f565b80601f016020809104026020016040519081016040528092919081815260200182805461081d9061147f565b801561086a5780601f1061083f5761010080835404028352916020019161086a565b820191906000526020600020905b81548152906001019060200180831161084d57829003601f168201915b50505050509050919050565b6001600160a01b03918216600090815260056020908152604080832093909416825291909152205460ff1690565b6108ac610940565b6001600160a01b0381166108d657604051631e4fbdf760e01b81526000600482015260240161042a565b6108df81610987565b50565b60006001600160e01b0319821663780e9d6360e01b148061032d575061032d826109d9565b6000818152600260205260408120546001600160a01b03168061052357604051637e27328960e01b81526004810184905260240161042a565b600a546001600160a01b031633146106095760405163118cdaa760e01b815233600482015260240161042a565b6104f4828260405180602001604052806000815250610a29565b600a80546001600160a01b038381166001600160a01b0319831681179093556040519116919082907f8be0079c531659141344cd1fd0a4f28419497f9722a3daafe3b4186f6b6457e090600090a35050565b60006001600160e01b031982166380ac58cd60e01b1480610a0a57506001600160e01b03198216635b5e139f60e01b145b8061032d57506301ffc9a760e01b6001600160e01b031983161461032d565b610a338383610a40565b6105466000848484610aa5565b6001600160a01b038216610a6a57604051633250574960e11b81526000600482015260240161042a565b6000610a7883836000610bcf565b90506001600160a01b03811615610546576040516339e3563760e11b81526000600482015260240161042a565b6001600160a01b0383163b15610bc957604051630a85bd0160e11b81526001600160a01b0384169063150b7a0290610ae7903390889087908790600401611606565b6020604051808303816000875af1925050508015610b22575060408051601f3d908101601f19168201909252610b1f91810190611643565b60015b610b8b573d808015610b50576040519150601f19603f3d011682016040523d82523d6000602084013e610b55565b606091505b508051600003610b8357604051633250574960e11b81526001600160a01b038516600482015260240161042a565b805181602001fd5b6001600160e01b03198116630a85bd0160e11b14610bc757604051633250574960e11b81526001600160a01b038516600482015260240161042a565b505b50505050565b6000610bdc848484610be4565b949350505050565b600080610bf2858585610cb1565b90506001600160a01b038116610c4f57610c4a84600880546000838152600960205260408120829055600182018355919091527ff3f7a9fe364faab93b216da50a3214154f22a0a2b415b23a84c8169e8b636ee30155565b610c72565b846001600160a01b0316816001600160a01b031614610c7257610c728185610daa565b6001600160a01b038516610c8e57610c8984610e3b565b610bdc565b846001600160a01b0316816001600160a01b031614610bdc57610bdc8585610eea565b6000828152600260205260408120546001600160a01b0390811690831615610cde57610cde818486610f3a565b6001600160a01b03811615610d1c57610cfb600085600080610f9e565b6001600160a01b038116600090815260036020526040902080546000190190555b6001600160a01b03851615610d4b576001600160a01b0385166000908152600360205260409020805460010190555b60008481526002602052604080822080546001600160a01b0319166001600160a01b0389811691821790925591518793918516917fddf252ad1be2c89b69c2b068fc378daa952ba7f163c4a11628f55a4df523b3ef91a4949350505050565b6000610db5836105af565b600083815260076020526040902054909150808214610e08576001600160a01b03841660009081526006602090815260408083208584528252808320548484528184208190558352600790915290208190555b5060009182526007602090815260408084208490556001600160a01b039094168352600681528383209183525290812055565b600854600090610e4d90600190611660565b60008381526009602052604081205460088054939450909284908110610e7557610e756115f0565b906000526020600020015490508060088381548110610e9657610e966115f0565b6000918252602080832090910192909255828152600990915260408082208490558582528120556008805480610ece57610ece611673565b6001900381819060005260206000200160009055905550505050565b60006001610ef7846105af565b610f019190611660565b6001600160a01b039093166000908152600660209081526040808320868452825280832085905593825260079052919091209190915550565b610f458383836110a4565b610546576001600160a01b038316610f7357604051637e27328960e01b81526004810182905260240161042a565b60405163177e802f60e01b81526001600160a01b03831660048201526024810182905260440161042a565b8080610fb257506001600160a01b03821615155b15611074576000610fc284610907565b90506001600160a01b03831615801590610fee5750826001600160a01b0316816001600160a01b031614155b80156110015750610fff8184610876565b155b1561102a5760405163a9fbf51f60e01b81526001600160a01b038416600482015260240161042a565b81156110725783856001600160a01b0316826001600160a01b03167f8c5be1e5ebec7d5bd14f71427d1e84f3dd0314c0f7b2291e5b200ac8c7c3b92560405160405180910390a45b505b5050600090815260046020526040902080546001600160a01b0319166001600160a01b0392909216919091179055565b60006001600160a01b03831615801590610bdc5750826001600160a01b0316846001600160a01b031614806110de57506110de8484610876565b80610bdc5750506000908152600460205260409020546001600160a01b03908116911614919050565b6001600160e01b0319811681146108df57600080fd5b60006020828403121561112f57600080fd5b813561113a81611107565b9392505050565b6000815180845260005b818110156111675760208185018101518683018201520161114b565b506000602082860101526020601f19601f83011685010191505092915050565b60208152600061113a6020830184611141565b6000602082840312156111ac57600080fd5b5035919050565b80356001600160a01b038116811461052657600080fd5b600080604083850312156111dd57600080fd5b6111e6836111b3565b946020939093013593505050565b60008060006060848603121561120957600080fd5b611212846111b3565b9250611220602085016111b3565b9150604084013590509250925092565b634e487b7160e01b600052604160045260246000fd5b600067ffffffffffffffff8084111561126157611261611230565b604051601f8501601f19908116603f0116810190828211818310171561128957611289611230565b816040528093508581528686860111156112a257600080fd5b858560208301376000602087830101525050509392505050565b6000602082840312156112ce57600080fd5b813567ffffffffffffffff8111156112e557600080fd5b8201601f810184136112f657600080fd5b610bdc84823560208401611246565b60006020828403121561131757600080fd5b61113a826111b3565b60006020808301818452808551808352604092508286019150828160051b87010184880160005b8381101561138657888303603f1901855281518051845287015187840187905261137387850182611141565b9588019593505090860190600101611347565b509098975050505050505050565b600080604083850312156113a757600080fd5b6113b0836111b3565b9150602083013580151581146113c557600080fd5b809150509250929050565b600080600080608085870312156113e657600080fd5b6113ef856111b3565b93506113fd602086016111b3565b925060408501359150606085013567ffffffffffffffff81111561142057600080fd5b8501601f8101871361143157600080fd5b61144087823560208401611246565b91505092959194509250565b6000806040838503121561145f57600080fd5b611468836111b3565b9150611476602084016111b3565b90509250929050565b600181811c9082168061149357607f821691505b60208210810361073357634e487b7160e01b600052602260045260246000fd5b601f82111561054657600081815260208120601f850160051c810160208610156114da5750805b601f850160051c820191505b818110156114f9578281556001016114e6565b505050505050565b815167ffffffffffffffff81111561151b5761151b611230565b61152f81611529845461147f565b846114b3565b602080601f831160018114611564576000841561154c5750858301515b600019600386901b1c1916600185901b1785556114f9565b600085815260208120601f198616915b8281101561159357888601518255948401946001909101908401611574565b50858210156115b15787850151600019600388901b60f8161c191681555b5050505050600190811b01905550565b634e487b7160e01b600052601160045260246000fd5b6000600182016115e9576115e96115c1565b5060010190565b634e487b7160e01b600052603260045260246000fd5b6001600160a01b038581168252841660208201526040810183905260806060820181905260009061163990830184611141565b9695505050505050565b60006020828403121561165557600080fd5b815161113a81611107565b8181038181111561032d5761032d6115c1565b634e487b7160e01b600052603160045260246000fdfea264697066735822122095c9140e4b45c6b52a4e47a8dc7103f8c5c09def8f5ddd90917bb78b90daa66364736f6c6343000814003360a06040523480156200001157600080fd5b506040516200229a3803806200229a833981016040819052620000349162000180565b6001600160a01b0381166080523380600081620000985760405162461bcd60e51b815260206004820152601860248201527f43616e6e6f7420736574206f776e657220746f207a65726f000000000000000060448201526064015b60405180910390fd5b600080546001600160a01b0319166001600160a01b0384811691909117909155811615620000cb57620000cb81620000d5565b50505050620001b2565b336001600160a01b038216036200012f5760405162461bcd60e51b815260206004820152601760248201527f43616e6e6f74207472616e7366657220746f2073656c6600000000000000000060448201526064016200008f565b600180546001600160a01b0319166001600160a01b0383811691821790925560008054604051929316917fed8889f560326eb138920d842192f0eb3dd22b4f139c87a2c57538e05bae12789190a350565b6000602082840312156200019357600080fd5b81516001600160a01b0381168114620001ab57600080fd5b9392505050565b6080516120c5620001d5600039600081816101dc0152610ab601526120c56000f3fe608060405234801561001057600080fd5b50600436106100cf5760003560e01c80638da5cb5b1161008c578063bfc2e4fc11610066578063bfc2e4fc14610185578063f2fde38b14610198578063f3fa880e146101ab578063f9befbfd146101be57600080fd5b80638da5cb5b1461014a5780639681096f1461015b578063b1e217491461017c57600080fd5b80630ca76175146100d45780633944ea3a146100e95780634b0795a8146101075780634f5aae921461010f57806371e4dda61461011757806379ba509714610142575b600080fd5b6100e76100e2366004611779565b6101d1565b005b6100f1610255565b6040516100fe9190611835565b60405180910390f35b6100f16102e3565b6100f16102f0565b60055461012a906001600160a01b031681565b6040516001600160a01b0390911681526020016100fe565b6100e76102fd565b6000546001600160a01b031661012a565b61016e610169366004611878565b6103ac565b6040519081526020016100fe565b61016e60025481565b61016e610193366004611a36565b6103d0565b6100e76101a6366004611b6d565b6104d5565b61016e6101b9366004611b88565b6104e9565b6100f16101cc366004611b88565b61050a565b336001600160a01b037f0000000000000000000000000000000000000000000000000000000000000000161461021a5760405163c6829f8360e01b815260040160405180910390fd5b610225838383610535565b60405183907f85e1543bf2f84fe80c6badbce3648c8539ad1df4d2b3d822938ca0538be727e690600090a2505050565b6003805461026290611ba1565b80601f016020809104026020016040519081016040528092919081815260200182805461028e90611ba1565b80156102db5780601f106102b0576101008083540402835291602001916102db565b820191906000526020600020905b8154815290600101906020018083116102be57829003601f168201915b505050505081565b6004805461026290611ba1565b6006805461026290611ba1565b6001546001600160a01b031633146103555760405162461bcd60e51b815260206004820152601660248201527526bab9ba10313290383937b837b9b2b21037bbb732b960511b60448201526064015b60405180910390fd5b60008054336001600160a01b0319808316821784556001805490911690556040516001600160a01b0390921692909183917f8be0079c531659141344cd1fd0a4f28419497f9722a3daafe3b4186f6b6457e091a350565b60006103b6610a5c565b6103c285858585610ab1565b600281905595945050505050565b60006104136040805160e0810190915280600081526020016000815260200160008152602001606081526020016060815260200160608152602001606081525090565b61041d818c610b83565b8951156104335761042e818b610b94565b61044d565b6001600160401b0388161561044d5761044d818a8a610bc5565b86511561045e5761045e8188610c5b565b85511561046f5761046f8187610c85565b600580546001600160a01b0319166001600160a01b038f1617905560066104968d82611c29565b5086516104aa9060079060208a0190611586565b506104bf6104b782610caf565b868686610ab1565b60028190559d9c50505050505050505050505050565b6104dd610a5c565b6104e681610f87565b50565b600881815481106104f957600080fd5b600091825260209091200154905081565b6007818154811061051a57600080fd5b90600052602060002001600091509050805461026290611ba1565b826002541461055a5760405163d068bf5b60e01b81526004810184905260240161034c565b6000825111801561061857506106186006805461057690611ba1565b80601f01602080910402602001604051908101604052809291908181526020018280546105a290611ba1565b80156105ef5780601f106105c4576101008083540402835291602001916105ef565b820191906000526020600020905b8154815290600101906020018083116105d257829003601f168201915b5050505050604051806040016040528060068152602001651d1c985d995b60d21b815250611030565b15610795576000828060200190518101906106339190611ce8565b9050670de0b6b3a7640000600061064a8280611d17565b6106549084611d44565b90506106608280611d17565b61066a9084611d58565b925060006106788385611d44565b90506106848385611d58565b6040805160038082526080820190925291955085919060208201606080368337505081516106b99260089250602001906115dc565b508260086000815481106106cf576106cf611d6c565b90600052602060002001819055508160086001815481106106f2576106f2611d6c565b906000526020600020018190555080600860028154811061071557610715611d6c565b600091825260209091200155600361072d8882611c29565b50600461073a8782611c29565b5060055460405189917fb46213618301da6493e4eb9418f3bbb39dd63885882b661a3113d2f042413b3c91610783916006916007916008916001600160a01b0390911690611dff565b60405180910390a25050505050610a1b565b600082511180156108545750610854600680546107b190611ba1565b80601f01602080910402602001604051908101604052809291908181526020018280546107dd90611ba1565b801561082a5780601f106107ff5761010080835404028352916020019161082a565b820191906000526020600020905b81548152906001019060200180831161080d57829003601f168201915b50505050506040518060400160405280600781526020016667726f6365727960c81b815250611030565b15610a1b5760008280602001905181019061086f9190611ce8565b9050670de0b6b3a76400006000816108878180611d17565b6108919190611d17565b61089b9084611d44565b9050816108a88180611d17565b6108b29190611d17565b6108bc9084611d58565b925060006108ca8380611d17565b6108d49085611d44565b90506108e08380611d17565b6108ea9085611d58565b935060006108f88486611d44565b90506109048486611d58565b60408051600480825260a0820190925291965086919060208201608080368337505081516109399260089250602001906115dc565b5083600860008154811061094f5761094f611d6c565b906000526020600020018190555082600860018154811061097257610972611d6c565b906000526020600020018190555081600860028154811061099557610995611d6c565b90600052602060002001819055508060086003815481106109b8576109b8611d6c565b6000918252602090912001556005546040518a917fb46213618301da6493e4eb9418f3bbb39dd63885882b661a3113d2f042413b3c91610a0c916006916007916008916001600160a01b0390911690611dff565b60405180910390a25050505050505b827f7873807bf6ddc50401cd3d29bbe0decee23fd4d68d273f4b5eb83cded4d2f17260036004604051610a4f929190611ec0565b60405180910390a2505050565b6000546001600160a01b03163314610aaf5760405162461bcd60e51b815260206004820152601660248201527527b7363c9031b0b63630b1363290313c9037bbb732b960511b604482015260640161034c565b565b6000807f00000000000000000000000000000000000000000000000000000000000000006001600160a01b031663461d27628688600188886040518663ffffffff1660e01b8152600401610b09959493929190611ee5565b6020604051808303816000875af1158015610b28573d6000803e3d6000fd5b505050506040513d601f19601f82011682018060405250810190610b4c9190611ce8565b60405190915081907f1131472297a800fee664d1d89cfa8f7676ff07189ecc53f80bbb5f4969099db890600090a295945050505050565b610b90826000808461108a565b5050565b8051600003610bb65760405163e889636f60e01b815260040160405180910390fd5b60016020830152608090910152565b6000610bd2610100611108565b9050610c05604051806040016040528060068152602001651cdb1bdd125160d21b8152508261112990919063ffffffff16565b610c128160ff8516611147565b6040805180820190915260078152663b32b939b4b7b760c91b6020820152610c3b908290611129565b610c458183611147565b6002602085015251516080909301929092525050565b8051600003610c7d5760405163fe936cb760e01b815260040160405180910390fd5b60a090910152565b8051600003610ca75760405163fe936cb760e01b815260040160405180910390fd5b60c090910152565b60606000610cbe610100611108565b9050610cf76040518060400160405280600c81526020016b31b7b232a637b1b0ba34b7b760a11b8152508261112990919063ffffffff16565b8251610d15906002811115610d0e57610d0e611f2e565b8290611153565b6040805180820190915260088152676c616e677561676560c01b6020820152610d3f908290611129565b6040830151610d56908015610d0e57610d0e611f2e565b604080518082019091526006815265736f7572636560d01b6020820152610d7e908290611129565b6060830151610d8e908290611129565b60a08301515115610e22576040805180820190915260048152636172677360e01b6020820152610dbf908290611129565b610dc88161118c565b60005b8360a0015151811015610e1857610e088460a001518281518110610df157610df1611d6c565b60200260200101518361112990919063ffffffff16565b610e1181611f44565b9050610dcb565b50610e22816111b0565b60808301515115610ee657600083602001516002811115610e4557610e45611f2e565b03610e635760405163a80d31f760e01b815260040160405180910390fd5b60408051808201909152600f81526e39b2b1b932ba39a637b1b0ba34b7b760891b6020820152610e94908290611129565b610ead83602001516002811115610d0e57610d0e611f2e565b6040805180820190915260078152667365637265747360c81b6020820152610ed6908290611129565b6080830151610ee69082906111ce565b60c08301515115610f7f5760408051808201909152600981526862797465734172677360b81b6020820152610f1c908290611129565b610f258161118c565b60005b8360c0015151811015610f7557610f658460c001518281518110610f4e57610f4e611d6c565b6020026020010151836111ce90919063ffffffff16565b610f6e81611f44565b9050610f28565b50610f7f816111b0565b515192915050565b336001600160a01b03821603610fdf5760405162461bcd60e51b815260206004820152601760248201527f43616e6e6f74207472616e7366657220746f2073656c66000000000000000000604482015260640161034c565b600180546001600160a01b0319166001600160a01b0383811691821790925560008054604051929316917fed8889f560326eb138920d842192f0eb3dd22b4f139c87a2c57538e05bae12789190a350565b6000816040516020016110439190611f5d565b604051602081830303815290604052805190602001208360405160200161106a9190611f5d565b604051602081830303815290604052805190602001201490505b92915050565b80516000036110ac576040516322ce3edd60e01b815260040160405180910390fd5b838360028111156110bf576110bf611f2e565b908160028111156110d2576110d2611f2e565b905250604084018280156110e8576110e8611f2e565b908180156110f8576110f8611f2e565b9052506060909301929092525050565b611110611623565b805161111c90836111db565b5060006020820152919050565b6111368260038351611252565b81516111429082611371565b505050565b610b9082600083611252565b81516111609060c2611399565b50610b90828260405160200161117891815260200190565b6040516020818303038152906040526111ce565b611197816004611402565b6001816020018181516111aa9190611f79565b90525050565b6111bb816007611402565b6001816020018181516111aa9190611f8c565b6111368260028351611252565b6040805180820190915260608152600060208201526111fb602083611d58565b156112235761120b602083611d58565b611216906020611f8c565b6112209083611f79565b91505b60208084018390526040518085526000815290818401018181101561124757600080fd5b604052509192915050565b6017816001600160401b03161161127e5782516112789060e0600585901b168317611399565b50505050565b60ff816001600160401b0316116112be5782516112a6906018611fe0600586901b1617611399565b508251611278906001600160401b0383166001611419565b61ffff816001600160401b0316116112ff5782516112e7906019611fe0600586901b1617611399565b508251611278906001600160401b0383166002611419565b63ffffffff816001600160401b03161161134257825161132a90601a611fe0600586901b1617611399565b508251611278906001600160401b0383166004611419565b825161135990601b611fe0600586901b1617611399565b508251611278906001600160401b0383166008611419565b6040805180820190915260608152600060208201526113928383845161149e565b9392505050565b60408051808201909152606081526000602082015282515160006113be826001611f79565b9050846020015182106113df576113df856113da836002611d17565b61156f565b84516020838201018581535080518211156113f8578181525b5093949350505050565b815161114290601f611fe0600585901b1617611399565b604080518082019091526060815260006020820152835151600061143d8285611f79565b9050856020015181111561145a5761145a866113da836002611d17565b6000600161146a86610100612083565b6114749190611f8c565b90508651828101878319825116178152508051831115611492578281525b50959695505050505050565b60408051808201909152606081526000602082015282518211156114c157600080fd5b83515160006114d08483611f79565b905085602001518111156114ed576114ed866113da836002611d17565b855180518382016020019160009180851115611507578482525b505050602086015b602086106115475780518252611526602083611f79565b9150611533602082611f79565b9050611540602087611f8c565b955061150f565b51815160001960208890036101000a0190811690199190911617905250849150509392505050565b815161157b83836111db565b506112788382611371565b8280548282559060005260206000209081019282156115cc579160200282015b828111156115cc57825182906115bc9082611c29565b50916020019190600101906115a6565b506115d8929150611658565b5090565b828054828255906000526020600020908101928215611617579160200282015b828111156116175782518255916020019190600101906115fc565b506115d8929150611675565b604051806040016040528061164b604051806040016040528060608152602001600081525090565b8152602001600081525090565b808211156115d857600061166c828261168a565b50600101611658565b5b808211156115d85760008155600101611676565b50805461169690611ba1565b6000825580601f106116a6575050565b601f0160209004906000526020600020908101906104e69190611675565b634e487b7160e01b600052604160045260246000fd5b604051601f8201601f191681016001600160401b0381118282101715611702576117026116c4565b604052919050565b600082601f83011261171b57600080fd5b81356001600160401b03811115611734576117346116c4565b611747601f8201601f19166020016116da565b81815284602083860101111561175c57600080fd5b816020850160208301376000918101602001919091529392505050565b60008060006060848603121561178e57600080fd5b8335925060208401356001600160401b03808211156117ac57600080fd5b6117b88783880161170a565b935060408601359150808211156117ce57600080fd5b506117db8682870161170a565b9150509250925092565b60005b838110156118005781810151838201526020016117e8565b50506000910152565b600081518084526118218160208601602086016117e5565b601f01601f19169290920160200192915050565b6020815260006113926020830184611809565b80356001600160401b038116811461185f57600080fd5b919050565b803563ffffffff8116811461185f57600080fd5b6000806000806080858703121561188e57600080fd5b84356001600160401b038111156118a457600080fd5b6118b08782880161170a565b9450506118bf60208601611848565b92506118cd60408601611864565b9396929550929360600135925050565b80356001600160a01b038116811461185f57600080fd5b803560ff8116811461185f57600080fd5b60006001600160401b0382111561191e5761191e6116c4565b5060051b60200190565b600082601f83011261193957600080fd5b8135602061194e61194983611905565b6116da565b82815260059290921b8401810191818101908684111561196d57600080fd5b8286015b848110156119ac5780356001600160401b038111156119905760008081fd5b61199e8986838b010161170a565b845250918301918301611971565b509695505050505050565b600082601f8301126119c857600080fd5b813560206119d861194983611905565b82815260059290921b840181019181810190868411156119f757600080fd5b8286015b848110156119ac5780356001600160401b03811115611a1a5760008081fd5b611a288986838b010161170a565b8452509183019183016119fb565b60008060008060008060008060008060006101608c8e031215611a5857600080fd5b611a618c6118dd565b9a506001600160401b038060208e01351115611a7c57600080fd5b611a8c8e60208f01358f0161170a565b9a508060408e01351115611a9f57600080fd5b611aaf8e60408f01358f0161170a565b99508060608e01351115611ac257600080fd5b611ad28e60608f01358f0161170a565b9850611ae060808e016118f4565b9750611aee60a08e01611848565b96508060c08e01351115611b0157600080fd5b611b118e60c08f01358f01611928565b95508060e08e01351115611b2457600080fd5b50611b358d60e08e01358e016119b7565b9350611b446101008d01611848565b9250611b536101208d01611864565b91506101408c013590509295989b509295989b9093969950565b600060208284031215611b7f57600080fd5b611392826118dd565b600060208284031215611b9a57600080fd5b5035919050565b600181811c90821680611bb557607f821691505b602082108103611bd557634e487b7160e01b600052602260045260246000fd5b50919050565b601f82111561114257600081815260208120601f850160051c81016020861015611c025750805b601f850160051c820191505b81811015611c2157828155600101611c0e565b505050505050565b81516001600160401b03811115611c4257611c426116c4565b611c5681611c508454611ba1565b84611bdb565b602080601f831160018114611c8b5760008415611c735750858301515b600019600386901b1c1916600185901b178555611c21565b600085815260208120601f198616915b82811015611cba57888601518255948401946001909101908401611c9b565b5085821015611cd85787850151600019600388901b60f8161c191681555b5050505050600190811b01905550565b600060208284031215611cfa57600080fd5b5051919050565b634e487b7160e01b600052601160045260246000fd5b808202811582820484141761108457611084611d01565b634e487b7160e01b600052601260045260246000fd5b600082611d5357611d53611d2e565b500490565b600082611d6757611d67611d2e565b500690565b634e487b7160e01b600052603260045260246000fd5b60008154611d8f81611ba1565b808552602060018381168015611dac5760018114611dc657611df4565b60ff1985168884015283151560051b880183019550611df4565b866000528260002060005b85811015611dec5781548a8201860152908301908401611dd1565b890184019650505b505050505092915050565b608081526000611e126080830187611d82565b6020838203818501528187548084528284019150828160051b85010160008a8152848120815b84811015611e6557878403601f19018652611e538483611d82565b95870195935060019182019101611e38565b5050878203604089015289548083528a8252858220928601965093509091505b82811015611ea157815485529383019360019182019101611e85565b5050506001600160a01b03851660608501525090505b95945050505050565b604081526000611ed36040830185611d82565b8281036020840152611eb78185611d82565b6001600160401b038616815260a060208201526000611f0760a0830187611809565b61ffff9590951660408301525063ffffffff92909216606083015260809091015292915050565b634e487b7160e01b600052602160045260246000fd5b600060018201611f5657611f56611d01565b5060010190565b60008251611f6f8184602087016117e5565b9190910192915050565b8082018082111561108457611084611d01565b8181038181111561108457611084611d01565b600181815b80851115611fda578160001904821115611fc057611fc0611d01565b80851615611fcd57918102915b93841c9390800290611fa4565b509250929050565b600082611ff157506001611084565b81611ffe57506000611084565b8160018114612014576002811461201e5761203a565b6001915050611084565b60ff84111561202f5761202f611d01565b50506001821b611084565b5060208310610133831016604e8410600b841016171561205d575081810a611084565b6120678383611f9f565b806000190482111561207b5761207b611d01565b029392505050565b60006113928383611fe256fea264697066735822122077b7858f7a43bbeb0e5b5e8862bafc76c47991ebc528c16cae27dc348864b2b564736f6c63430008140033608060405234801561001057600080fd5b5060405161074e38038061074e83398101604081905261002f9161016d565b338061005557604051631e4fbdf760e01b81526000600482015260240160405180910390fd5b61005e81610101565b50600180546001600160a01b03199081166001600160a01b038581169182179093556002805490921692841692831790915560405163095ea7b360e01b81526004810191909152600019602482015263095ea7b3906044016020604051808303816000875af11580156100d5573d6000803e3d6000fd5b505050506040513d601f19601f820116820180604052508101906100f991906101a0565b5050506101c9565b600080546001600160a01b038381166001600160a01b0319831681178455604051919092169283917f8be0079c531659141344cd1fd0a4f28419497f9722a3daafe3b4186f6b6457e09190a35050565b80516001600160a01b038116811461016857600080fd5b919050565b6000806040838503121561018057600080fd5b61018983610151565b915061019760208401610151565b90509250929050565b6000602082840312156101b257600080fd5b815180151581146101c257600080fd5b9392505050565b610576806101d86000396000f3fe608060405234801561001057600080fd5b506004361061004c5760003560e01c8063570b31f014610051578063715018a6146100665780638da5cb5b1461006e578063f2fde38b1461008d575b600080fd5b61006461005f366004610300565b6100a0565b005b6100646101e2565b600054604080516001600160a01b039092168252519081900360200190f35b61006461009b3660046103d2565b6101f6565b6040805160a081019091526001600160a01b03841660c08201526000908060e081016040516020818303038152906040528152602001846040516020016100e7919061043a565b60408051601f198184030181529190528152602001600060405190808252806020026020018201604052801561014357816020015b604080518082019091526000808252602082015281526020019060019003908161011c5790505b5081526002546001600160a01b03908116602080840191909152604080519182018152600082529283015260015491516396f4e9f960e01b815292935016906396f4e9f990610198908590859060040161044d565b6020604051808303816000875af11580156101b7573d6000803e3d6000fd5b505050506040513d601f19601f820116820180604052508101906101db9190610527565b5050505050565b6101ea610239565b6101f46000610266565b565b6101fe610239565b6001600160a01b03811661022d57604051631e4fbdf760e01b8152600060048201526024015b60405180910390fd5b61023681610266565b50565b6000546001600160a01b031633146101f45760405163118cdaa760e01b8152336004820152602401610224565b600080546001600160a01b038381166001600160a01b0319831681178455604051919092169283917f8be0079c531659141344cd1fd0a4f28419497f9722a3daafe3b4186f6b6457e09190a35050565b80356001600160a01b03811681146102cd57600080fd5b919050565b634e487b7160e01b600052604160045260246000fd5b803567ffffffffffffffff811681146102cd57600080fd5b60008060006060848603121561031557600080fd5b61031e846102b6565b9250602084013567ffffffffffffffff8082111561033b57600080fd5b818601915086601f83011261034f57600080fd5b813581811115610361576103616102d2565b604051601f8201601f19908116603f01168101908382118183101715610389576103896102d2565b816040528281528960208487010111156103a257600080fd5b8260208601602083013760006020848301015280965050505050506103c9604085016102e8565b90509250925092565b6000602082840312156103e457600080fd5b6103ed826102b6565b9392505050565b6000815180845260005b8181101561041a576020818501810151868301820152016103fe565b506000602082860101526020601f19601f83011685010191505092915050565b6020815260006103ed60208301846103f4565b6000604067ffffffffffffffff8516835260208181850152845160a08386015261047a60e08601826103f4565b905081860151603f198087840301606088015261049783836103f4565b88860151888203830160808a01528051808352908601945060009350908501905b808410156104ea57845180516001600160a01b03168352860151868301529385019360019390930192908601906104b8565b5060608901516001600160a01b031660a08901526080890151888203830160c08a0152955061051981876103f4565b9a9950505050505050505050565b60006020828403121561053957600080fd5b505191905056fea2646970667358221220244ee0cd30b7d67f464e529c28037e348a67cf483780eafe7a8cf35122f6993d64736f6c6343000814003360a060405234801561001057600080fd5b50604051610a5e380380610a5e83398101604081905261002f91610121565b816001600160a01b03811661005e576040516335fdcccd60e21b81526000600482015260240160405180910390fd5b6001600160a01b03908116608052600180548383166001600160a01b0319918216811790925560008054938616939091168317905560405163095ea7b360e01b8152600481019290925260001960248301529063095ea7b3906044016020604051808303816000875af11580156100d9573d6000803e3d6000fd5b505050506040513d601f19601f820116820180604052508101906100fd9190610154565b50505061017d565b80516001600160a01b038116811461011c57600080fd5b919050565b6000806040838503121561013457600080fd5b61013d83610105565b915061014b60208401610105565b90509250929050565b60006020828403121561016657600080fd5b8151801515811461017657600080fd5b9392505050565b6080516108c061019e6000396000818160b001526101cb01526108c06000f3fe608060405234801561001057600080fd5b50600436106100575760003560e01c806301ffc9a71461005c57806334a077981461008457806385572ffb14610099578063b0f479a1146100ae578063e1214815146100e8575b600080fd5b61006f61006a3660046102c2565b6100fb565b60405190151581526020015b60405180910390f35b61008c610132565b60405161007b9190610317565b6100ac6100a736600461034a565b6101c0565b005b7f00000000000000000000000000000000000000000000000000000000000000005b6040516001600160a01b03909116815260200161007b565b6002546100d0906001600160a01b031681565b60006001600160e01b031982166385572ffb60e01b148061012c57506001600160e01b031982166301ffc9a760e01b145b92915050565b6003805461013f90610385565b80601f016020809104026020016040519081016040528092919081815260200182805461016b90610385565b80156101b85780601f1061018d576101008083540402835291602001916101b8565b820191906000526020600020905b81548152906001019060200180831161019b57829003601f168201915b505050505081565b336001600160a01b037f0000000000000000000000000000000000000000000000000000000000000000161461020f576040516335fdcccd60e21b815233600482015260240160405180910390fd5b61022061021b826105af565b610223565b50565b806040015180602001905181019061023b919061065c565b600260006101000a8154816001600160a01b0302191690836001600160a01b0316021790555080606001518060200190518101906102799190610679565b600390610286908261073f565b507fc96e84c3d3c9d81f3c5ffefc52940ba337cc31f09385e2944799fbb78d536d0960036040516102b791906107ff565b60405180910390a150565b6000602082840312156102d457600080fd5b81356001600160e01b0319811681146102ec57600080fd5b9392505050565b60005b8381101561030e5781810151838201526020016102f6565b50506000910152565b60208152600082518060208401526103368160408501602087016102f3565b601f01601f19169190910160400192915050565b60006020828403121561035c57600080fd5b813567ffffffffffffffff81111561037357600080fd5b820160a081850312156102ec57600080fd5b600181811c9082168061039957607f821691505b6020821081036103b957634e487b7160e01b600052602260045260246000fd5b50919050565b634e487b7160e01b600052604160045260246000fd5b6040805190810167ffffffffffffffff811182821017156103f8576103f86103bf565b60405290565b60405160a0810167ffffffffffffffff811182821017156103f8576103f86103bf565b604051601f8201601f1916810167ffffffffffffffff8111828210171561044a5761044a6103bf565b604052919050565b803567ffffffffffffffff8116811461046a57600080fd5b919050565b600067ffffffffffffffff821115610489576104896103bf565b50601f01601f191660200190565b600082601f8301126104a857600080fd5b81356104bb6104b68261046f565b610421565b8181528460208386010111156104d057600080fd5b816020850160208301376000918101602001919091529392505050565b6001600160a01b038116811461022057600080fd5b600082601f83011261051357600080fd5b8135602067ffffffffffffffff82111561052f5761052f6103bf565b61053d818360051b01610421565b82815260069290921b8401810191818101908684111561055c57600080fd5b8286015b848110156105a457604081890312156105795760008081fd5b6105816103d5565b813561058c816104ed565b81528185013585820152835291830191604001610560565b509695505050505050565b600060a082360312156105c157600080fd5b6105c96103fe565b823581526105d960208401610452565b6020820152604083013567ffffffffffffffff808211156105f957600080fd5b61060536838701610497565b6040840152606085013591508082111561061e57600080fd5b61062a36838701610497565b6060840152608085013591508082111561064357600080fd5b5061065036828601610502565b60808301525092915050565b60006020828403121561066e57600080fd5b81516102ec816104ed565b60006020828403121561068b57600080fd5b815167ffffffffffffffff8111156106a257600080fd5b8201601f810184136106b357600080fd5b80516106c16104b68261046f565b8181528560208385010111156106d657600080fd5b6106e78260208301602086016102f3565b95945050505050565b601f82111561073a57600081815260208120601f850160051c810160208610156107175750805b601f850160051c820191505b8181101561073657828155600101610723565b5050505b505050565b815167ffffffffffffffff811115610759576107596103bf565b61076d816107678454610385565b846106f0565b602080601f8311600181146107a2576000841561078a5750858301515b600019600386901b1c1916600185901b178555610736565b600085815260208120601f198616915b828110156107d1578886015182559484019460019091019084016107b2565b50858210156107ef5787850151600019600388901b60f8161c191681555b5050505050600190811b01905550565b600060208083526000845461081381610385565b80848701526040600180841660008114610834576001811461084e5761087c565b60ff1985168984015283151560051b89018301955061087c565b896000528660002060005b858110156108745781548b8201860152908301908801610859565b8a0184019650505b50939897505050505050505056fea2646970667358221220530ae7b9c74cae9c13568db38a88f65b2c6a4f1c6e8cf2654bedbe1567736ea364736f6c63430008140033",
	"devdoc": {
		"errors": {
			"ERC20InsufficientAllowance(address,uint256,uint256)": [
				{
					"details": "Indicates a failure with the `spender`s `allowance`. Used in transfers.",
					"params": {
						"allowance": "Amount of tokens a `spender` is allowed to operate with.",
						"needed": "Minimum amount required to perform a transfer.",
						"spender": "Address that may be allowed to operate on tokens without being their owner."
					}
				}
			],
			"ERC20InsufficientBalance(address,uint256,uint256)": [
				{
					"details": "Indicates an error related to the current `balance` of a `sender`. Used in transfers.",
					"params": {
						"balance": "Current balance for the interacting account.",
						"needed": "Minimum amount required to perform a transfer.",
						"sender": "Address whose tokens are being transferred."
					}
				}
			],
			"ERC20InvalidApprover(address)": [
				{
					"details": "Indicates a failure with the `approver` of a token to be approved. Used in approvals.",
					"params": {
						"approver": "Address initiating an approval operation."
					}
				}
			],
			"ERC20InvalidReceiver(address)": [
				{
					"details": "Indicates a failure with the token `receiver`. Used in transfers.",
					"params": {
						"receiver": "Address to which tokens are being transferred."
					}
				}
			],
			"ERC20InvalidSender(address)": [
				{
					"details": "Indicates a failure with the token `sender`. Used in transfers.",
					"params": {
						"sender": "Address whose tokens are being transferred."
					}
				}
			],
			"ERC20InvalidSpender(address)": [
				{
					"details": "Indicates a failure with the `spender` to be approved. Used in approvals.",
					"params": {
						"spender": "Address that may be allowed to operate on tokens without being their owner."
					}
				}
			],
			"OwnableInvalidOwner(address)": [
				{
					"details": "The owner is not a valid owner account. (eg. `address(0)`)"
				}
			],
			"OwnableUnauthorizedAccount(address)": [
				{
					"details": "The caller account is not authorized to perform an operation."
				}
			],
			"StringsInsufficientHexLength(uint256,uint256)": [
				{
					"details": "The `value` string doesn't fit in the specified `length`."
				}
			]
		},
		"events": {
			"Approval(address,address,uint256)": {
				"details": "Emitted when the allowance of a `spender` for an `owner` is set by a call to {approve}. `value` is the new allowance."
			},
			"Transfer(address,address,uint256)": {
				"details": "Emitted when `value` tokens are moved from one account (`from`) to another (`to`). Note that `value` may be zero."
			}
		},
		"kind": "dev",
		"methods": {
			"allowance(address,address)": {
				"details": "See {IERC20-allowance}."
			},
			"approve(address,uint256)": {
				"details": "See {IERC20-approve}. NOTE: If `value` is the maximum `uint256`, the allowance is not updated on `transferFrom`. This is semantically equivalent to an infinite approval. Requirements: - `spender` cannot be the zero address."
			},
			"balanceOf(address)": {
				"details": "See {IERC20-balanceOf}."
			},
			"burn(uint256)": {
				"details": "Destroys a `value` amount of tokens from the caller. See {ERC20-_burn}."
			},
			"burnFrom(address,uint256)": {
				"details": "Destroys a `value` amount of tokens from `account`, deducting from the caller's allowance. See {ERC20-_burn} and {ERC20-allowance}. Requirements: - the caller must have allowance for ``accounts``'s tokens of at least `value`."
			},
			"decimals()": {
				"details": "Returns the number of decimals used to get its user representation. For example, if `decimals` equals `2`, a balance of `505` tokens should be displayed to a user as `5.05` (`505 / 10 ** 2`). Tokens usually opt for a value of 18, imitating the relationship between Ether and Wei. This is the default value returned by this function, unless it's overridden. NOTE: This information is only used for _display_ purposes: it in no way affects any of the arithmetic of the contract, including {IERC20-balanceOf} and {IERC20-transfer}."
			},
			"name()": {
				"details": "Returns the name of the token."
			},
			"owner()": {
				"details": "Returns the address of the current owner."
			},
			"renounceOwnership()": {
				"details": "Leaves the contract without owner. It will not be possible to call `onlyOwner` functions. Can only be called by the current owner. NOTE: Renouncing ownership will leave the contract without an owner, thereby disabling any functionality that is only available to the owner."
			},
			"symbol()": {
				"details": "Returns the symbol of the token, usually a shorter version of the name."
			},
			"totalSupply()": {
				"details": "See {IERC20-totalSupply}."
			},
			"transferOwnership(address)": {
				"details": "Transfers ownership of the contract to a new account (`newOwner`). Can only be called by the current owner."
			}
		},
		"version": 1
	},
	"userdoc": {
		"kind": "user",
		"methods": {},
		"version": 1
	},
	"storageLayout": {
		"storage": [
			{
				"astId": 3177,
				"contract": "contracts/Carbon.sol:Carbon",
				"label": "_balances",
				"offset": 0,
				"slot": "0",
				"type": "t_mapping(t_address,t_uint256)"
			},
			{
				"astId": 3183,
				"contract": "contracts/Carbon.sol:Carbon",
				"label": "_allowances",
				"offset": 0,
				"slot": "1",
				"type": "t_mapping(t_address,t_mapping(t_address,t_uint256))"
			},
			{
				"astId": 3185,
				"contract": "contracts/Carbon.sol:Carbon",
				"label": "_totalSupply",
				"offset": 0,
				"slot": "2",
				"type": "t_uint256"
			},
			{
				"astId": 3187,
				"contract": "contracts/Carbon.sol:Carbon",
				"label": "_name",
				"offset": 0,
				"slot": "3",
				"type": "t_string_storage"
			},
			{
				"astId": 3189,
				"contract": "contracts/Carbon.sol:Carbon",
				"label": "_symbol",
				"offset": 0,
				"slot": "4",
				"type": "t_string_storage"
			},
			{
				"astId": 2878,
				"contract": "contracts/Carbon.sol:Carbon",
				"label": "_owner",
				"offset": 0,
				"slot": "5",
				"type": "t_address"
			},
			{
				"astId": 7380,
				"contract": "contracts/Carbon.sol:Carbon",
				"label": "TCO2FaucetExtense",
				"offset": 0,
				"slot": "6",
				"type": "t_contract(ITCO2Faucet)9419"
			},
			{
				"astId": 7383,
				"contract": "contracts/Carbon.sol:Carbon",
				"label": "TCO2TokenExtense",
				"offset": 0,
				"slot": "7",
				"type": "t_contract(ITCO2Token)9431"
			},
			{
				"astId": 7385,
				"contract": "contracts/Carbon.sol:Carbon",
				"label": "EPNS_COMM_ADDRESS",
				"offset": 0,
				"slot": "8",
				"type": "t_address"
			},
			{
				"astId": 7387,
				"contract": "contracts/Carbon.sol:Carbon",
				"label": "CARBON_CERTIFICATE_ADDRESS",
				"offset": 0,
				"slot": "9",
				"type": "t_address"
			},
			{
				"astId": 7389,
				"contract": "contracts/Carbon.sol:Carbon",
				"label": "CARBON_CALCULATOR_ADDRESS",
				"offset": 0,
				"slot": "10",
				"type": "t_address"
			},
			{
				"astId": 7391,
				"contract": "contracts/Carbon.sol:Carbon",
				"label": "CARBON_COMMUNICATOR_ADDRESS",
				"offset": 0,
				"slot": "11",
				"type": "t_address"
			},
			{
				"astId": 7393,
				"contract": "contracts/Carbon.sol:Carbon",
				"label": "CARBON_RECEIVER_ADDRESS",
				"offset": 0,
				"slot": "12",
				"type": "t_address"
			},
			{
				"astId": 7395,
				"contract": "contracts/Carbon.sol:Carbon",
				"label": "TCO2TokensInContract",
				"offset": 0,
				"slot": "13",
				"type": "t_uint256"
			},
			{
				"astId": 7397,
				"contract": "contracts/Carbon.sol:Carbon",
				"label": "carbonTokensMinted",
				"offset": 0,
				"slot": "14",
				"type": "t_uint256"
			},
			{
				"astId": 7399,
				"contract": "contracts/Carbon.sol:Carbon",
				"label": "carbonTokensBurned",
				"offset": 0,
				"slot": "15",
				"type": "t_uint256"
			},
			{
				"astId": 7401,
				"contract": "contracts/Carbon.sol:Carbon",
				"label": "isMumbai",
				"offset": 0,
				"slot": "16",
				"type": "t_bool"
			},
			{
				"astId": 7405,
				"contract": "contracts/Carbon.sol:Carbon",
				"label": "carbonTokensBurnedPerUser",
				"offset": 0,
				"slot": "17",
				"type": "t_mapping(t_address,t_uint256)"
			},
			{
				"astId": 7410,
				"contract": "contracts/Carbon.sol:Carbon",
				"label": "travelRequests",
				"offset": 0,
				"slot": "18",
				"type": "t_mapping(t_bytes32,t_struct(Travel)9446_storage)"
			},
			{
				"astId": 7415,
				"contract": "contracts/Carbon.sol:Carbon",
				"label": "groceryRequests",
				"offset": 0,
				"slot": "19",
				"type": "t_mapping(t_bytes32,t_struct(Grocery)9463_storage)"
			}
		],
		"types": {
			"t_address": {
				"encoding": "inplace",
				"label": "address",
				"numberOfBytes": "20"
			},
			"t_bool": {
				"encoding": "inplace",
				"label": "bool",
				"numberOfBytes": "1"
			},
			"t_bytes32": {
				"encoding": "inplace",
				"label": "bytes32",
				"numberOfBytes": "32"
			},
			"t_contract(ITCO2Faucet)9419": {
				"encoding": "inplace",
				"label": "contract ITCO2Faucet",
				"numberOfBytes": "20"
			},
			"t_contract(ITCO2Token)9431": {
				"encoding": "inplace",
				"label": "contract ITCO2Token",
				"numberOfBytes": "20"
			},
			"t_mapping(t_address,t_mapping(t_address,t_uint256))": {
				"encoding": "mapping",
				"key": "t_address",
				"label": "mapping(address => mapping(address => uint256))",
				"numberOfBytes": "32",
				"value": "t_mapping(t_address,t_uint256)"
			},
			"t_mapping(t_address,t_uint256)": {
				"encoding": "mapping",
				"key": "t_address",
				"label": "mapping(address => uint256)",
				"numberOfBytes": "32",
				"value": "t_uint256"
			},
			"t_mapping(t_bytes32,t_struct(Grocery)9463_storage)": {
				"encoding": "mapping",
				"key": "t_bytes32",
				"label": "mapping(bytes32 => struct Grocery)",
				"numberOfBytes": "32",
				"value": "t_struct(Grocery)9463_storage"
			},
			"t_mapping(t_bytes32,t_struct(Travel)9446_storage)": {
				"encoding": "mapping",
				"key": "t_bytes32",
				"label": "mapping(bytes32 => struct Travel)",
				"numberOfBytes": "32",
				"value": "t_struct(Travel)9446_storage"
			},
			"t_string_storage": {
				"encoding": "bytes",
				"label": "string",
				"numberOfBytes": "32"
			},
			"t_struct(Grocery)9463_storage": {
				"encoding": "inplace",
				"label": "struct Grocery",
				"members": [
					{
						"astId": 9448,
						"contract": "contracts/Carbon.sol:Carbon",
						"label": "moneySpentProteins",
						"offset": 0,
						"slot": "0",
						"type": "t_string_storage"
					},
					{
						"astId": 9450,
						"contract": "contracts/Carbon.sol:Carbon",
						"label": "moneySpentFats",
						"offset": 0,
						"slot": "1",
						"type": "t_string_storage"
					},
					{
						"astId": 9452,
						"contract": "contracts/Carbon.sol:Carbon",
						"label": "moneySpentCarbs",
						"offset": 0,
						"slot": "2",
						"type": "t_string_storage"
					},
					{
						"astId": 9454,
						"contract": "contracts/Carbon.sol:Carbon",
						"label": "proteinsEmission",
						"offset": 0,
						"slot": "3",
						"type": "t_uint256"
					},
					{
						"astId": 9456,
						"contract": "contracts/Carbon.sol:Carbon",
						"label": "fatsEmission",
						"offset": 0,
						"slot": "4",
						"type": "t_uint256"
					},
					{
						"astId": 9458,
						"contract": "contracts/Carbon.sol:Carbon",
						"label": "carbsEmission",
						"offset": 0,
						"slot": "5",
						"type": "t_uint256"
					},
					{
						"astId": 9460,
						"contract": "contracts/Carbon.sol:Carbon",
						"label": "foodEmission",
						"offset": 0,
						"slot": "6",
						"type": "t_uint256"
					},
					{
						"astId": 9462,
						"contract": "contracts/Carbon.sol:Carbon",
						"label": "buyer",
						"offset": 0,
						"slot": "7",
						"type": "t_address"
					}
				],
				"numberOfBytes": "256"
			},
			"t_struct(Travel)9446_storage": {
				"encoding": "inplace",
				"label": "struct Travel",
				"members": [
					{
						"astId": 9435,
						"contract": "contracts/Carbon.sol:Carbon",
						"label": "distance",
						"offset": 0,
						"slot": "0",
						"type": "t_string_storage"
					},
					{
						"astId": 9437,
						"contract": "contracts/Carbon.sol:Carbon",
						"label": "nights",
						"offset": 0,
						"slot": "1",
						"type": "t_string_storage"
					},
					{
						"astId": 9439,
						"contract": "contracts/Carbon.sol:Carbon",
						"label": "flightEmission",
						"offset": 0,
						"slot": "2",
						"type": "t_uint256"
					},
					{
						"astId": 9441,
						"contract": "contracts/Carbon.sol:Carbon",
						"label": "hotelEmission",
						"offset": 0,
						"slot": "3",
						"type": "t_uint256"
					},
					{
						"astId": 9443,
						"contract": "contracts/Carbon.sol:Carbon",
						"label": "travelEmission",
						"offset": 0,
						"slot": "4",
						"type": "t_uint256"
					},
					{
						"astId": 9445,
						"contract": "contracts/Carbon.sol:Carbon",
						"label": "buyer",
						"offset": 0,
						"slot": "5",
						"type": "t_address"
					}
				],
				"numberOfBytes": "192"
			},
			"t_uint256": {
				"encoding": "inplace",
				"label": "uint256",
				"numberOfBytes": "32"
			}
		}
	}
}